{
	"clickcoin.sol": {
		"ClickCoin": {
			"abi": [
				{
					"inputs": [
						{
							"internalType": "string",
							"name": "name_",
							"type": "string"
						},
						{
							"internalType": "string",
							"name": "symbol_",
							"type": "string"
						},
						{
							"internalType": "uint16",
							"name": "_burnRate",
							"type": "uint16"
						}
					],
					"stateMutability": "nonpayable",
					"type": "constructor"
				},
				{
					"inputs": [
						{
							"internalType": "address",
							"name": "spender",
							"type": "address"
						},
						{
							"internalType": "uint256",
							"name": "allowance",
							"type": "uint256"
						},
						{
							"internalType": "uint256",
							"name": "needed",
							"type": "uint256"
						}
					],
					"name": "ERC20InsufficientAllowance",
					"type": "error"
				},
				{
					"inputs": [
						{
							"internalType": "address",
							"name": "sender",
							"type": "address"
						},
						{
							"internalType": "uint256",
							"name": "balance",
							"type": "uint256"
						},
						{
							"internalType": "uint256",
							"name": "needed",
							"type": "uint256"
						}
					],
					"name": "ERC20InsufficientBalance",
					"type": "error"
				},
				{
					"inputs": [
						{
							"internalType": "address",
							"name": "approver",
							"type": "address"
						}
					],
					"name": "ERC20InvalidApprover",
					"type": "error"
				},
				{
					"inputs": [
						{
							"internalType": "address",
							"name": "receiver",
							"type": "address"
						}
					],
					"name": "ERC20InvalidReceiver",
					"type": "error"
				},
				{
					"inputs": [
						{
							"internalType": "address",
							"name": "sender",
							"type": "address"
						}
					],
					"name": "ERC20InvalidSender",
					"type": "error"
				},
				{
					"inputs": [
						{
							"internalType": "address",
							"name": "spender",
							"type": "address"
						}
					],
					"name": "ERC20InvalidSpender",
					"type": "error"
				},
				{
					"inputs": [
						{
							"internalType": "address",
							"name": "owner",
							"type": "address"
						}
					],
					"name": "OwnableInvalidOwner",
					"type": "error"
				},
				{
					"inputs": [
						{
							"internalType": "address",
							"name": "account",
							"type": "address"
						}
					],
					"name": "OwnableUnauthorizedAccount",
					"type": "error"
				},
				{
					"anonymous": false,
					"inputs": [
						{
							"indexed": true,
							"internalType": "address",
							"name": "owner",
							"type": "address"
						},
						{
							"indexed": true,
							"internalType": "address",
							"name": "spender",
							"type": "address"
						},
						{
							"indexed": false,
							"internalType": "uint256",
							"name": "value",
							"type": "uint256"
						}
					],
					"name": "Approval",
					"type": "event"
				},
				{
					"anonymous": false,
					"inputs": [
						{
							"indexed": true,
							"internalType": "address",
							"name": "removeFrom",
							"type": "address"
						},
						{
							"indexed": false,
							"internalType": "uint256",
							"name": "amount",
							"type": "uint256"
						}
					],
					"name": "Burn",
					"type": "event"
				},
				{
					"anonymous": false,
					"inputs": [
						{
							"indexed": true,
							"internalType": "address",
							"name": "addTo",
							"type": "address"
						},
						{
							"indexed": false,
							"internalType": "uint256",
							"name": "amount",
							"type": "uint256"
						}
					],
					"name": "Mint",
					"type": "event"
				},
				{
					"anonymous": false,
					"inputs": [
						{
							"indexed": true,
							"internalType": "address",
							"name": "previousOwner",
							"type": "address"
						},
						{
							"indexed": true,
							"internalType": "address",
							"name": "newOwner",
							"type": "address"
						}
					],
					"name": "OwnershipTransferred",
					"type": "event"
				},
				{
					"anonymous": false,
					"inputs": [
						{
							"indexed": true,
							"internalType": "address",
							"name": "from",
							"type": "address"
						},
						{
							"indexed": true,
							"internalType": "address",
							"name": "to",
							"type": "address"
						},
						{
							"indexed": false,
							"internalType": "uint256",
							"name": "value",
							"type": "uint256"
						}
					],
					"name": "Transfer",
					"type": "event"
				},
				{
					"inputs": [
						{
							"internalType": "address",
							"name": "owner",
							"type": "address"
						},
						{
							"internalType": "address",
							"name": "spender",
							"type": "address"
						}
					],
					"name": "allowance",
					"outputs": [
						{
							"internalType": "uint256",
							"name": "",
							"type": "uint256"
						}
					],
					"stateMutability": "view",
					"type": "function"
				},
				{
					"inputs": [
						{
							"internalType": "address",
							"name": "spender",
							"type": "address"
						},
						{
							"internalType": "uint256",
							"name": "value",
							"type": "uint256"
						}
					],
					"name": "approve",
					"outputs": [
						{
							"internalType": "bool",
							"name": "",
							"type": "bool"
						}
					],
					"stateMutability": "nonpayable",
					"type": "function"
				},
				{
					"inputs": [
						{
							"internalType": "address",
							"name": "account",
							"type": "address"
						}
					],
					"name": "balanceOf",
					"outputs": [
						{
							"internalType": "uint256",
							"name": "",
							"type": "uint256"
						}
					],
					"stateMutability": "view",
					"type": "function"
				},
				{
					"inputs": [
						{
							"internalType": "uint256",
							"name": "amount",
							"type": "uint256"
						}
					],
					"name": "burn",
					"outputs": [],
					"stateMutability": "nonpayable",
					"type": "function"
				},
				{
					"inputs": [],
					"name": "burnRate",
					"outputs": [
						{
							"internalType": "uint16",
							"name": "",
							"type": "uint16"
						}
					],
					"stateMutability": "view",
					"type": "function"
				},
				{
					"inputs": [],
					"name": "decimals",
					"outputs": [
						{
							"internalType": "uint8",
							"name": "",
							"type": "uint8"
						}
					],
					"stateMutability": "view",
					"type": "function"
				},
				{
					"inputs": [
						{
							"internalType": "uint256",
							"name": "amount",
							"type": "uint256"
						}
					],
					"name": "mint",
					"outputs": [],
					"stateMutability": "nonpayable",
					"type": "function"
				},
				{
					"inputs": [],
					"name": "name",
					"outputs": [
						{
							"internalType": "string",
							"name": "",
							"type": "string"
						}
					],
					"stateMutability": "view",
					"type": "function"
				},
				{
					"inputs": [],
					"name": "owner",
					"outputs": [
						{
							"internalType": "address",
							"name": "",
							"type": "address"
						}
					],
					"stateMutability": "view",
					"type": "function"
				},
				{
					"inputs": [],
					"name": "renounceOwnership",
					"outputs": [],
					"stateMutability": "nonpayable",
					"type": "function"
				},
				{
					"inputs": [
						{
							"internalType": "uint16",
							"name": "_burnRate",
							"type": "uint16"
						}
					],
					"name": "setBurnRate",
					"outputs": [],
					"stateMutability": "nonpayable",
					"type": "function"
				},
				{
					"inputs": [],
					"name": "symbol",
					"outputs": [
						{
							"internalType": "string",
							"name": "",
							"type": "string"
						}
					],
					"stateMutability": "view",
					"type": "function"
				},
				{
					"inputs": [],
					"name": "totalSupply",
					"outputs": [
						{
							"internalType": "uint256",
							"name": "",
							"type": "uint256"
						}
					],
					"stateMutability": "view",
					"type": "function"
				},
				{
					"inputs": [
						{
							"internalType": "address",
							"name": "to",
							"type": "address"
						},
						{
							"internalType": "uint256",
							"name": "value",
							"type": "uint256"
						}
					],
					"name": "transfer",
					"outputs": [
						{
							"internalType": "bool",
							"name": "",
							"type": "bool"
						}
					],
					"stateMutability": "nonpayable",
					"type": "function"
				},
				{
					"inputs": [
						{
							"internalType": "address",
							"name": "from",
							"type": "address"
						},
						{
							"internalType": "address",
							"name": "to",
							"type": "address"
						},
						{
							"internalType": "uint256",
							"name": "value",
							"type": "uint256"
						}
					],
					"name": "transferFrom",
					"outputs": [
						{
							"internalType": "bool",
							"name": "",
							"type": "bool"
						}
					],
					"stateMutability": "nonpayable",
					"type": "function"
				},
				{
					"inputs": [
						{
							"internalType": "address",
							"name": "newOwner",
							"type": "address"
						}
					],
					"name": "transferOwnership",
					"outputs": [],
					"stateMutability": "nonpayable",
					"type": "function"
				}
			],
			"devdoc": {
				"errors": {
					"ERC20InsufficientAllowance(address,uint256,uint256)": [
						{
							"details": "Indicates a failure with the `spender`’s `allowance`. Used in transfers.",
							"params": {
								"allowance": "Amount of tokens a `spender` is allowed to operate with.",
								"needed": "Minimum amount required to perform a transfer.",
								"spender": "Address that may be allowed to operate on tokens without being their owner."
							}
						}
					],
					"ERC20InsufficientBalance(address,uint256,uint256)": [
						{
							"details": "Indicates an error related to the current `balance` of a `sender`. Used in transfers.",
							"params": {
								"balance": "Current balance for the interacting account.",
								"needed": "Minimum amount required to perform a transfer.",
								"sender": "Address whose tokens are being transferred."
							}
						}
					],
					"ERC20InvalidApprover(address)": [
						{
							"details": "Indicates a failure with the `approver` of a token to be approved. Used in approvals.",
							"params": {
								"approver": "Address initiating an approval operation."
							}
						}
					],
					"ERC20InvalidReceiver(address)": [
						{
							"details": "Indicates a failure with the token `receiver`. Used in transfers.",
							"params": {
								"receiver": "Address to which tokens are being transferred."
							}
						}
					],
					"ERC20InvalidSender(address)": [
						{
							"details": "Indicates a failure with the token `sender`. Used in transfers.",
							"params": {
								"sender": "Address whose tokens are being transferred."
							}
						}
					],
					"ERC20InvalidSpender(address)": [
						{
							"details": "Indicates a failure with the `spender` to be approved. Used in approvals.",
							"params": {
								"spender": "Address that may be allowed to operate on tokens without being their owner."
							}
						}
					],
					"OwnableInvalidOwner(address)": [
						{
							"details": "The owner is not a valid owner account. (eg. `address(0)`)"
						}
					],
					"OwnableUnauthorizedAccount(address)": [
						{
							"details": "The caller account is not authorized to perform an operation."
						}
					]
				},
				"events": {
					"Approval(address,address,uint256)": {
						"details": "Emitted when the allowance of a `spender` for an `owner` is set by a call to {approve}. `value` is the new allowance."
					},
					"Transfer(address,address,uint256)": {
						"details": "Emitted when `value` tokens are moved from one account (`from`) to another (`to`). Note that `value` may be zero."
					}
				},
				"kind": "dev",
				"methods": {
					"allowance(address,address)": {
						"details": "See {IERC20-allowance}."
					},
					"approve(address,uint256)": {
						"details": "See {IERC20-approve}. NOTE: If `value` is the maximum `uint256`, the allowance is not updated on `transferFrom`. This is semantically equivalent to an infinite approval. Requirements: - `spender` cannot be the zero address."
					},
					"balanceOf(address)": {
						"details": "See {IERC20-balanceOf}."
					},
					"decimals()": {
						"details": "Returns the number of decimals used to get its user representation. For example, if `decimals` equals `2`, a balance of `505` tokens should be displayed to a user as `5.05` (`505 / 10 ** 2`). Tokens usually opt for a value of 18, imitating the relationship between Ether and Wei. This is the default value returned by this function, unless it's overridden. NOTE: This information is only used for _display_ purposes: it in no way affects any of the arithmetic of the contract, including {IERC20-balanceOf} and {IERC20-transfer}."
					},
					"name()": {
						"details": "Returns the name of the token."
					},
					"owner()": {
						"details": "Returns the address of the current owner."
					},
					"renounceOwnership()": {
						"details": "Leaves the contract without owner. It will not be possible to call `onlyOwner` functions. Can only be called by the current owner. NOTE: Renouncing ownership will leave the contract without an owner, thereby disabling any functionality that is only available to the owner."
					},
					"symbol()": {
						"details": "Returns the symbol of the token, usually a shorter version of the name."
					},
					"totalSupply()": {
						"details": "See {IERC20-totalSupply}."
					},
					"transfer(address,uint256)": {
						"details": "See {IERC20-transfer}. Requirements: - `to` cannot be the zero address. - the caller must have a balance of at least `value`."
					},
					"transferFrom(address,address,uint256)": {
						"details": "See {IERC20-transferFrom}. Skips emitting an {Approval} event indicating an allowance update. This is not required by the ERC. See {xref-ERC20-_approve-address-address-uint256-bool-}[_approve]. NOTE: Does not update the allowance if the current allowance is the maximum `uint256`. Requirements: - `from` and `to` cannot be the zero address. - `from` must have a balance of at least `value`. - the caller must have allowance for ``from``'s tokens of at least `value`."
					},
					"transferOwnership(address)": {
						"details": "Transfers ownership of the contract to a new account (`newOwner`). Can only be called by the current owner."
					}
				},
				"version": 1
			},
			"evm": {
				"assembly": "    /* \"clickcoin.sol\":245:2893  contract ClickCoin is ERC20,Ownable{... */\n  mstore(0x40, 0x80)\n    /* \"clickcoin.sol\":411:644  constructor(string memory name_, string memory symbol_, uint16 _burnRate) ERC20(name_,symbol_) Ownable(msg.sender){... */\n  callvalue\n  dup1\n  iszero\n  tag_1\n  jumpi\n  0x00\n  dup1\n  revert\ntag_1:\n  pop\n  mload(0x40)\n  sub(codesize, bytecodeSize)\n  dup1\n  bytecodeSize\n  dup4\n  codecopy\n  dup2\n  dup2\n  add\n  0x40\n  mstore\n  dup2\n  add\n  swap1\n  tag_2\n  swap2\n  swap1\n  tag_3\n  jump\t// in\ntag_2:\n    /* \"clickcoin.sol\":514:524  msg.sender */\n  caller\n    /* \"clickcoin.sol\":491:496  name_ */\n  dup4\n    /* \"clickcoin.sol\":497:504  symbol_ */\n  dup4\n    /* \"@openzeppelin/contracts/token/ERC20/ERC20.sol\":1675:1680  name_ */\n  dup2\n    /* \"@openzeppelin/contracts/token/ERC20/ERC20.sol\":1667:1672  _name */\n  0x03\n    /* \"@openzeppelin/contracts/token/ERC20/ERC20.sol\":1667:1680  _name = name_ */\n  swap1\n  dup2\n  tag_8\n  swap2\n  swap1\n  tag_9\n  jump\t// in\ntag_8:\n  pop\n    /* \"@openzeppelin/contracts/token/ERC20/ERC20.sol\":1700:1707  symbol_ */\n  dup1\n    /* \"@openzeppelin/contracts/token/ERC20/ERC20.sol\":1690:1697  _symbol */\n  0x04\n    /* \"@openzeppelin/contracts/token/ERC20/ERC20.sol\":1690:1707  _symbol = symbol_ */\n  swap1\n  dup2\n  tag_10\n  swap2\n  swap1\n  tag_9\n  jump\t// in\ntag_10:\n  pop\n    /* \"@openzeppelin/contracts/token/ERC20/ERC20.sol\":1601:1714  constructor(string memory name_, string memory symbol_) {... */\n  pop\n  pop\n    /* \"@openzeppelin/contracts/access/Ownable.sol\":1297:1298  0 */\n  0x00\n    /* \"@openzeppelin/contracts/access/Ownable.sol\":1273:1299  initialOwner == address(0) */\n  0xffffffffffffffffffffffffffffffffffffffff\n  and\n    /* \"@openzeppelin/contracts/access/Ownable.sol\":1273:1285  initialOwner */\n  dup2\n    /* \"@openzeppelin/contracts/access/Ownable.sol\":1273:1299  initialOwner == address(0) */\n  0xffffffffffffffffffffffffffffffffffffffff\n  and\n  sub\n    /* \"@openzeppelin/contracts/access/Ownable.sol\":1269:1364  if (initialOwner == address(0)) {... */\n  tag_12\n  jumpi\n    /* \"@openzeppelin/contracts/access/Ownable.sol\":1350:1351  0 */\n  0x00\n    /* \"@openzeppelin/contracts/access/Ownable.sol\":1322:1353  OwnableInvalidOwner(address(0)) */\n  mload(0x40)\n  0x1e4fbdf700000000000000000000000000000000000000000000000000000000\n  dup2\n  mstore\n  0x04\n  add\n  tag_13\n  swap2\n  swap1\n  tag_14\n  jump\t// in\ntag_13:\n  mload(0x40)\n  dup1\n  swap2\n  sub\n  swap1\n  revert\n    /* \"@openzeppelin/contracts/access/Ownable.sol\":1269:1364  if (initialOwner == address(0)) {... */\ntag_12:\n    /* \"@openzeppelin/contracts/access/Ownable.sol\":1373:1405  _transferOwnership(initialOwner) */\n  tag_15\n    /* \"@openzeppelin/contracts/access/Ownable.sol\":1392:1404  initialOwner */\n  dup2\n    /* \"@openzeppelin/contracts/access/Ownable.sol\":1373:1391  _transferOwnership */\n  shl(0x20, tag_16)\n    /* \"@openzeppelin/contracts/access/Ownable.sol\":1373:1405  _transferOwnership(initialOwner) */\n  0x20\n  shr\n  jump\t// in\ntag_15:\n    /* \"@openzeppelin/contracts/access/Ownable.sol\":1225:1412  constructor(address initialOwner) {... */\n  pop\n    /* \"clickcoin.sol\":547:556  _burnRate */\n  dup1\n    /* \"clickcoin.sol\":536:544  burnRate */\n  0x05\n  0x14\n    /* \"clickcoin.sol\":536:556  burnRate = _burnRate */\n  0x0100\n  exp\n  dup2\n  sload\n  dup2\n  0xffff\n  mul\n  not\n  and\n  swap1\n  dup4\n  0xffff\n  and\n  mul\n  or\n  swap1\n  sstore\n  pop\n    /* \"clickcoin.sol\":567:599  _mint(msg.sender,1000000 * 1e18) */\n  tag_18\n    /* \"clickcoin.sol\":573:583  msg.sender */\n  caller\n    /* \"clickcoin.sol\":584:598  1000000 * 1e18 */\n  0xd3c21bcecceda1000000\n    /* \"clickcoin.sol\":567:572  _mint */\n  shl(0x20, tag_19)\n    /* \"clickcoin.sol\":567:599  _mint(msg.sender,1000000 * 1e18) */\n  0x20\n  shr\n  jump\t// in\ntag_18:\n    /* \"clickcoin.sol\":411:644  constructor(string memory name_, string memory symbol_, uint16 _burnRate) ERC20(name_,symbol_) Ownable(msg.sender){... */\n  pop\n  pop\n  pop\n    /* \"clickcoin.sol\":245:2893  contract ClickCoin is ERC20,Ownable{... */\n  jump(tag_20)\n    /* \"@openzeppelin/contracts/access/Ownable.sol\":2912:3099  function _transferOwnership(address newOwner) internal virtual {... */\ntag_16:\n    /* \"@openzeppelin/contracts/access/Ownable.sol\":2985:3001  address oldOwner */\n  0x00\n    /* \"@openzeppelin/contracts/access/Ownable.sol\":3004:3010  _owner */\n  0x05\n  0x00\n  swap1\n  sload\n  swap1\n  0x0100\n  exp\n  swap1\n  div\n  0xffffffffffffffffffffffffffffffffffffffff\n  and\n    /* \"@openzeppelin/contracts/access/Ownable.sol\":2985:3010  address oldOwner = _owner */\n  swap1\n  pop\n    /* \"@openzeppelin/contracts/access/Ownable.sol\":3029:3037  newOwner */\n  dup2\n    /* \"@openzeppelin/contracts/access/Ownable.sol\":3020:3026  _owner */\n  0x05\n  0x00\n    /* \"@openzeppelin/contracts/access/Ownable.sol\":3020:3037  _owner = newOwner */\n  0x0100\n  exp\n  dup2\n  sload\n  dup2\n  0xffffffffffffffffffffffffffffffffffffffff\n  mul\n  not\n  and\n  swap1\n  dup4\n  0xffffffffffffffffffffffffffffffffffffffff\n  and\n  mul\n  or\n  swap1\n  sstore\n  pop\n    /* \"@openzeppelin/contracts/access/Ownable.sol\":3083:3091  newOwner */\n  dup2\n    /* \"@openzeppelin/contracts/access/Ownable.sol\":3052:3092  OwnershipTransferred(oldOwner, newOwner) */\n  0xffffffffffffffffffffffffffffffffffffffff\n  and\n    /* \"@openzeppelin/contracts/access/Ownable.sol\":3073:3081  oldOwner */\n  dup2\n    /* \"@openzeppelin/contracts/access/Ownable.sol\":3052:3092  OwnershipTransferred(oldOwner, newOwner) */\n  0xffffffffffffffffffffffffffffffffffffffff\n  and\n  0x8be0079c531659141344cd1fd0a4f28419497f9722a3daafe3b4186f6b6457e0\n  mload(0x40)\n  mload(0x40)\n  dup1\n  swap2\n  sub\n  swap1\n  log3\n    /* \"@openzeppelin/contracts/access/Ownable.sol\":2975:3099  {... */\n  pop\n    /* \"@openzeppelin/contracts/access/Ownable.sol\":2912:3099  function _transferOwnership(address newOwner) internal virtual {... */\n  pop\n  jump\t// out\n    /* \"@openzeppelin/contracts/token/ERC20/ERC20.sol\":7458:7666  function _mint(address account, uint256 value) internal {... */\ntag_19:\n    /* \"@openzeppelin/contracts/token/ERC20/ERC20.sol\":7547:7548  0 */\n  0x00\n    /* \"@openzeppelin/contracts/token/ERC20/ERC20.sol\":7528:7549  account == address(0) */\n  0xffffffffffffffffffffffffffffffffffffffff\n  and\n    /* \"@openzeppelin/contracts/token/ERC20/ERC20.sol\":7528:7535  account */\n  dup3\n    /* \"@openzeppelin/contracts/token/ERC20/ERC20.sol\":7528:7549  account == address(0) */\n  0xffffffffffffffffffffffffffffffffffffffff\n  and\n  sub\n    /* \"@openzeppelin/contracts/token/ERC20/ERC20.sol\":7524:7615  if (account == address(0)) {... */\n  tag_23\n  jumpi\n    /* \"@openzeppelin/contracts/token/ERC20/ERC20.sol\":7601:7602  0 */\n  0x00\n    /* \"@openzeppelin/contracts/token/ERC20/ERC20.sol\":7572:7604  ERC20InvalidReceiver(address(0)) */\n  mload(0x40)\n  0xec442f0500000000000000000000000000000000000000000000000000000000\n  dup2\n  mstore\n  0x04\n  add\n  tag_24\n  swap2\n  swap1\n  tag_14\n  jump\t// in\ntag_24:\n  mload(0x40)\n  dup1\n  swap2\n  sub\n  swap1\n  revert\n    /* \"@openzeppelin/contracts/token/ERC20/ERC20.sol\":7524:7615  if (account == address(0)) {... */\ntag_23:\n    /* \"@openzeppelin/contracts/token/ERC20/ERC20.sol\":7624:7659  _update(address(0), account, value) */\n  tag_25\n    /* \"@openzeppelin/contracts/token/ERC20/ERC20.sol\":7640:7641  0 */\n  0x00\n    /* \"@openzeppelin/contracts/token/ERC20/ERC20.sol\":7644:7651  account */\n  dup4\n    /* \"@openzeppelin/contracts/token/ERC20/ERC20.sol\":7653:7658  value */\n  dup4\n    /* \"@openzeppelin/contracts/token/ERC20/ERC20.sol\":7624:7631  _update */\n  shl(0x20, tag_26)\n    /* \"@openzeppelin/contracts/token/ERC20/ERC20.sol\":7624:7659  _update(address(0), account, value) */\n  0x20\n  shr\n  jump\t// in\ntag_25:\n    /* \"@openzeppelin/contracts/token/ERC20/ERC20.sol\":7458:7666  function _mint(address account, uint256 value) internal {... */\n  pop\n  pop\n  jump\t// out\n    /* \"@openzeppelin/contracts/token/ERC20/ERC20.sol\":6008:7115  function _update(address from, address to, uint256 value) internal virtual {... */\ntag_26:\n    /* \"@openzeppelin/contracts/token/ERC20/ERC20.sol\":6113:6114  0 */\n  0x00\n    /* \"@openzeppelin/contracts/token/ERC20/ERC20.sol\":6097:6115  from == address(0) */\n  0xffffffffffffffffffffffffffffffffffffffff\n  and\n    /* \"@openzeppelin/contracts/token/ERC20/ERC20.sol\":6097:6101  from */\n  dup4\n    /* \"@openzeppelin/contracts/token/ERC20/ERC20.sol\":6097:6115  from == address(0) */\n  0xffffffffffffffffffffffffffffffffffffffff\n  and\n  sub\n    /* \"@openzeppelin/contracts/token/ERC20/ERC20.sol\":6093:6633  if (from == address(0)) {... */\n  tag_28\n  jumpi\n    /* \"@openzeppelin/contracts/token/ERC20/ERC20.sol\":6249:6254  value */\n  dup1\n    /* \"@openzeppelin/contracts/token/ERC20/ERC20.sol\":6233:6245  _totalSupply */\n  0x02\n  0x00\n    /* \"@openzeppelin/contracts/token/ERC20/ERC20.sol\":6233:6254  _totalSupply += value */\n  dup3\n  dup3\n  sload\n  tag_29\n  swap2\n  swap1\n  tag_30\n  jump\t// in\ntag_29:\n  swap3\n  pop\n  pop\n  dup2\n  swap1\n  sstore\n  pop\n    /* \"@openzeppelin/contracts/token/ERC20/ERC20.sol\":6093:6633  if (from == address(0)) {... */\n  jump(tag_31)\ntag_28:\n    /* \"@openzeppelin/contracts/token/ERC20/ERC20.sol\":6285:6304  uint256 fromBalance */\n  0x00\n    /* \"@openzeppelin/contracts/token/ERC20/ERC20.sol\":6307:6316  _balances */\n  dup1\n    /* \"@openzeppelin/contracts/token/ERC20/ERC20.sol\":6307:6322  _balances[from] */\n  0x00\n    /* \"@openzeppelin/contracts/token/ERC20/ERC20.sol\":6317:6321  from */\n  dup6\n    /* \"@openzeppelin/contracts/token/ERC20/ERC20.sol\":6307:6322  _balances[from] */\n  0xffffffffffffffffffffffffffffffffffffffff\n  and\n  0xffffffffffffffffffffffffffffffffffffffff\n  and\n  dup2\n  mstore\n  0x20\n  add\n  swap1\n  dup2\n  mstore\n  0x20\n  add\n  0x00\n  keccak256\n  sload\n    /* \"@openzeppelin/contracts/token/ERC20/ERC20.sol\":6285:6322  uint256 fromBalance = _balances[from] */\n  swap1\n  pop\n    /* \"@openzeppelin/contracts/token/ERC20/ERC20.sol\":6354:6359  value */\n  dup2\n    /* \"@openzeppelin/contracts/token/ERC20/ERC20.sol\":6340:6351  fromBalance */\n  dup2\n    /* \"@openzeppelin/contracts/token/ERC20/ERC20.sol\":6340:6359  fromBalance < value */\n  lt\n    /* \"@openzeppelin/contracts/token/ERC20/ERC20.sol\":6336:6451  if (fromBalance < value) {... */\n  iszero\n  tag_32\n  jumpi\n    /* \"@openzeppelin/contracts/token/ERC20/ERC20.sol\":6411:6415  from */\n  dup4\n    /* \"@openzeppelin/contracts/token/ERC20/ERC20.sol\":6417:6428  fromBalance */\n  dup2\n    /* \"@openzeppelin/contracts/token/ERC20/ERC20.sol\":6430:6435  value */\n  dup4\n    /* \"@openzeppelin/contracts/token/ERC20/ERC20.sol\":6386:6436  ERC20InsufficientBalance(from, fromBalance, value) */\n  mload(0x40)\n  0xe450d38c00000000000000000000000000000000000000000000000000000000\n  dup2\n  mstore\n  0x04\n  add\n  tag_33\n  swap4\n  swap3\n  swap2\n  swap1\n  tag_34\n  jump\t// in\ntag_33:\n  mload(0x40)\n  dup1\n  swap2\n  sub\n  swap1\n  revert\n    /* \"@openzeppelin/contracts/token/ERC20/ERC20.sol\":6336:6451  if (fromBalance < value) {... */\ntag_32:\n    /* \"@openzeppelin/contracts/token/ERC20/ERC20.sol\":6603:6608  value */\n  dup2\n    /* \"@openzeppelin/contracts/token/ERC20/ERC20.sol\":6589:6600  fromBalance */\n  dup2\n    /* \"@openzeppelin/contracts/token/ERC20/ERC20.sol\":6589:6608  fromBalance - value */\n  sub\n    /* \"@openzeppelin/contracts/token/ERC20/ERC20.sol\":6571:6580  _balances */\n  0x00\n    /* \"@openzeppelin/contracts/token/ERC20/ERC20.sol\":6571:6586  _balances[from] */\n  dup1\n    /* \"@openzeppelin/contracts/token/ERC20/ERC20.sol\":6581:6585  from */\n  dup7\n    /* \"@openzeppelin/contracts/token/ERC20/ERC20.sol\":6571:6586  _balances[from] */\n  0xffffffffffffffffffffffffffffffffffffffff\n  and\n  0xffffffffffffffffffffffffffffffffffffffff\n  and\n  dup2\n  mstore\n  0x20\n  add\n  swap1\n  dup2\n  mstore\n  0x20\n  add\n  0x00\n  keccak256\n    /* \"@openzeppelin/contracts/token/ERC20/ERC20.sol\":6571:6608  _balances[from] = fromBalance - value */\n  dup2\n  swap1\n  sstore\n  pop\n    /* \"@openzeppelin/contracts/token/ERC20/ERC20.sol\":6271:6633  {... */\n  pop\n    /* \"@openzeppelin/contracts/token/ERC20/ERC20.sol\":6093:6633  if (from == address(0)) {... */\ntag_31:\n    /* \"@openzeppelin/contracts/token/ERC20/ERC20.sol\":6661:6662  0 */\n  0x00\n    /* \"@openzeppelin/contracts/token/ERC20/ERC20.sol\":6647:6663  to == address(0) */\n  0xffffffffffffffffffffffffffffffffffffffff\n  and\n    /* \"@openzeppelin/contracts/token/ERC20/ERC20.sol\":6647:6649  to */\n  dup3\n    /* \"@openzeppelin/contracts/token/ERC20/ERC20.sol\":6647:6663  to == address(0) */\n  0xffffffffffffffffffffffffffffffffffffffff\n  and\n  sub\n    /* \"@openzeppelin/contracts/token/ERC20/ERC20.sol\":6643:7068  if (to == address(0)) {... */\n  tag_35\n  jumpi\n    /* \"@openzeppelin/contracts/token/ERC20/ERC20.sol\":6826:6831  value */\n  dup1\n    /* \"@openzeppelin/contracts/token/ERC20/ERC20.sol\":6810:6822  _totalSupply */\n  0x02\n  0x00\n    /* \"@openzeppelin/contracts/token/ERC20/ERC20.sol\":6810:6831  _totalSupply -= value */\n  dup3\n  dup3\n  sload\n  sub\n  swap3\n  pop\n  pop\n  dup2\n  swap1\n  sstore\n  pop\n    /* \"@openzeppelin/contracts/token/ERC20/ERC20.sol\":6643:7068  if (to == address(0)) {... */\n  jump(tag_36)\ntag_35:\n    /* \"@openzeppelin/contracts/token/ERC20/ERC20.sol\":7038:7043  value */\n  dup1\n    /* \"@openzeppelin/contracts/token/ERC20/ERC20.sol\":7021:7030  _balances */\n  0x00\n    /* \"@openzeppelin/contracts/token/ERC20/ERC20.sol\":7021:7034  _balances[to] */\n  dup1\n    /* \"@openzeppelin/contracts/token/ERC20/ERC20.sol\":7031:7033  to */\n  dup5\n    /* \"@openzeppelin/contracts/token/ERC20/ERC20.sol\":7021:7034  _balances[to] */\n  0xffffffffffffffffffffffffffffffffffffffff\n  and\n  0xffffffffffffffffffffffffffffffffffffffff\n  and\n  dup2\n  mstore\n  0x20\n  add\n  swap1\n  dup2\n  mstore\n  0x20\n  add\n  0x00\n  keccak256\n  0x00\n    /* \"@openzeppelin/contracts/token/ERC20/ERC20.sol\":7021:7043  _balances[to] += value */\n  dup3\n  dup3\n  sload\n  add\n  swap3\n  pop\n  pop\n  dup2\n  swap1\n  sstore\n  pop\n    /* \"@openzeppelin/contracts/token/ERC20/ERC20.sol\":6643:7068  if (to == address(0)) {... */\ntag_36:\n    /* \"@openzeppelin/contracts/token/ERC20/ERC20.sol\":7098:7100  to */\n  dup2\n    /* \"@openzeppelin/contracts/token/ERC20/ERC20.sol\":7083:7108  Transfer(from, to, value) */\n  0xffffffffffffffffffffffffffffffffffffffff\n  and\n    /* \"@openzeppelin/contracts/token/ERC20/ERC20.sol\":7092:7096  from */\n  dup4\n    /* \"@openzeppelin/contracts/token/ERC20/ERC20.sol\":7083:7108  Transfer(from, to, value) */\n  0xffffffffffffffffffffffffffffffffffffffff\n  and\n  0xddf252ad1be2c89b69c2b068fc378daa952ba7f163c4a11628f55a4df523b3ef\n    /* \"@openzeppelin/contracts/token/ERC20/ERC20.sol\":7102:7107  value */\n  dup4\n    /* \"@openzeppelin/contracts/token/ERC20/ERC20.sol\":7083:7108  Transfer(from, to, value) */\n  mload(0x40)\n  tag_37\n  swap2\n  swap1\n  tag_38\n  jump\t// in\ntag_37:\n  mload(0x40)\n  dup1\n  swap2\n  sub\n  swap1\n  log3\n    /* \"@openzeppelin/contracts/token/ERC20/ERC20.sol\":6008:7115  function _update(address from, address to, uint256 value) internal virtual {... */\n  pop\n  pop\n  pop\n  jump\t// out\n    /* \"#utility.yul\":7:82   */\ntag_39:\n    /* \"#utility.yul\":40:46   */\n  0x00\n    /* \"#utility.yul\":73:75   */\n  0x40\n    /* \"#utility.yul\":67:76   */\n  mload\n    /* \"#utility.yul\":57:76   */\n  swap1\n  pop\n    /* \"#utility.yul\":7:82   */\n  swap1\n  jump\t// out\n    /* \"#utility.yul\":88:205   */\ntag_40:\n    /* \"#utility.yul\":197:198   */\n  0x00\n    /* \"#utility.yul\":194:195   */\n  dup1\n    /* \"#utility.yul\":187:199   */\n  revert\n    /* \"#utility.yul\":211:328   */\ntag_41:\n    /* \"#utility.yul\":320:321   */\n  0x00\n    /* \"#utility.yul\":317:318   */\n  dup1\n    /* \"#utility.yul\":310:322   */\n  revert\n    /* \"#utility.yul\":334:451   */\ntag_42:\n    /* \"#utility.yul\":443:444   */\n  0x00\n    /* \"#utility.yul\":440:441   */\n  dup1\n    /* \"#utility.yul\":433:445   */\n  revert\n    /* \"#utility.yul\":457:574   */\ntag_43:\n    /* \"#utility.yul\":566:567   */\n  0x00\n    /* \"#utility.yul\":563:564   */\n  dup1\n    /* \"#utility.yul\":556:568   */\n  revert\n    /* \"#utility.yul\":580:682   */\ntag_44:\n    /* \"#utility.yul\":621:627   */\n  0x00\n    /* \"#utility.yul\":672:674   */\n  0x1f\n    /* \"#utility.yul\":668:675   */\n  not\n    /* \"#utility.yul\":663:665   */\n  0x1f\n    /* \"#utility.yul\":656:661   */\n  dup4\n    /* \"#utility.yul\":652:666   */\n  add\n    /* \"#utility.yul\":648:676   */\n  and\n    /* \"#utility.yul\":638:676   */\n  swap1\n  pop\n    /* \"#utility.yul\":580:682   */\n  swap2\n  swap1\n  pop\n  jump\t// out\n    /* \"#utility.yul\":688:868   */\ntag_45:\n    /* \"#utility.yul\":736:813   */\n  0x4e487b7100000000000000000000000000000000000000000000000000000000\n    /* \"#utility.yul\":733:734   */\n  0x00\n    /* \"#utility.yul\":726:814   */\n  mstore\n    /* \"#utility.yul\":833:837   */\n  0x41\n    /* \"#utility.yul\":830:831   */\n  0x04\n    /* \"#utility.yul\":823:838   */\n  mstore\n    /* \"#utility.yul\":857:861   */\n  0x24\n    /* \"#utility.yul\":854:855   */\n  0x00\n    /* \"#utility.yul\":847:862   */\n  revert\n    /* \"#utility.yul\":874:1155   */\ntag_46:\n    /* \"#utility.yul\":957:984   */\n  tag_88\n    /* \"#utility.yul\":979:983   */\n  dup3\n    /* \"#utility.yul\":957:984   */\n  tag_44\n  jump\t// in\ntag_88:\n    /* \"#utility.yul\":949:955   */\n  dup2\n    /* \"#utility.yul\":945:985   */\n  add\n    /* \"#utility.yul\":1087:1093   */\n  dup2\n    /* \"#utility.yul\":1075:1085   */\n  dup2\n    /* \"#utility.yul\":1072:1094   */\n  lt\n    /* \"#utility.yul\":1051:1069   */\n  0xffffffffffffffff\n    /* \"#utility.yul\":1039:1049   */\n  dup3\n    /* \"#utility.yul\":1036:1070   */\n  gt\n    /* \"#utility.yul\":1033:1095   */\n  or\n    /* \"#utility.yul\":1030:1118   */\n  iszero\n  tag_89\n  jumpi\n    /* \"#utility.yul\":1098:1116   */\n  tag_90\n  tag_45\n  jump\t// in\ntag_90:\n    /* \"#utility.yul\":1030:1118   */\ntag_89:\n    /* \"#utility.yul\":1138:1148   */\n  dup1\n    /* \"#utility.yul\":1134:1136   */\n  0x40\n    /* \"#utility.yul\":1127:1149   */\n  mstore\n    /* \"#utility.yul\":917:1155   */\n  pop\n    /* \"#utility.yul\":874:1155   */\n  pop\n  pop\n  jump\t// out\n    /* \"#utility.yul\":1161:1290   */\ntag_47:\n    /* \"#utility.yul\":1195:1201   */\n  0x00\n    /* \"#utility.yul\":1222:1242   */\n  tag_92\n  tag_39\n  jump\t// in\ntag_92:\n    /* \"#utility.yul\":1212:1242   */\n  swap1\n  pop\n    /* \"#utility.yul\":1251:1284   */\n  tag_93\n    /* \"#utility.yul\":1279:1283   */\n  dup3\n    /* \"#utility.yul\":1271:1277   */\n  dup3\n    /* \"#utility.yul\":1251:1284   */\n  tag_46\n  jump\t// in\ntag_93:\n    /* \"#utility.yul\":1161:1290   */\n  swap2\n  swap1\n  pop\n  jump\t// out\n    /* \"#utility.yul\":1296:1604   */\ntag_48:\n    /* \"#utility.yul\":1358:1362   */\n  0x00\n    /* \"#utility.yul\":1448:1466   */\n  0xffffffffffffffff\n    /* \"#utility.yul\":1440:1446   */\n  dup3\n    /* \"#utility.yul\":1437:1467   */\n  gt\n    /* \"#utility.yul\":1434:1490   */\n  iszero\n  tag_95\n  jumpi\n    /* \"#utility.yul\":1470:1488   */\n  tag_96\n  tag_45\n  jump\t// in\ntag_96:\n    /* \"#utility.yul\":1434:1490   */\ntag_95:\n    /* \"#utility.yul\":1508:1537   */\n  tag_97\n    /* \"#utility.yul\":1530:1536   */\n  dup3\n    /* \"#utility.yul\":1508:1537   */\n  tag_44\n  jump\t// in\ntag_97:\n    /* \"#utility.yul\":1500:1537   */\n  swap1\n  pop\n    /* \"#utility.yul\":1592:1596   */\n  0x20\n    /* \"#utility.yul\":1586:1590   */\n  dup2\n    /* \"#utility.yul\":1582:1597   */\n  add\n    /* \"#utility.yul\":1574:1597   */\n  swap1\n  pop\n    /* \"#utility.yul\":1296:1604   */\n  swap2\n  swap1\n  pop\n  jump\t// out\n    /* \"#utility.yul\":1610:1856   */\ntag_49:\n    /* \"#utility.yul\":1691:1692   */\n  0x00\n    /* \"#utility.yul\":1701:1814   */\ntag_99:\n    /* \"#utility.yul\":1715:1721   */\n  dup4\n    /* \"#utility.yul\":1712:1713   */\n  dup2\n    /* \"#utility.yul\":1709:1722   */\n  lt\n    /* \"#utility.yul\":1701:1814   */\n  iszero\n  tag_101\n  jumpi\n    /* \"#utility.yul\":1800:1801   */\n  dup1\n    /* \"#utility.yul\":1795:1798   */\n  dup3\n    /* \"#utility.yul\":1791:1802   */\n  add\n    /* \"#utility.yul\":1785:1803   */\n  mload\n    /* \"#utility.yul\":1781:1782   */\n  dup2\n    /* \"#utility.yul\":1776:1779   */\n  dup5\n    /* \"#utility.yul\":1772:1783   */\n  add\n    /* \"#utility.yul\":1765:1804   */\n  mstore\n    /* \"#utility.yul\":1737:1739   */\n  0x20\n    /* \"#utility.yul\":1734:1735   */\n  dup2\n    /* \"#utility.yul\":1730:1740   */\n  add\n    /* \"#utility.yul\":1725:1740   */\n  swap1\n  pop\n    /* \"#utility.yul\":1701:1814   */\n  jump(tag_99)\ntag_101:\n    /* \"#utility.yul\":1848:1849   */\n  0x00\n    /* \"#utility.yul\":1839:1845   */\n  dup5\n    /* \"#utility.yul\":1834:1837   */\n  dup5\n    /* \"#utility.yul\":1830:1846   */\n  add\n    /* \"#utility.yul\":1823:1850   */\n  mstore\n    /* \"#utility.yul\":1672:1856   */\n  pop\n    /* \"#utility.yul\":1610:1856   */\n  pop\n  pop\n  pop\n  jump\t// out\n    /* \"#utility.yul\":1862:2296   */\ntag_50:\n    /* \"#utility.yul\":1951:1956   */\n  0x00\n    /* \"#utility.yul\":1976:2042   */\n  tag_103\n    /* \"#utility.yul\":1992:2041   */\n  tag_104\n    /* \"#utility.yul\":2034:2040   */\n  dup5\n    /* \"#utility.yul\":1992:2041   */\n  tag_48\n  jump\t// in\ntag_104:\n    /* \"#utility.yul\":1976:2042   */\n  tag_47\n  jump\t// in\ntag_103:\n    /* \"#utility.yul\":1967:2042   */\n  swap1\n  pop\n    /* \"#utility.yul\":2065:2071   */\n  dup3\n    /* \"#utility.yul\":2058:2063   */\n  dup2\n    /* \"#utility.yul\":2051:2072   */\n  mstore\n    /* \"#utility.yul\":2103:2107   */\n  0x20\n    /* \"#utility.yul\":2096:2101   */\n  dup2\n    /* \"#utility.yul\":2092:2108   */\n  add\n    /* \"#utility.yul\":2141:2144   */\n  dup5\n    /* \"#utility.yul\":2132:2138   */\n  dup5\n    /* \"#utility.yul\":2127:2130   */\n  dup5\n    /* \"#utility.yul\":2123:2139   */\n  add\n    /* \"#utility.yul\":2120:2145   */\n  gt\n    /* \"#utility.yul\":2117:2229   */\n  iszero\n  tag_105\n  jumpi\n    /* \"#utility.yul\":2148:2227   */\n  tag_106\n  tag_43\n  jump\t// in\ntag_106:\n    /* \"#utility.yul\":2117:2229   */\ntag_105:\n    /* \"#utility.yul\":2238:2290   */\n  tag_107\n    /* \"#utility.yul\":2283:2289   */\n  dup5\n    /* \"#utility.yul\":2278:2281   */\n  dup3\n    /* \"#utility.yul\":2273:2276   */\n  dup6\n    /* \"#utility.yul\":2238:2290   */\n  tag_49\n  jump\t// in\ntag_107:\n    /* \"#utility.yul\":1957:2296   */\n  pop\n    /* \"#utility.yul\":1862:2296   */\n  swap4\n  swap3\n  pop\n  pop\n  pop\n  jump\t// out\n    /* \"#utility.yul\":2316:2671   */\ntag_51:\n    /* \"#utility.yul\":2383:2388   */\n  0x00\n    /* \"#utility.yul\":2432:2435   */\n  dup3\n    /* \"#utility.yul\":2425:2429   */\n  0x1f\n    /* \"#utility.yul\":2417:2423   */\n  dup4\n    /* \"#utility.yul\":2413:2430   */\n  add\n    /* \"#utility.yul\":2409:2436   */\n  slt\n    /* \"#utility.yul\":2399:2521   */\n  tag_109\n  jumpi\n    /* \"#utility.yul\":2440:2519   */\n  tag_110\n  tag_42\n  jump\t// in\ntag_110:\n    /* \"#utility.yul\":2399:2521   */\ntag_109:\n    /* \"#utility.yul\":2550:2556   */\n  dup2\n    /* \"#utility.yul\":2544:2557   */\n  mload\n    /* \"#utility.yul\":2575:2665   */\n  tag_111\n    /* \"#utility.yul\":2661:2664   */\n  dup5\n    /* \"#utility.yul\":2653:2659   */\n  dup3\n    /* \"#utility.yul\":2646:2650   */\n  0x20\n    /* \"#utility.yul\":2638:2644   */\n  dup7\n    /* \"#utility.yul\":2634:2651   */\n  add\n    /* \"#utility.yul\":2575:2665   */\n  tag_50\n  jump\t// in\ntag_111:\n    /* \"#utility.yul\":2566:2665   */\n  swap2\n  pop\n    /* \"#utility.yul\":2389:2671   */\n  pop\n    /* \"#utility.yul\":2316:2671   */\n  swap3\n  swap2\n  pop\n  pop\n  jump\t// out\n    /* \"#utility.yul\":2677:2766   */\ntag_52:\n    /* \"#utility.yul\":2713:2720   */\n  0x00\n    /* \"#utility.yul\":2753:2759   */\n  0xffff\n    /* \"#utility.yul\":2746:2751   */\n  dup3\n    /* \"#utility.yul\":2742:2760   */\n  and\n    /* \"#utility.yul\":2731:2760   */\n  swap1\n  pop\n    /* \"#utility.yul\":2677:2766   */\n  swap2\n  swap1\n  pop\n  jump\t// out\n    /* \"#utility.yul\":2772:2892   */\ntag_53:\n    /* \"#utility.yul\":2844:2867   */\n  tag_114\n    /* \"#utility.yul\":2861:2866   */\n  dup2\n    /* \"#utility.yul\":2844:2867   */\n  tag_52\n  jump\t// in\ntag_114:\n    /* \"#utility.yul\":2837:2842   */\n  dup2\n    /* \"#utility.yul\":2834:2868   */\n  eq\n    /* \"#utility.yul\":2824:2886   */\n  tag_115\n  jumpi\n    /* \"#utility.yul\":2882:2883   */\n  0x00\n    /* \"#utility.yul\":2879:2880   */\n  dup1\n    /* \"#utility.yul\":2872:2884   */\n  revert\n    /* \"#utility.yul\":2824:2886   */\ntag_115:\n    /* \"#utility.yul\":2772:2892   */\n  pop\n  jump\t// out\n    /* \"#utility.yul\":2898:3039   */\ntag_54:\n    /* \"#utility.yul\":2954:2959   */\n  0x00\n    /* \"#utility.yul\":2985:2991   */\n  dup2\n    /* \"#utility.yul\":2979:2992   */\n  mload\n    /* \"#utility.yul\":2970:2992   */\n  swap1\n  pop\n    /* \"#utility.yul\":3001:3033   */\n  tag_117\n    /* \"#utility.yul\":3027:3032   */\n  dup2\n    /* \"#utility.yul\":3001:3033   */\n  tag_53\n  jump\t// in\ntag_117:\n    /* \"#utility.yul\":2898:3039   */\n  swap3\n  swap2\n  pop\n  pop\n  jump\t// out\n    /* \"#utility.yul\":3045:4052   */\ntag_3:\n    /* \"#utility.yul\":3152:3158   */\n  0x00\n    /* \"#utility.yul\":3160:3166   */\n  dup1\n    /* \"#utility.yul\":3168:3174   */\n  0x00\n    /* \"#utility.yul\":3217:3219   */\n  0x60\n    /* \"#utility.yul\":3205:3214   */\n  dup5\n    /* \"#utility.yul\":3196:3203   */\n  dup7\n    /* \"#utility.yul\":3192:3215   */\n  sub\n    /* \"#utility.yul\":3188:3220   */\n  slt\n    /* \"#utility.yul\":3185:3304   */\n  iszero\n  tag_119\n  jumpi\n    /* \"#utility.yul\":3223:3302   */\n  tag_120\n  tag_40\n  jump\t// in\ntag_120:\n    /* \"#utility.yul\":3185:3304   */\ntag_119:\n    /* \"#utility.yul\":3364:3365   */\n  0x00\n    /* \"#utility.yul\":3353:3362   */\n  dup5\n    /* \"#utility.yul\":3349:3366   */\n  add\n    /* \"#utility.yul\":3343:3367   */\n  mload\n    /* \"#utility.yul\":3394:3412   */\n  0xffffffffffffffff\n    /* \"#utility.yul\":3386:3392   */\n  dup2\n    /* \"#utility.yul\":3383:3413   */\n  gt\n    /* \"#utility.yul\":3380:3497   */\n  iszero\n  tag_121\n  jumpi\n    /* \"#utility.yul\":3416:3495   */\n  tag_122\n  tag_41\n  jump\t// in\ntag_122:\n    /* \"#utility.yul\":3380:3497   */\ntag_121:\n    /* \"#utility.yul\":3521:3595   */\n  tag_123\n    /* \"#utility.yul\":3587:3594   */\n  dup7\n    /* \"#utility.yul\":3578:3584   */\n  dup3\n    /* \"#utility.yul\":3567:3576   */\n  dup8\n    /* \"#utility.yul\":3563:3585   */\n  add\n    /* \"#utility.yul\":3521:3595   */\n  tag_51\n  jump\t// in\ntag_123:\n    /* \"#utility.yul\":3511:3595   */\n  swap4\n  pop\n    /* \"#utility.yul\":3314:3605   */\n  pop\n    /* \"#utility.yul\":3665:3667   */\n  0x20\n    /* \"#utility.yul\":3654:3663   */\n  dup5\n    /* \"#utility.yul\":3650:3668   */\n  add\n    /* \"#utility.yul\":3644:3669   */\n  mload\n    /* \"#utility.yul\":3696:3714   */\n  0xffffffffffffffff\n    /* \"#utility.yul\":3688:3694   */\n  dup2\n    /* \"#utility.yul\":3685:3715   */\n  gt\n    /* \"#utility.yul\":3682:3799   */\n  iszero\n  tag_124\n  jumpi\n    /* \"#utility.yul\":3718:3797   */\n  tag_125\n  tag_41\n  jump\t// in\ntag_125:\n    /* \"#utility.yul\":3682:3799   */\ntag_124:\n    /* \"#utility.yul\":3823:3897   */\n  tag_126\n    /* \"#utility.yul\":3889:3896   */\n  dup7\n    /* \"#utility.yul\":3880:3886   */\n  dup3\n    /* \"#utility.yul\":3869:3878   */\n  dup8\n    /* \"#utility.yul\":3865:3887   */\n  add\n    /* \"#utility.yul\":3823:3897   */\n  tag_51\n  jump\t// in\ntag_126:\n    /* \"#utility.yul\":3813:3897   */\n  swap3\n  pop\n    /* \"#utility.yul\":3615:3907   */\n  pop\n    /* \"#utility.yul\":3946:3948   */\n  0x40\n    /* \"#utility.yul\":3972:4035   */\n  tag_127\n    /* \"#utility.yul\":4027:4034   */\n  dup7\n    /* \"#utility.yul\":4018:4024   */\n  dup3\n    /* \"#utility.yul\":4007:4016   */\n  dup8\n    /* \"#utility.yul\":4003:4025   */\n  add\n    /* \"#utility.yul\":3972:4035   */\n  tag_54\n  jump\t// in\ntag_127:\n    /* \"#utility.yul\":3962:4035   */\n  swap2\n  pop\n    /* \"#utility.yul\":3917:4045   */\n  pop\n    /* \"#utility.yul\":3045:4052   */\n  swap3\n  pop\n  swap3\n  pop\n  swap3\n  jump\t// out\n    /* \"#utility.yul\":4058:4157   */\ntag_55:\n    /* \"#utility.yul\":4110:4116   */\n  0x00\n    /* \"#utility.yul\":4144:4149   */\n  dup2\n    /* \"#utility.yul\":4138:4150   */\n  mload\n    /* \"#utility.yul\":4128:4150   */\n  swap1\n  pop\n    /* \"#utility.yul\":4058:4157   */\n  swap2\n  swap1\n  pop\n  jump\t// out\n    /* \"#utility.yul\":4163:4343   */\ntag_56:\n    /* \"#utility.yul\":4211:4288   */\n  0x4e487b7100000000000000000000000000000000000000000000000000000000\n    /* \"#utility.yul\":4208:4209   */\n  0x00\n    /* \"#utility.yul\":4201:4289   */\n  mstore\n    /* \"#utility.yul\":4308:4312   */\n  0x22\n    /* \"#utility.yul\":4305:4306   */\n  0x04\n    /* \"#utility.yul\":4298:4313   */\n  mstore\n    /* \"#utility.yul\":4332:4336   */\n  0x24\n    /* \"#utility.yul\":4329:4330   */\n  0x00\n    /* \"#utility.yul\":4322:4337   */\n  revert\n    /* \"#utility.yul\":4349:4669   */\ntag_57:\n    /* \"#utility.yul\":4393:4399   */\n  0x00\n    /* \"#utility.yul\":4430:4431   */\n  0x02\n    /* \"#utility.yul\":4424:4428   */\n  dup3\n    /* \"#utility.yul\":4420:4432   */\n  div\n    /* \"#utility.yul\":4410:4432   */\n  swap1\n  pop\n    /* \"#utility.yul\":4477:4478   */\n  0x01\n    /* \"#utility.yul\":4471:4475   */\n  dup3\n    /* \"#utility.yul\":4467:4479   */\n  and\n    /* \"#utility.yul\":4498:4516   */\n  dup1\n    /* \"#utility.yul\":4488:4569   */\n  tag_131\n  jumpi\n    /* \"#utility.yul\":4554:4558   */\n  0x7f\n    /* \"#utility.yul\":4546:4552   */\n  dup3\n    /* \"#utility.yul\":4542:4559   */\n  and\n    /* \"#utility.yul\":4532:4559   */\n  swap2\n  pop\n    /* \"#utility.yul\":4488:4569   */\ntag_131:\n    /* \"#utility.yul\":4616:4618   */\n  0x20\n    /* \"#utility.yul\":4608:4614   */\n  dup3\n    /* \"#utility.yul\":4605:4619   */\n  lt\n    /* \"#utility.yul\":4585:4603   */\n  dup2\n    /* \"#utility.yul\":4582:4620   */\n  sub\n    /* \"#utility.yul\":4579:4663   */\n  tag_132\n  jumpi\n    /* \"#utility.yul\":4635:4653   */\n  tag_133\n  tag_56\n  jump\t// in\ntag_133:\n    /* \"#utility.yul\":4579:4663   */\ntag_132:\n    /* \"#utility.yul\":4400:4669   */\n  pop\n    /* \"#utility.yul\":4349:4669   */\n  swap2\n  swap1\n  pop\n  jump\t// out\n    /* \"#utility.yul\":4675:4816   */\ntag_58:\n    /* \"#utility.yul\":4724:4728   */\n  0x00\n    /* \"#utility.yul\":4747:4750   */\n  dup2\n    /* \"#utility.yul\":4739:4750   */\n  swap1\n  pop\n    /* \"#utility.yul\":4770:4773   */\n  dup2\n    /* \"#utility.yul\":4767:4768   */\n  0x00\n    /* \"#utility.yul\":4760:4774   */\n  mstore\n    /* \"#utility.yul\":4804:4808   */\n  0x20\n    /* \"#utility.yul\":4801:4802   */\n  0x00\n    /* \"#utility.yul\":4791:4809   */\n  keccak256\n    /* \"#utility.yul\":4783:4809   */\n  swap1\n  pop\n    /* \"#utility.yul\":4675:4816   */\n  swap2\n  swap1\n  pop\n  jump\t// out\n    /* \"#utility.yul\":4822:4915   */\ntag_59:\n    /* \"#utility.yul\":4859:4865   */\n  0x00\n    /* \"#utility.yul\":4906:4908   */\n  0x20\n    /* \"#utility.yul\":4901:4903   */\n  0x1f\n    /* \"#utility.yul\":4894:4899   */\n  dup4\n    /* \"#utility.yul\":4890:4904   */\n  add\n    /* \"#utility.yul\":4886:4909   */\n  div\n    /* \"#utility.yul\":4876:4909   */\n  swap1\n  pop\n    /* \"#utility.yul\":4822:4915   */\n  swap2\n  swap1\n  pop\n  jump\t// out\n    /* \"#utility.yul\":4921:5028   */\ntag_60:\n    /* \"#utility.yul\":4965:4973   */\n  0x00\n    /* \"#utility.yul\":5015:5020   */\n  dup3\n    /* \"#utility.yul\":5009:5013   */\n  dup3\n    /* \"#utility.yul\":5005:5021   */\n  shl\n    /* \"#utility.yul\":4984:5021   */\n  swap1\n  pop\n    /* \"#utility.yul\":4921:5028   */\n  swap3\n  swap2\n  pop\n  pop\n  jump\t// out\n    /* \"#utility.yul\":5034:5427   */\ntag_61:\n    /* \"#utility.yul\":5103:5109   */\n  0x00\n    /* \"#utility.yul\":5153:5154   */\n  0x08\n    /* \"#utility.yul\":5141:5151   */\n  dup4\n    /* \"#utility.yul\":5137:5155   */\n  mul\n    /* \"#utility.yul\":5176:5273   */\n  tag_138\n    /* \"#utility.yul\":5206:5272   */\n  0xffffffffffffffffffffffffffffffffffffffffffffffffffffffffffffffff\n    /* \"#utility.yul\":5195:5204   */\n  dup3\n    /* \"#utility.yul\":5176:5273   */\n  tag_60\n  jump\t// in\ntag_138:\n    /* \"#utility.yul\":5294:5333   */\n  tag_139\n    /* \"#utility.yul\":5324:5332   */\n  dup7\n    /* \"#utility.yul\":5313:5322   */\n  dup4\n    /* \"#utility.yul\":5294:5333   */\n  tag_60\n  jump\t// in\ntag_139:\n    /* \"#utility.yul\":5282:5333   */\n  swap6\n  pop\n    /* \"#utility.yul\":5366:5370   */\n  dup1\n    /* \"#utility.yul\":5362:5371   */\n  not\n    /* \"#utility.yul\":5355:5360   */\n  dup5\n    /* \"#utility.yul\":5351:5372   */\n  and\n    /* \"#utility.yul\":5342:5372   */\n  swap4\n  pop\n    /* \"#utility.yul\":5415:5419   */\n  dup1\n    /* \"#utility.yul\":5405:5413   */\n  dup7\n    /* \"#utility.yul\":5401:5420   */\n  and\n    /* \"#utility.yul\":5394:5399   */\n  dup5\n    /* \"#utility.yul\":5391:5421   */\n  or\n    /* \"#utility.yul\":5381:5421   */\n  swap3\n  pop\n    /* \"#utility.yul\":5110:5427   */\n  pop\n  pop\n    /* \"#utility.yul\":5034:5427   */\n  swap4\n  swap3\n  pop\n  pop\n  pop\n  jump\t// out\n    /* \"#utility.yul\":5433:5510   */\ntag_62:\n    /* \"#utility.yul\":5470:5477   */\n  0x00\n    /* \"#utility.yul\":5499:5504   */\n  dup2\n    /* \"#utility.yul\":5488:5504   */\n  swap1\n  pop\n    /* \"#utility.yul\":5433:5510   */\n  swap2\n  swap1\n  pop\n  jump\t// out\n    /* \"#utility.yul\":5516:5576   */\ntag_63:\n    /* \"#utility.yul\":5544:5547   */\n  0x00\n    /* \"#utility.yul\":5565:5570   */\n  dup2\n    /* \"#utility.yul\":5558:5570   */\n  swap1\n  pop\n    /* \"#utility.yul\":5516:5576   */\n  swap2\n  swap1\n  pop\n  jump\t// out\n    /* \"#utility.yul\":5582:5724   */\ntag_64:\n    /* \"#utility.yul\":5632:5641   */\n  0x00\n    /* \"#utility.yul\":5665:5718   */\n  tag_143\n    /* \"#utility.yul\":5683:5717   */\n  tag_144\n    /* \"#utility.yul\":5692:5716   */\n  tag_145\n    /* \"#utility.yul\":5710:5715   */\n  dup5\n    /* \"#utility.yul\":5692:5716   */\n  tag_62\n  jump\t// in\ntag_145:\n    /* \"#utility.yul\":5683:5717   */\n  tag_63\n  jump\t// in\ntag_144:\n    /* \"#utility.yul\":5665:5718   */\n  tag_62\n  jump\t// in\ntag_143:\n    /* \"#utility.yul\":5652:5718   */\n  swap1\n  pop\n    /* \"#utility.yul\":5582:5724   */\n  swap2\n  swap1\n  pop\n  jump\t// out\n    /* \"#utility.yul\":5730:5805   */\ntag_65:\n    /* \"#utility.yul\":5773:5776   */\n  0x00\n    /* \"#utility.yul\":5794:5799   */\n  dup2\n    /* \"#utility.yul\":5787:5799   */\n  swap1\n  pop\n    /* \"#utility.yul\":5730:5805   */\n  swap2\n  swap1\n  pop\n  jump\t// out\n    /* \"#utility.yul\":5811:6080   */\ntag_66:\n    /* \"#utility.yul\":5921:5960   */\n  tag_148\n    /* \"#utility.yul\":5952:5959   */\n  dup4\n    /* \"#utility.yul\":5921:5960   */\n  tag_64\n  jump\t// in\ntag_148:\n    /* \"#utility.yul\":5982:6073   */\n  tag_149\n    /* \"#utility.yul\":6031:6072   */\n  tag_150\n    /* \"#utility.yul\":6055:6071   */\n  dup3\n    /* \"#utility.yul\":6031:6072   */\n  tag_65\n  jump\t// in\ntag_150:\n    /* \"#utility.yul\":6023:6029   */\n  dup5\n    /* \"#utility.yul\":6016:6020   */\n  dup5\n    /* \"#utility.yul\":6010:6021   */\n  sload\n    /* \"#utility.yul\":5982:6073   */\n  tag_61\n  jump\t// in\ntag_149:\n    /* \"#utility.yul\":5976:5980   */\n  dup3\n    /* \"#utility.yul\":5969:6074   */\n  sstore\n    /* \"#utility.yul\":5887:6080   */\n  pop\n    /* \"#utility.yul\":5811:6080   */\n  pop\n  pop\n  pop\n  jump\t// out\n    /* \"#utility.yul\":6086:6159   */\ntag_67:\n    /* \"#utility.yul\":6131:6134   */\n  0x00\n    /* \"#utility.yul\":6086:6159   */\n  swap1\n  jump\t// out\n    /* \"#utility.yul\":6165:6354   */\ntag_68:\n    /* \"#utility.yul\":6242:6274   */\n  tag_153\n  tag_67\n  jump\t// in\ntag_153:\n    /* \"#utility.yul\":6283:6348   */\n  tag_154\n    /* \"#utility.yul\":6341:6347   */\n  dup2\n    /* \"#utility.yul\":6333:6339   */\n  dup5\n    /* \"#utility.yul\":6327:6331   */\n  dup5\n    /* \"#utility.yul\":6283:6348   */\n  tag_66\n  jump\t// in\ntag_154:\n    /* \"#utility.yul\":6218:6354   */\n  pop\n    /* \"#utility.yul\":6165:6354   */\n  pop\n  pop\n  jump\t// out\n    /* \"#utility.yul\":6360:6546   */\ntag_69:\n    /* \"#utility.yul\":6420:6540   */\ntag_156:\n    /* \"#utility.yul\":6437:6440   */\n  dup2\n    /* \"#utility.yul\":6430:6435   */\n  dup2\n    /* \"#utility.yul\":6427:6441   */\n  lt\n    /* \"#utility.yul\":6420:6540   */\n  iszero\n  tag_158\n  jumpi\n    /* \"#utility.yul\":6491:6530   */\n  tag_159\n    /* \"#utility.yul\":6528:6529   */\n  0x00\n    /* \"#utility.yul\":6521:6526   */\n  dup3\n    /* \"#utility.yul\":6491:6530   */\n  tag_68\n  jump\t// in\ntag_159:\n    /* \"#utility.yul\":6464:6465   */\n  0x01\n    /* \"#utility.yul\":6457:6462   */\n  dup2\n    /* \"#utility.yul\":6453:6466   */\n  add\n    /* \"#utility.yul\":6444:6466   */\n  swap1\n  pop\n    /* \"#utility.yul\":6420:6540   */\n  jump(tag_156)\ntag_158:\n    /* \"#utility.yul\":6360:6546   */\n  pop\n  pop\n  jump\t// out\n    /* \"#utility.yul\":6552:7095   */\ntag_70:\n    /* \"#utility.yul\":6653:6655   */\n  0x1f\n    /* \"#utility.yul\":6648:6651   */\n  dup3\n    /* \"#utility.yul\":6645:6656   */\n  gt\n    /* \"#utility.yul\":6642:7088   */\n  iszero\n  tag_161\n  jumpi\n    /* \"#utility.yul\":6687:6725   */\n  tag_162\n    /* \"#utility.yul\":6719:6724   */\n  dup2\n    /* \"#utility.yul\":6687:6725   */\n  tag_58\n  jump\t// in\ntag_162:\n    /* \"#utility.yul\":6771:6800   */\n  tag_163\n    /* \"#utility.yul\":6789:6799   */\n  dup5\n    /* \"#utility.yul\":6771:6800   */\n  tag_59\n  jump\t// in\ntag_163:\n    /* \"#utility.yul\":6761:6769   */\n  dup2\n    /* \"#utility.yul\":6757:6801   */\n  add\n    /* \"#utility.yul\":6954:6956   */\n  0x20\n    /* \"#utility.yul\":6942:6952   */\n  dup6\n    /* \"#utility.yul\":6939:6957   */\n  lt\n    /* \"#utility.yul\":6936:6985   */\n  iszero\n  tag_164\n  jumpi\n    /* \"#utility.yul\":6975:6983   */\n  dup2\n    /* \"#utility.yul\":6960:6983   */\n  swap1\n  pop\n    /* \"#utility.yul\":6936:6985   */\ntag_164:\n    /* \"#utility.yul\":6998:7078   */\n  tag_165\n    /* \"#utility.yul\":7054:7076   */\n  tag_166\n    /* \"#utility.yul\":7072:7075   */\n  dup6\n    /* \"#utility.yul\":7054:7076   */\n  tag_59\n  jump\t// in\ntag_166:\n    /* \"#utility.yul\":7044:7052   */\n  dup4\n    /* \"#utility.yul\":7040:7077   */\n  add\n    /* \"#utility.yul\":7027:7038   */\n  dup3\n    /* \"#utility.yul\":6998:7078   */\n  tag_69\n  jump\t// in\ntag_165:\n    /* \"#utility.yul\":6657:7088   */\n  pop\n  pop\n    /* \"#utility.yul\":6642:7088   */\ntag_161:\n    /* \"#utility.yul\":6552:7095   */\n  pop\n  pop\n  pop\n  jump\t// out\n    /* \"#utility.yul\":7101:7218   */\ntag_71:\n    /* \"#utility.yul\":7155:7163   */\n  0x00\n    /* \"#utility.yul\":7205:7210   */\n  dup3\n    /* \"#utility.yul\":7199:7203   */\n  dup3\n    /* \"#utility.yul\":7195:7211   */\n  shr\n    /* \"#utility.yul\":7174:7211   */\n  swap1\n  pop\n    /* \"#utility.yul\":7101:7218   */\n  swap3\n  swap2\n  pop\n  pop\n  jump\t// out\n    /* \"#utility.yul\":7224:7393   */\ntag_72:\n    /* \"#utility.yul\":7268:7274   */\n  0x00\n    /* \"#utility.yul\":7301:7352   */\n  tag_169\n    /* \"#utility.yul\":7349:7350   */\n  0x00\n    /* \"#utility.yul\":7345:7351   */\n  not\n    /* \"#utility.yul\":7337:7342   */\n  dup5\n    /* \"#utility.yul\":7334:7335   */\n  0x08\n    /* \"#utility.yul\":7330:7343   */\n  mul\n    /* \"#utility.yul\":7301:7352   */\n  tag_71\n  jump\t// in\ntag_169:\n    /* \"#utility.yul\":7297:7353   */\n  not\n    /* \"#utility.yul\":7382:7386   */\n  dup1\n    /* \"#utility.yul\":7376:7380   */\n  dup4\n    /* \"#utility.yul\":7372:7387   */\n  and\n    /* \"#utility.yul\":7362:7387   */\n  swap2\n  pop\n    /* \"#utility.yul\":7275:7393   */\n  pop\n    /* \"#utility.yul\":7224:7393   */\n  swap3\n  swap2\n  pop\n  pop\n  jump\t// out\n    /* \"#utility.yul\":7398:7693   */\ntag_73:\n    /* \"#utility.yul\":7474:7478   */\n  0x00\n    /* \"#utility.yul\":7620:7649   */\n  tag_171\n    /* \"#utility.yul\":7645:7648   */\n  dup4\n    /* \"#utility.yul\":7639:7643   */\n  dup4\n    /* \"#utility.yul\":7620:7649   */\n  tag_72\n  jump\t// in\ntag_171:\n    /* \"#utility.yul\":7612:7649   */\n  swap2\n  pop\n    /* \"#utility.yul\":7682:7685   */\n  dup3\n    /* \"#utility.yul\":7679:7680   */\n  0x02\n    /* \"#utility.yul\":7675:7686   */\n  mul\n    /* \"#utility.yul\":7669:7673   */\n  dup3\n    /* \"#utility.yul\":7666:7687   */\n  or\n    /* \"#utility.yul\":7658:7687   */\n  swap1\n  pop\n    /* \"#utility.yul\":7398:7693   */\n  swap3\n  swap2\n  pop\n  pop\n  jump\t// out\n    /* \"#utility.yul\":7698:9093   */\ntag_9:\n    /* \"#utility.yul\":7815:7852   */\n  tag_173\n    /* \"#utility.yul\":7848:7851   */\n  dup3\n    /* \"#utility.yul\":7815:7852   */\n  tag_55\n  jump\t// in\ntag_173:\n    /* \"#utility.yul\":7917:7935   */\n  0xffffffffffffffff\n    /* \"#utility.yul\":7909:7915   */\n  dup2\n    /* \"#utility.yul\":7906:7936   */\n  gt\n    /* \"#utility.yul\":7903:7959   */\n  iszero\n  tag_174\n  jumpi\n    /* \"#utility.yul\":7939:7957   */\n  tag_175\n  tag_45\n  jump\t// in\ntag_175:\n    /* \"#utility.yul\":7903:7959   */\ntag_174:\n    /* \"#utility.yul\":7983:8021   */\n  tag_176\n    /* \"#utility.yul\":8015:8019   */\n  dup3\n    /* \"#utility.yul\":8009:8020   */\n  sload\n    /* \"#utility.yul\":7983:8021   */\n  tag_57\n  jump\t// in\ntag_176:\n    /* \"#utility.yul\":8068:8135   */\n  tag_177\n    /* \"#utility.yul\":8128:8134   */\n  dup3\n    /* \"#utility.yul\":8120:8126   */\n  dup3\n    /* \"#utility.yul\":8114:8118   */\n  dup6\n    /* \"#utility.yul\":8068:8135   */\n  tag_70\n  jump\t// in\ntag_177:\n    /* \"#utility.yul\":8162:8163   */\n  0x00\n    /* \"#utility.yul\":8186:8190   */\n  0x20\n    /* \"#utility.yul\":8173:8190   */\n  swap1\n  pop\n    /* \"#utility.yul\":8218:8220   */\n  0x1f\n    /* \"#utility.yul\":8210:8216   */\n  dup4\n    /* \"#utility.yul\":8207:8221   */\n  gt\n    /* \"#utility.yul\":8235:8236   */\n  0x01\n    /* \"#utility.yul\":8230:8848   */\n  dup2\n  eq\n  tag_179\n  jumpi\n    /* \"#utility.yul\":8892:8893   */\n  0x00\n    /* \"#utility.yul\":8909:8915   */\n  dup5\n    /* \"#utility.yul\":8906:8983   */\n  iszero\n  tag_180\n  jumpi\n    /* \"#utility.yul\":8958:8967   */\n  dup3\n    /* \"#utility.yul\":8953:8956   */\n  dup8\n    /* \"#utility.yul\":8949:8968   */\n  add\n    /* \"#utility.yul\":8943:8969   */\n  mload\n    /* \"#utility.yul\":8934:8969   */\n  swap1\n  pop\n    /* \"#utility.yul\":8906:8983   */\ntag_180:\n    /* \"#utility.yul\":9009:9076   */\n  tag_181\n    /* \"#utility.yul\":9069:9075   */\n  dup6\n    /* \"#utility.yul\":9062:9067   */\n  dup3\n    /* \"#utility.yul\":9009:9076   */\n  tag_73\n  jump\t// in\ntag_181:\n    /* \"#utility.yul\":9003:9007   */\n  dup7\n    /* \"#utility.yul\":8996:9077   */\n  sstore\n    /* \"#utility.yul\":8865:9087   */\n  pop\n    /* \"#utility.yul\":8200:9087   */\n  jump(tag_178)\n    /* \"#utility.yul\":8230:8848   */\ntag_179:\n    /* \"#utility.yul\":8282:8286   */\n  0x1f\n    /* \"#utility.yul\":8278:8287   */\n  not\n    /* \"#utility.yul\":8270:8276   */\n  dup5\n    /* \"#utility.yul\":8266:8288   */\n  and\n    /* \"#utility.yul\":8316:8353   */\n  tag_182\n    /* \"#utility.yul\":8348:8352   */\n  dup7\n    /* \"#utility.yul\":8316:8353   */\n  tag_58\n  jump\t// in\ntag_182:\n    /* \"#utility.yul\":8375:8376   */\n  0x00\n    /* \"#utility.yul\":8389:8597   */\ntag_183:\n    /* \"#utility.yul\":8403:8410   */\n  dup3\n    /* \"#utility.yul\":8400:8401   */\n  dup2\n    /* \"#utility.yul\":8397:8411   */\n  lt\n    /* \"#utility.yul\":8389:8597   */\n  iszero\n  tag_185\n  jumpi\n    /* \"#utility.yul\":8482:8491   */\n  dup5\n    /* \"#utility.yul\":8477:8480   */\n  dup10\n    /* \"#utility.yul\":8473:8492   */\n  add\n    /* \"#utility.yul\":8467:8493   */\n  mload\n    /* \"#utility.yul\":8459:8465   */\n  dup3\n    /* \"#utility.yul\":8452:8494   */\n  sstore\n    /* \"#utility.yul\":8533:8534   */\n  0x01\n    /* \"#utility.yul\":8525:8531   */\n  dup3\n    /* \"#utility.yul\":8521:8535   */\n  add\n    /* \"#utility.yul\":8511:8535   */\n  swap2\n  pop\n    /* \"#utility.yul\":8580:8582   */\n  0x20\n    /* \"#utility.yul\":8569:8578   */\n  dup6\n    /* \"#utility.yul\":8565:8583   */\n  add\n    /* \"#utility.yul\":8552:8583   */\n  swap5\n  pop\n    /* \"#utility.yul\":8426:8430   */\n  0x20\n    /* \"#utility.yul\":8423:8424   */\n  dup2\n    /* \"#utility.yul\":8419:8431   */\n  add\n    /* \"#utility.yul\":8414:8431   */\n  swap1\n  pop\n    /* \"#utility.yul\":8389:8597   */\n  jump(tag_183)\ntag_185:\n    /* \"#utility.yul\":8625:8631   */\n  dup7\n    /* \"#utility.yul\":8616:8623   */\n  dup4\n    /* \"#utility.yul\":8613:8632   */\n  lt\n    /* \"#utility.yul\":8610:8789   */\n  iszero\n  tag_186\n  jumpi\n    /* \"#utility.yul\":8683:8692   */\n  dup5\n    /* \"#utility.yul\":8678:8681   */\n  dup10\n    /* \"#utility.yul\":8674:8693   */\n  add\n    /* \"#utility.yul\":8668:8694   */\n  mload\n    /* \"#utility.yul\":8726:8774   */\n  tag_187\n    /* \"#utility.yul\":8768:8772   */\n  0x1f\n    /* \"#utility.yul\":8760:8766   */\n  dup10\n    /* \"#utility.yul\":8756:8773   */\n  and\n    /* \"#utility.yul\":8745:8754   */\n  dup3\n    /* \"#utility.yul\":8726:8774   */\n  tag_72\n  jump\t// in\ntag_187:\n    /* \"#utility.yul\":8718:8724   */\n  dup4\n    /* \"#utility.yul\":8711:8775   */\n  sstore\n    /* \"#utility.yul\":8633:8789   */\n  pop\n    /* \"#utility.yul\":8610:8789   */\ntag_186:\n    /* \"#utility.yul\":8835:8836   */\n  0x01\n    /* \"#utility.yul\":8831:8832   */\n  0x02\n    /* \"#utility.yul\":8823:8829   */\n  dup9\n    /* \"#utility.yul\":8819:8833   */\n  mul\n    /* \"#utility.yul\":8815:8837   */\n  add\n    /* \"#utility.yul\":8809:8813   */\n  dup9\n    /* \"#utility.yul\":8802:8838   */\n  sstore\n    /* \"#utility.yul\":8237:8848   */\n  pop\n  pop\n  pop\n    /* \"#utility.yul\":8200:9087   */\ntag_178:\n  pop\n    /* \"#utility.yul\":7790:9093   */\n  pop\n  pop\n  pop\n    /* \"#utility.yul\":7698:9093   */\n  pop\n  pop\n  jump\t// out\n    /* \"#utility.yul\":9099:9225   */\ntag_74:\n    /* \"#utility.yul\":9136:9143   */\n  0x00\n    /* \"#utility.yul\":9176:9218   */\n  0xffffffffffffffffffffffffffffffffffffffff\n    /* \"#utility.yul\":9169:9174   */\n  dup3\n    /* \"#utility.yul\":9165:9219   */\n  and\n    /* \"#utility.yul\":9154:9219   */\n  swap1\n  pop\n    /* \"#utility.yul\":9099:9225   */\n  swap2\n  swap1\n  pop\n  jump\t// out\n    /* \"#utility.yul\":9231:9327   */\ntag_75:\n    /* \"#utility.yul\":9268:9275   */\n  0x00\n    /* \"#utility.yul\":9297:9321   */\n  tag_190\n    /* \"#utility.yul\":9315:9320   */\n  dup3\n    /* \"#utility.yul\":9297:9321   */\n  tag_74\n  jump\t// in\ntag_190:\n    /* \"#utility.yul\":9286:9321   */\n  swap1\n  pop\n    /* \"#utility.yul\":9231:9327   */\n  swap2\n  swap1\n  pop\n  jump\t// out\n    /* \"#utility.yul\":9333:9451   */\ntag_76:\n    /* \"#utility.yul\":9420:9444   */\n  tag_192\n    /* \"#utility.yul\":9438:9443   */\n  dup2\n    /* \"#utility.yul\":9420:9444   */\n  tag_75\n  jump\t// in\ntag_192:\n    /* \"#utility.yul\":9415:9418   */\n  dup3\n    /* \"#utility.yul\":9408:9445   */\n  mstore\n    /* \"#utility.yul\":9333:9451   */\n  pop\n  pop\n  jump\t// out\n    /* \"#utility.yul\":9457:9679   */\ntag_14:\n    /* \"#utility.yul\":9550:9554   */\n  0x00\n    /* \"#utility.yul\":9588:9590   */\n  0x20\n    /* \"#utility.yul\":9577:9586   */\n  dup3\n    /* \"#utility.yul\":9573:9591   */\n  add\n    /* \"#utility.yul\":9565:9591   */\n  swap1\n  pop\n    /* \"#utility.yul\":9601:9672   */\n  tag_194\n    /* \"#utility.yul\":9669:9670   */\n  0x00\n    /* \"#utility.yul\":9658:9667   */\n  dup4\n    /* \"#utility.yul\":9654:9671   */\n  add\n    /* \"#utility.yul\":9645:9651   */\n  dup5\n    /* \"#utility.yul\":9601:9672   */\n  tag_76\n  jump\t// in\ntag_194:\n    /* \"#utility.yul\":9457:9679   */\n  swap3\n  swap2\n  pop\n  pop\n  jump\t// out\n    /* \"#utility.yul\":9685:9865   */\ntag_77:\n    /* \"#utility.yul\":9733:9810   */\n  0x4e487b7100000000000000000000000000000000000000000000000000000000\n    /* \"#utility.yul\":9730:9731   */\n  0x00\n    /* \"#utility.yul\":9723:9811   */\n  mstore\n    /* \"#utility.yul\":9830:9834   */\n  0x11\n    /* \"#utility.yul\":9827:9828   */\n  0x04\n    /* \"#utility.yul\":9820:9835   */\n  mstore\n    /* \"#utility.yul\":9854:9858   */\n  0x24\n    /* \"#utility.yul\":9851:9852   */\n  0x00\n    /* \"#utility.yul\":9844:9859   */\n  revert\n    /* \"#utility.yul\":9871:10062   */\ntag_30:\n    /* \"#utility.yul\":9911:9914   */\n  0x00\n    /* \"#utility.yul\":9930:9950   */\n  tag_197\n    /* \"#utility.yul\":9948:9949   */\n  dup3\n    /* \"#utility.yul\":9930:9950   */\n  tag_62\n  jump\t// in\ntag_197:\n    /* \"#utility.yul\":9925:9950   */\n  swap2\n  pop\n    /* \"#utility.yul\":9964:9984   */\n  tag_198\n    /* \"#utility.yul\":9982:9983   */\n  dup4\n    /* \"#utility.yul\":9964:9984   */\n  tag_62\n  jump\t// in\ntag_198:\n    /* \"#utility.yul\":9959:9984   */\n  swap3\n  pop\n    /* \"#utility.yul\":10007:10008   */\n  dup3\n    /* \"#utility.yul\":10004:10005   */\n  dup3\n    /* \"#utility.yul\":10000:10009   */\n  add\n    /* \"#utility.yul\":9993:10009   */\n  swap1\n  pop\n    /* \"#utility.yul\":10028:10031   */\n  dup1\n    /* \"#utility.yul\":10025:10026   */\n  dup3\n    /* \"#utility.yul\":10022:10032   */\n  gt\n    /* \"#utility.yul\":10019:10055   */\n  iszero\n  tag_199\n  jumpi\n    /* \"#utility.yul\":10035:10053   */\n  tag_200\n  tag_77\n  jump\t// in\ntag_200:\n    /* \"#utility.yul\":10019:10055   */\ntag_199:\n    /* \"#utility.yul\":9871:10062   */\n  swap3\n  swap2\n  pop\n  pop\n  jump\t// out\n    /* \"#utility.yul\":10068:10186   */\ntag_78:\n    /* \"#utility.yul\":10155:10179   */\n  tag_202\n    /* \"#utility.yul\":10173:10178   */\n  dup2\n    /* \"#utility.yul\":10155:10179   */\n  tag_62\n  jump\t// in\ntag_202:\n    /* \"#utility.yul\":10150:10153   */\n  dup3\n    /* \"#utility.yul\":10143:10180   */\n  mstore\n    /* \"#utility.yul\":10068:10186   */\n  pop\n  pop\n  jump\t// out\n    /* \"#utility.yul\":10192:10634   */\ntag_34:\n    /* \"#utility.yul\":10341:10345   */\n  0x00\n    /* \"#utility.yul\":10379:10381   */\n  0x60\n    /* \"#utility.yul\":10368:10377   */\n  dup3\n    /* \"#utility.yul\":10364:10382   */\n  add\n    /* \"#utility.yul\":10356:10382   */\n  swap1\n  pop\n    /* \"#utility.yul\":10392:10463   */\n  tag_204\n    /* \"#utility.yul\":10460:10461   */\n  0x00\n    /* \"#utility.yul\":10449:10458   */\n  dup4\n    /* \"#utility.yul\":10445:10462   */\n  add\n    /* \"#utility.yul\":10436:10442   */\n  dup7\n    /* \"#utility.yul\":10392:10463   */\n  tag_76\n  jump\t// in\ntag_204:\n    /* \"#utility.yul\":10473:10545   */\n  tag_205\n    /* \"#utility.yul\":10541:10543   */\n  0x20\n    /* \"#utility.yul\":10530:10539   */\n  dup4\n    /* \"#utility.yul\":10526:10544   */\n  add\n    /* \"#utility.yul\":10517:10523   */\n  dup6\n    /* \"#utility.yul\":10473:10545   */\n  tag_78\n  jump\t// in\ntag_205:\n    /* \"#utility.yul\":10555:10627   */\n  tag_206\n    /* \"#utility.yul\":10623:10625   */\n  0x40\n    /* \"#utility.yul\":10612:10621   */\n  dup4\n    /* \"#utility.yul\":10608:10626   */\n  add\n    /* \"#utility.yul\":10599:10605   */\n  dup5\n    /* \"#utility.yul\":10555:10627   */\n  tag_78\n  jump\t// in\ntag_206:\n    /* \"#utility.yul\":10192:10634   */\n  swap5\n  swap4\n  pop\n  pop\n  pop\n  pop\n  jump\t// out\n    /* \"#utility.yul\":10640:10862   */\ntag_38:\n    /* \"#utility.yul\":10733:10737   */\n  0x00\n    /* \"#utility.yul\":10771:10773   */\n  0x20\n    /* \"#utility.yul\":10760:10769   */\n  dup3\n    /* \"#utility.yul\":10756:10774   */\n  add\n    /* \"#utility.yul\":10748:10774   */\n  swap1\n  pop\n    /* \"#utility.yul\":10784:10855   */\n  tag_208\n    /* \"#utility.yul\":10852:10853   */\n  0x00\n    /* \"#utility.yul\":10841:10850   */\n  dup4\n    /* \"#utility.yul\":10837:10854   */\n  add\n    /* \"#utility.yul\":10828:10834   */\n  dup5\n    /* \"#utility.yul\":10784:10855   */\n  tag_78\n  jump\t// in\ntag_208:\n    /* \"#utility.yul\":10640:10862   */\n  swap3\n  swap2\n  pop\n  pop\n  jump\t// out\n    /* \"clickcoin.sol\":245:2893  contract ClickCoin is ERC20,Ownable{... */\ntag_20:\n  dataSize(sub_0)\n  dup1\n  dataOffset(sub_0)\n  0x00\n  codecopy\n  0x00\n  return\nstop\n\nsub_0: assembly {\n        /* \"clickcoin.sol\":245:2893  contract ClickCoin is ERC20,Ownable{... */\n      mstore(0x40, 0x80)\n      callvalue\n      dup1\n      iszero\n      tag_1\n      jumpi\n      0x00\n      dup1\n      revert\n    tag_1:\n      pop\n      jumpi(tag_2, lt(calldatasize, 0x04))\n      shr(0xe0, calldataload(0x00))\n      dup1\n      0x8da5cb5b\n      gt\n      tag_19\n      jumpi\n      dup1\n      0xb4969b96\n      gt\n      tag_20\n      jumpi\n      dup1\n      0xb4969b96\n      eq\n      tag_15\n      jumpi\n      dup1\n      0xbed99850\n      eq\n      tag_16\n      jumpi\n      dup1\n      0xdd62ed3e\n      eq\n      tag_17\n      jumpi\n      dup1\n      0xf2fde38b\n      eq\n      tag_18\n      jumpi\n      jump(tag_2)\n    tag_20:\n      dup1\n      0x8da5cb5b\n      eq\n      tag_11\n      jumpi\n      dup1\n      0x95d89b41\n      eq\n      tag_12\n      jumpi\n      dup1\n      0xa0712d68\n      eq\n      tag_13\n      jumpi\n      dup1\n      0xa9059cbb\n      eq\n      tag_14\n      jumpi\n      jump(tag_2)\n    tag_19:\n      dup1\n      0x313ce567\n      gt\n      tag_21\n      jumpi\n      dup1\n      0x313ce567\n      eq\n      tag_7\n      jumpi\n      dup1\n      0x42966c68\n      eq\n      tag_8\n      jumpi\n      dup1\n      0x70a08231\n      eq\n      tag_9\n      jumpi\n      dup1\n      0x715018a6\n      eq\n      tag_10\n      jumpi\n      jump(tag_2)\n    tag_21:\n      dup1\n      0x06fdde03\n      eq\n      tag_3\n      jumpi\n      dup1\n      0x095ea7b3\n      eq\n      tag_4\n      jumpi\n      dup1\n      0x18160ddd\n      eq\n      tag_5\n      jumpi\n      dup1\n      0x23b872dd\n      eq\n      tag_6\n      jumpi\n    tag_2:\n      0x00\n      dup1\n      revert\n        /* \"@openzeppelin/contracts/token/ERC20/ERC20.sol\":1779:1868  function name() public view virtual returns (string memory) {... */\n    tag_3:\n      tag_22\n      tag_23\n      jump\t// in\n    tag_22:\n      mload(0x40)\n      tag_24\n      swap2\n      swap1\n      tag_25\n      jump\t// in\n    tag_24:\n      mload(0x40)\n      dup1\n      swap2\n      sub\n      swap1\n      return\n        /* \"@openzeppelin/contracts/token/ERC20/ERC20.sol\":3998:4184  function approve(address spender, uint256 value) public virtual returns (bool) {... */\n    tag_4:\n      tag_26\n      0x04\n      dup1\n      calldatasize\n      sub\n      dup2\n      add\n      swap1\n      tag_27\n      swap2\n      swap1\n      tag_28\n      jump\t// in\n    tag_27:\n      tag_29\n      jump\t// in\n    tag_26:\n      mload(0x40)\n      tag_30\n      swap2\n      swap1\n      tag_31\n      jump\t// in\n    tag_30:\n      mload(0x40)\n      dup1\n      swap2\n      sub\n      swap1\n      return\n        /* \"@openzeppelin/contracts/token/ERC20/ERC20.sol\":2849:2946  function totalSupply() public view virtual returns (uint256) {... */\n    tag_5:\n      tag_32\n      tag_33\n      jump\t// in\n    tag_32:\n      mload(0x40)\n      tag_34\n      swap2\n      swap1\n      tag_35\n      jump\t// in\n    tag_34:\n      mload(0x40)\n      dup1\n      swap2\n      sub\n      swap1\n      return\n        /* \"clickcoin.sol\":2368:2886  function transferFrom(address from, address to, uint256 value) public override  minimumTransfer(value) returns (bool) {... */\n    tag_6:\n      tag_36\n      0x04\n      dup1\n      calldatasize\n      sub\n      dup2\n      add\n      swap1\n      tag_37\n      swap2\n      swap1\n      tag_38\n      jump\t// in\n    tag_37:\n      tag_39\n      jump\t// in\n    tag_36:\n      mload(0x40)\n      tag_40\n      swap2\n      swap1\n      tag_31\n      jump\t// in\n    tag_40:\n      mload(0x40)\n      dup1\n      swap2\n      sub\n      swap1\n      return\n        /* \"@openzeppelin/contracts/token/ERC20/ERC20.sol\":2707:2789  function decimals() public view virtual returns (uint8) {... */\n    tag_7:\n      tag_41\n      tag_42\n      jump\t// in\n    tag_41:\n      mload(0x40)\n      tag_43\n      swap2\n      swap1\n      tag_44\n      jump\t// in\n    tag_43:\n      mload(0x40)\n      dup1\n      swap2\n      sub\n      swap1\n      return\n        /* \"clickcoin.sol\":1540:1671  function burn(uint256 amount) public onlyOwner {... */\n    tag_8:\n      tag_45\n      0x04\n      dup1\n      calldatasize\n      sub\n      dup2\n      add\n      swap1\n      tag_46\n      swap2\n      swap1\n      tag_47\n      jump\t// in\n    tag_46:\n      tag_48\n      jump\t// in\n    tag_45:\n      stop\n        /* \"@openzeppelin/contracts/token/ERC20/ERC20.sol\":3004:3120  function balanceOf(address account) public view virtual returns (uint256) {... */\n    tag_9:\n      tag_49\n      0x04\n      dup1\n      calldatasize\n      sub\n      dup2\n      add\n      swap1\n      tag_50\n      swap2\n      swap1\n      tag_51\n      jump\t// in\n    tag_50:\n      tag_52\n      jump\t// in\n    tag_49:\n      mload(0x40)\n      tag_53\n      swap2\n      swap1\n      tag_35\n      jump\t// in\n    tag_53:\n      mload(0x40)\n      dup1\n      swap2\n      sub\n      swap1\n      return\n        /* \"@openzeppelin/contracts/access/Ownable.sol\":2293:2394  function renounceOwnership() public virtual onlyOwner {... */\n    tag_10:\n      tag_54\n      tag_55\n      jump\t// in\n    tag_54:\n      stop\n        /* \"@openzeppelin/contracts/access/Ownable.sol\":1638:1723  function owner() public view virtual returns (address) {... */\n    tag_11:\n      tag_56\n      tag_57\n      jump\t// in\n    tag_56:\n      mload(0x40)\n      tag_58\n      swap2\n      swap1\n      tag_59\n      jump\t// in\n    tag_58:\n      mload(0x40)\n      dup1\n      swap2\n      sub\n      swap1\n      return\n        /* \"@openzeppelin/contracts/token/ERC20/ERC20.sol\":1981:2074  function symbol() public view virtual returns (string memory) {... */\n    tag_12:\n      tag_60\n      tag_61\n      jump\t// in\n    tag_60:\n      mload(0x40)\n      tag_62\n      swap2\n      swap1\n      tag_25\n      jump\t// in\n    tag_62:\n      mload(0x40)\n      dup1\n      swap2\n      sub\n      swap1\n      return\n        /* \"clickcoin.sol\":1366:1457  function mint(uint256 amount) public onlyOwner {... */\n    tag_13:\n      tag_63\n      0x04\n      dup1\n      calldatasize\n      sub\n      dup2\n      add\n      swap1\n      tag_64\n      swap2\n      swap1\n      tag_47\n      jump\t// in\n    tag_64:\n      tag_65\n      jump\t// in\n    tag_63:\n      stop\n        /* \"clickcoin.sol\":1880:2316  function transfer(address to, uint256 value) public override  minimumTransfer(value) returns (bool) {... */\n    tag_14:\n      tag_66\n      0x04\n      dup1\n      calldatasize\n      sub\n      dup2\n      add\n      swap1\n      tag_67\n      swap2\n      swap1\n      tag_28\n      jump\t// in\n    tag_67:\n      tag_68\n      jump\t// in\n    tag_66:\n      mload(0x40)\n      tag_69\n      swap2\n      swap1\n      tag_31\n      jump\t// in\n    tag_69:\n      mload(0x40)\n      dup1\n      swap2\n      sub\n      swap1\n      return\n        /* \"clickcoin.sol\":1725:1841  function setBurnRate(uint16 _burnRate) external onlyOwner maxBurn(_burnRate) {... */\n    tag_15:\n      tag_70\n      0x04\n      dup1\n      calldatasize\n      sub\n      dup2\n      add\n      swap1\n      tag_71\n      swap2\n      swap1\n      tag_72\n      jump\t// in\n    tag_71:\n      tag_73\n      jump\t// in\n    tag_70:\n      stop\n        /* \"clickcoin.sol\":306:328  uint16 public burnRate */\n    tag_16:\n      tag_74\n      tag_75\n      jump\t// in\n    tag_74:\n      mload(0x40)\n      tag_76\n      swap2\n      swap1\n      tag_77\n      jump\t// in\n    tag_76:\n      mload(0x40)\n      dup1\n      swap2\n      sub\n      swap1\n      return\n        /* \"@openzeppelin/contracts/token/ERC20/ERC20.sol\":3551:3691  function allowance(address owner, address spender) public view virtual returns (uint256) {... */\n    tag_17:\n      tag_78\n      0x04\n      dup1\n      calldatasize\n      sub\n      dup2\n      add\n      swap1\n      tag_79\n      swap2\n      swap1\n      tag_80\n      jump\t// in\n    tag_79:\n      tag_81\n      jump\t// in\n    tag_78:\n      mload(0x40)\n      tag_82\n      swap2\n      swap1\n      tag_35\n      jump\t// in\n    tag_82:\n      mload(0x40)\n      dup1\n      swap2\n      sub\n      swap1\n      return\n        /* \"@openzeppelin/contracts/access/Ownable.sol\":2543:2758  function transferOwnership(address newOwner) public virtual onlyOwner {... */\n    tag_18:\n      tag_83\n      0x04\n      dup1\n      calldatasize\n      sub\n      dup2\n      add\n      swap1\n      tag_84\n      swap2\n      swap1\n      tag_51\n      jump\t// in\n    tag_84:\n      tag_85\n      jump\t// in\n    tag_83:\n      stop\n        /* \"@openzeppelin/contracts/token/ERC20/ERC20.sol\":1779:1868  function name() public view virtual returns (string memory) {... */\n    tag_23:\n        /* \"@openzeppelin/contracts/token/ERC20/ERC20.sol\":1824:1837  string memory */\n      0x60\n        /* \"@openzeppelin/contracts/token/ERC20/ERC20.sol\":1856:1861  _name */\n      0x03\n        /* \"@openzeppelin/contracts/token/ERC20/ERC20.sol\":1849:1861  return _name */\n      dup1\n      sload\n      tag_87\n      swap1\n      tag_88\n      jump\t// in\n    tag_87:\n      dup1\n      0x1f\n      add\n      0x20\n      dup1\n      swap2\n      div\n      mul\n      0x20\n      add\n      mload(0x40)\n      swap1\n      dup2\n      add\n      0x40\n      mstore\n      dup1\n      swap3\n      swap2\n      swap1\n      dup2\n      dup2\n      mstore\n      0x20\n      add\n      dup3\n      dup1\n      sload\n      tag_89\n      swap1\n      tag_88\n      jump\t// in\n    tag_89:\n      dup1\n      iszero\n      tag_90\n      jumpi\n      dup1\n      0x1f\n      lt\n      tag_91\n      jumpi\n      0x0100\n      dup1\n      dup4\n      sload\n      div\n      mul\n      dup4\n      mstore\n      swap2\n      0x20\n      add\n      swap2\n      jump(tag_90)\n    tag_91:\n      dup3\n      add\n      swap2\n      swap1\n      0x00\n      mstore\n      keccak256(0x00, 0x20)\n      swap1\n    tag_92:\n      dup2\n      sload\n      dup2\n      mstore\n      swap1\n      0x01\n      add\n      swap1\n      0x20\n      add\n      dup1\n      dup4\n      gt\n      tag_92\n      jumpi\n      dup3\n      swap1\n      sub\n      0x1f\n      and\n      dup3\n      add\n      swap2\n    tag_90:\n      pop\n      pop\n      pop\n      pop\n      pop\n      swap1\n      pop\n        /* \"@openzeppelin/contracts/token/ERC20/ERC20.sol\":1779:1868  function name() public view virtual returns (string memory) {... */\n      swap1\n      jump\t// out\n        /* \"@openzeppelin/contracts/token/ERC20/ERC20.sol\":3998:4184  function approve(address spender, uint256 value) public virtual returns (bool) {... */\n    tag_29:\n        /* \"@openzeppelin/contracts/token/ERC20/ERC20.sol\":4071:4075  bool */\n      0x00\n        /* \"@openzeppelin/contracts/token/ERC20/ERC20.sol\":4087:4100  address owner */\n      dup1\n        /* \"@openzeppelin/contracts/token/ERC20/ERC20.sol\":4103:4115  _msgSender() */\n      tag_94\n        /* \"@openzeppelin/contracts/token/ERC20/ERC20.sol\":4103:4113  _msgSender */\n      tag_95\n        /* \"@openzeppelin/contracts/token/ERC20/ERC20.sol\":4103:4115  _msgSender() */\n      jump\t// in\n    tag_94:\n        /* \"@openzeppelin/contracts/token/ERC20/ERC20.sol\":4087:4115  address owner = _msgSender() */\n      swap1\n      pop\n        /* \"@openzeppelin/contracts/token/ERC20/ERC20.sol\":4125:4156  _approve(owner, spender, value) */\n      tag_96\n        /* \"@openzeppelin/contracts/token/ERC20/ERC20.sol\":4134:4139  owner */\n      dup2\n        /* \"@openzeppelin/contracts/token/ERC20/ERC20.sol\":4141:4148  spender */\n      dup6\n        /* \"@openzeppelin/contracts/token/ERC20/ERC20.sol\":4150:4155  value */\n      dup6\n        /* \"@openzeppelin/contracts/token/ERC20/ERC20.sol\":4125:4133  _approve */\n      tag_97\n        /* \"@openzeppelin/contracts/token/ERC20/ERC20.sol\":4125:4156  _approve(owner, spender, value) */\n      jump\t// in\n    tag_96:\n        /* \"@openzeppelin/contracts/token/ERC20/ERC20.sol\":4173:4177  true */\n      0x01\n        /* \"@openzeppelin/contracts/token/ERC20/ERC20.sol\":4166:4177  return true */\n      swap2\n      pop\n      pop\n        /* \"@openzeppelin/contracts/token/ERC20/ERC20.sol\":3998:4184  function approve(address spender, uint256 value) public virtual returns (bool) {... */\n      swap3\n      swap2\n      pop\n      pop\n      jump\t// out\n        /* \"@openzeppelin/contracts/token/ERC20/ERC20.sol\":2849:2946  function totalSupply() public view virtual returns (uint256) {... */\n    tag_33:\n        /* \"@openzeppelin/contracts/token/ERC20/ERC20.sol\":2901:2908  uint256 */\n      0x00\n        /* \"@openzeppelin/contracts/token/ERC20/ERC20.sol\":2927:2939  _totalSupply */\n      sload(0x02)\n        /* \"@openzeppelin/contracts/token/ERC20/ERC20.sol\":2920:2939  return _totalSupply */\n      swap1\n      pop\n        /* \"@openzeppelin/contracts/token/ERC20/ERC20.sol\":2849:2946  function totalSupply() public view virtual returns (uint256) {... */\n      swap1\n      jump\t// out\n        /* \"clickcoin.sol\":2368:2886  function transferFrom(address from, address to, uint256 value) public override  minimumTransfer(value) returns (bool) {... */\n    tag_39:\n        /* \"clickcoin.sol\":2480:2484  bool */\n      0x00\n        /* \"clickcoin.sol\":2464:2469  value */\n      dup2\n        /* \"clickcoin.sol\":891:897  _value */\n      dup1\n        /* \"clickcoin.sol\":882:887  10000 */\n      0x2710\n        /* \"clickcoin.sol\":870:878  burnRate */\n      0x05\n      0x14\n      swap1\n      sload\n      swap1\n      0x0100\n      exp\n      swap1\n      div\n      0xffff\n      and\n        /* \"clickcoin.sol\":861:878  _value * burnRate */\n      0xffff\n      and\n        /* \"clickcoin.sol\":861:867  _value */\n      dup4\n        /* \"clickcoin.sol\":861:878  _value * burnRate */\n      tag_100\n      swap2\n      swap1\n      tag_101\n      jump\t// in\n    tag_100:\n        /* \"clickcoin.sol\":860:887  (_value * burnRate) / 10000 */\n      tag_102\n      swap2\n      swap1\n      tag_103\n      jump\t// in\n    tag_102:\n        /* \"clickcoin.sol\":860:897  (_value * burnRate) / 10000 >= _value */\n      lt\n        /* \"clickcoin.sol\":857:957  if((_value * burnRate) / 10000 >= _value) revert(\"Value does not cover fees. Enter a higher amount\") */\n      tag_104\n      jumpi\n        /* \"clickcoin.sol\":899:957  revert(\"Value does not cover fees. Enter a higher amount\") */\n      mload(0x40)\n      0x08c379a000000000000000000000000000000000000000000000000000000000\n      dup2\n      mstore\n      0x04\n      add\n      tag_105\n      swap1\n      tag_106\n      jump\t// in\n    tag_105:\n      mload(0x40)\n      dup1\n      swap2\n      sub\n      swap1\n      revert\n        /* \"clickcoin.sol\":857:957  if((_value * burnRate) / 10000 >= _value) revert(\"Value does not cover fees. Enter a higher amount\") */\n    tag_104:\n        /* \"clickcoin.sol\":1001:1002  1 */\n      0x01\n        /* \"clickcoin.sol\":993:998  10000 */\n      0x2710\n        /* \"clickcoin.sol\":981:989  burnRate */\n      0x05\n      0x14\n      swap1\n      sload\n      swap1\n      0x0100\n      exp\n      swap1\n      div\n      0xffff\n      and\n        /* \"clickcoin.sol\":972:989  _value * burnRate */\n      0xffff\n      and\n        /* \"clickcoin.sol\":972:978  _value */\n      dup4\n        /* \"clickcoin.sol\":972:989  _value * burnRate */\n      tag_107\n      swap2\n      swap1\n      tag_101\n      jump\t// in\n    tag_107:\n        /* \"clickcoin.sol\":971:998  (_value * burnRate) / 10000 */\n      tag_108\n      swap2\n      swap1\n      tag_103\n      jump\t// in\n    tag_108:\n        /* \"clickcoin.sol\":971:1002  (_value * burnRate) / 10000 < 1 */\n      lt\n        /* \"clickcoin.sol\":968:1064  if((_value * burnRate) / 10000 < 1) revert(\"Value cannot cover any fees. Enter a higher amount\") */\n      iszero\n      tag_109\n      jumpi\n        /* \"clickcoin.sol\":1004:1064  revert(\"Value cannot cover any fees. Enter a higher amount\") */\n      mload(0x40)\n      0x08c379a000000000000000000000000000000000000000000000000000000000\n      dup2\n      mstore\n      0x04\n      add\n      tag_110\n      swap1\n      tag_111\n      jump\t// in\n    tag_110:\n      mload(0x40)\n      dup1\n      swap2\n      sub\n      swap1\n      revert\n        /* \"clickcoin.sol\":968:1064  if((_value * burnRate) / 10000 < 1) revert(\"Value cannot cover any fees. Enter a higher amount\") */\n    tag_109:\n        /* \"clickcoin.sol\":2497:2515  uint256 burnAmount */\n      0x00\n        /* \"clickcoin.sol\":2539:2544  10000 */\n      0x2710\n        /* \"clickcoin.sol\":2527:2535  burnRate */\n      0x05\n      0x14\n      swap1\n      sload\n      swap1\n      0x0100\n      exp\n      swap1\n      div\n      0xffff\n      and\n        /* \"clickcoin.sol\":2519:2535  value * burnRate */\n      0xffff\n      and\n        /* \"clickcoin.sol\":2519:2524  value */\n      dup6\n        /* \"clickcoin.sol\":2519:2535  value * burnRate */\n      tag_113\n      swap2\n      swap1\n      tag_101\n      jump\t// in\n    tag_113:\n        /* \"clickcoin.sol\":2518:2544  (value * burnRate) / 10000 */\n      tag_114\n      swap2\n      swap1\n      tag_103\n      jump\t// in\n    tag_114:\n        /* \"clickcoin.sol\":2497:2544  uint256 burnAmount = (value * burnRate) / 10000 */\n      swap1\n      pop\n        /* \"clickcoin.sol\":2555:2573  uint256 sendAmount */\n      0x00\n        /* \"clickcoin.sol\":2584:2594  burnAmount */\n      dup2\n        /* \"clickcoin.sol\":2576:2581  value */\n      dup6\n        /* \"clickcoin.sol\":2576:2594  value - burnAmount */\n      tag_115\n      swap2\n      swap1\n      tag_116\n      jump\t// in\n    tag_115:\n        /* \"clickcoin.sol\":2555:2594  uint256 sendAmount = value - burnAmount */\n      swap1\n      pop\n        /* \"clickcoin.sol\":2607:2622  address spender */\n      0x00\n        /* \"clickcoin.sol\":2625:2637  _msgSender() */\n      tag_117\n        /* \"clickcoin.sol\":2625:2635  _msgSender */\n      tag_95\n        /* \"clickcoin.sol\":2625:2637  _msgSender() */\n      jump\t// in\n    tag_117:\n        /* \"clickcoin.sol\":2607:2637  address spender = _msgSender() */\n      swap1\n      pop\n        /* \"clickcoin.sol\":2648:2685  _spendAllowance(from, spender, value) */\n      tag_118\n        /* \"clickcoin.sol\":2664:2668  from */\n      dup9\n        /* \"clickcoin.sol\":2670:2677  spender */\n      dup3\n        /* \"clickcoin.sol\":2679:2684  value */\n      dup9\n        /* \"clickcoin.sol\":2648:2663  _spendAllowance */\n      tag_119\n        /* \"clickcoin.sol\":2648:2685  _spendAllowance(from, spender, value) */\n      jump\t// in\n    tag_118:\n        /* \"clickcoin.sol\":2696:2733  super._transfer(from, to, sendAmount) */\n      tag_120\n        /* \"clickcoin.sol\":2712:2716  from */\n      dup9\n        /* \"clickcoin.sol\":2718:2720  to */\n      dup9\n        /* \"clickcoin.sol\":2722:2732  sendAmount */\n      dup5\n        /* \"clickcoin.sol\":2696:2711  super._transfer */\n      tag_121\n        /* \"clickcoin.sol\":2696:2733  super._transfer(from, to, sendAmount) */\n      jump\t// in\n    tag_120:\n        /* \"clickcoin.sol\":2763:2764  0 */\n      0x00\n        /* \"clickcoin.sol\":2750:2760  burnAmount */\n      dup4\n        /* \"clickcoin.sol\":2750:2764  burnAmount > 0 */\n      gt\n        /* \"clickcoin.sol\":2746:2857  if (burnAmount > 0) {... */\n      iszero\n      tag_122\n      jumpi\n        /* \"clickcoin.sol\":2781:2803  _burn(from,burnAmount) */\n      tag_123\n        /* \"clickcoin.sol\":2787:2791  from */\n      dup9\n        /* \"clickcoin.sol\":2792:2802  burnAmount */\n      dup5\n        /* \"clickcoin.sol\":2781:2786  _burn */\n      tag_124\n        /* \"clickcoin.sol\":2781:2803  _burn(from,burnAmount) */\n      jump\t// in\n    tag_123:\n        /* \"clickcoin.sol\":2828:2832  from */\n      dup8\n        /* \"clickcoin.sol\":2823:2845  Burn(from, burnAmount) */\n      0xffffffffffffffffffffffffffffffffffffffff\n      and\n      0xcc16f5dbb4873280815c1ee09dbd06736cffcc184412cf7a71a0fdb75d397ca5\n        /* \"clickcoin.sol\":2834:2844  burnAmount */\n      dup5\n        /* \"clickcoin.sol\":2823:2845  Burn(from, burnAmount) */\n      mload(0x40)\n      tag_125\n      swap2\n      swap1\n      tag_35\n      jump\t// in\n    tag_125:\n      mload(0x40)\n      dup1\n      swap2\n      sub\n      swap1\n      log2\n        /* \"clickcoin.sol\":2746:2857  if (burnAmount > 0) {... */\n    tag_122:\n        /* \"clickcoin.sol\":2874:2878  true */\n      0x01\n        /* \"clickcoin.sol\":2867:2878  return true */\n      swap5\n      pop\n      pop\n      pop\n      pop\n        /* \"clickcoin.sol\":2368:2886  function transferFrom(address from, address to, uint256 value) public override  minimumTransfer(value) returns (bool) {... */\n      pop\n      swap4\n      swap3\n      pop\n      pop\n      pop\n      jump\t// out\n        /* \"@openzeppelin/contracts/token/ERC20/ERC20.sol\":2707:2789  function decimals() public view virtual returns (uint8) {... */\n    tag_42:\n        /* \"@openzeppelin/contracts/token/ERC20/ERC20.sol\":2756:2761  uint8 */\n      0x00\n        /* \"@openzeppelin/contracts/token/ERC20/ERC20.sol\":2780:2782  18 */\n      0x12\n        /* \"@openzeppelin/contracts/token/ERC20/ERC20.sol\":2773:2782  return 18 */\n      swap1\n      pop\n        /* \"@openzeppelin/contracts/token/ERC20/ERC20.sol\":2707:2789  function decimals() public view virtual returns (uint8) {... */\n      swap1\n      jump\t// out\n        /* \"clickcoin.sol\":1540:1671  function burn(uint256 amount) public onlyOwner {... */\n    tag_48:\n        /* \"@openzeppelin/contracts/access/Ownable.sol\":1531:1544  _checkOwner() */\n      tag_128\n        /* \"@openzeppelin/contracts/access/Ownable.sol\":1531:1542  _checkOwner */\n      tag_129\n        /* \"@openzeppelin/contracts/access/Ownable.sol\":1531:1544  _checkOwner() */\n      jump\t// in\n    tag_128:\n        /* \"clickcoin.sol\":1598:1623  _burn(msg.sender, amount) */\n      tag_131\n        /* \"clickcoin.sol\":1604:1614  msg.sender */\n      caller\n        /* \"clickcoin.sol\":1616:1622  amount */\n      dup3\n        /* \"clickcoin.sol\":1598:1603  _burn */\n      tag_124\n        /* \"clickcoin.sol\":1598:1623  _burn(msg.sender, amount) */\n      jump\t// in\n    tag_131:\n        /* \"clickcoin.sol\":1644:1654  msg.sender */\n      caller\n        /* \"clickcoin.sol\":1639:1663  Burn(msg.sender, amount) */\n      0xffffffffffffffffffffffffffffffffffffffff\n      and\n      0xcc16f5dbb4873280815c1ee09dbd06736cffcc184412cf7a71a0fdb75d397ca5\n        /* \"clickcoin.sol\":1656:1662  amount */\n      dup3\n        /* \"clickcoin.sol\":1639:1663  Burn(msg.sender, amount) */\n      mload(0x40)\n      tag_132\n      swap2\n      swap1\n      tag_35\n      jump\t// in\n    tag_132:\n      mload(0x40)\n      dup1\n      swap2\n      sub\n      swap1\n      log2\n        /* \"clickcoin.sol\":1540:1671  function burn(uint256 amount) public onlyOwner {... */\n      pop\n      jump\t// out\n        /* \"@openzeppelin/contracts/token/ERC20/ERC20.sol\":3004:3120  function balanceOf(address account) public view virtual returns (uint256) {... */\n    tag_52:\n        /* \"@openzeppelin/contracts/token/ERC20/ERC20.sol\":3069:3076  uint256 */\n      0x00\n        /* \"@openzeppelin/contracts/token/ERC20/ERC20.sol\":3095:3104  _balances */\n      dup1\n        /* \"@openzeppelin/contracts/token/ERC20/ERC20.sol\":3095:3113  _balances[account] */\n      0x00\n        /* \"@openzeppelin/contracts/token/ERC20/ERC20.sol\":3105:3112  account */\n      dup4\n        /* \"@openzeppelin/contracts/token/ERC20/ERC20.sol\":3095:3113  _balances[account] */\n      0xffffffffffffffffffffffffffffffffffffffff\n      and\n      0xffffffffffffffffffffffffffffffffffffffff\n      and\n      dup2\n      mstore\n      0x20\n      add\n      swap1\n      dup2\n      mstore\n      0x20\n      add\n      0x00\n      keccak256\n      sload\n        /* \"@openzeppelin/contracts/token/ERC20/ERC20.sol\":3088:3113  return _balances[account] */\n      swap1\n      pop\n        /* \"@openzeppelin/contracts/token/ERC20/ERC20.sol\":3004:3120  function balanceOf(address account) public view virtual returns (uint256) {... */\n      swap2\n      swap1\n      pop\n      jump\t// out\n        /* \"@openzeppelin/contracts/access/Ownable.sol\":2293:2394  function renounceOwnership() public virtual onlyOwner {... */\n    tag_55:\n        /* \"@openzeppelin/contracts/access/Ownable.sol\":1531:1544  _checkOwner() */\n      tag_135\n        /* \"@openzeppelin/contracts/access/Ownable.sol\":1531:1542  _checkOwner */\n      tag_129\n        /* \"@openzeppelin/contracts/access/Ownable.sol\":1531:1544  _checkOwner() */\n      jump\t// in\n    tag_135:\n        /* \"@openzeppelin/contracts/access/Ownable.sol\":2357:2387  _transferOwnership(address(0)) */\n      tag_137\n        /* \"@openzeppelin/contracts/access/Ownable.sol\":2384:2385  0 */\n      0x00\n        /* \"@openzeppelin/contracts/access/Ownable.sol\":2357:2375  _transferOwnership */\n      tag_138\n        /* \"@openzeppelin/contracts/access/Ownable.sol\":2357:2387  _transferOwnership(address(0)) */\n      jump\t// in\n    tag_137:\n        /* \"@openzeppelin/contracts/access/Ownable.sol\":2293:2394  function renounceOwnership() public virtual onlyOwner {... */\n      jump\t// out\n        /* \"@openzeppelin/contracts/access/Ownable.sol\":1638:1723  function owner() public view virtual returns (address) {... */\n    tag_57:\n        /* \"@openzeppelin/contracts/access/Ownable.sol\":1684:1691  address */\n      0x00\n        /* \"@openzeppelin/contracts/access/Ownable.sol\":1710:1716  _owner */\n      0x05\n      0x00\n      swap1\n      sload\n      swap1\n      0x0100\n      exp\n      swap1\n      div\n      0xffffffffffffffffffffffffffffffffffffffff\n      and\n        /* \"@openzeppelin/contracts/access/Ownable.sol\":1703:1716  return _owner */\n      swap1\n      pop\n        /* \"@openzeppelin/contracts/access/Ownable.sol\":1638:1723  function owner() public view virtual returns (address) {... */\n      swap1\n      jump\t// out\n        /* \"@openzeppelin/contracts/token/ERC20/ERC20.sol\":1981:2074  function symbol() public view virtual returns (string memory) {... */\n    tag_61:\n        /* \"@openzeppelin/contracts/token/ERC20/ERC20.sol\":2028:2041  string memory */\n      0x60\n        /* \"@openzeppelin/contracts/token/ERC20/ERC20.sol\":2060:2067  _symbol */\n      0x04\n        /* \"@openzeppelin/contracts/token/ERC20/ERC20.sol\":2053:2067  return _symbol */\n      dup1\n      sload\n      tag_141\n      swap1\n      tag_88\n      jump\t// in\n    tag_141:\n      dup1\n      0x1f\n      add\n      0x20\n      dup1\n      swap2\n      div\n      mul\n      0x20\n      add\n      mload(0x40)\n      swap1\n      dup2\n      add\n      0x40\n      mstore\n      dup1\n      swap3\n      swap2\n      swap1\n      dup2\n      dup2\n      mstore\n      0x20\n      add\n      dup3\n      dup1\n      sload\n      tag_142\n      swap1\n      tag_88\n      jump\t// in\n    tag_142:\n      dup1\n      iszero\n      tag_143\n      jumpi\n      dup1\n      0x1f\n      lt\n      tag_144\n      jumpi\n      0x0100\n      dup1\n      dup4\n      sload\n      div\n      mul\n      dup4\n      mstore\n      swap2\n      0x20\n      add\n      swap2\n      jump(tag_143)\n    tag_144:\n      dup3\n      add\n      swap2\n      swap1\n      0x00\n      mstore\n      keccak256(0x00, 0x20)\n      swap1\n    tag_145:\n      dup2\n      sload\n      dup2\n      mstore\n      swap1\n      0x01\n      add\n      swap1\n      0x20\n      add\n      dup1\n      dup4\n      gt\n      tag_145\n      jumpi\n      dup3\n      swap1\n      sub\n      0x1f\n      and\n      dup3\n      add\n      swap2\n    tag_143:\n      pop\n      pop\n      pop\n      pop\n      pop\n      swap1\n      pop\n        /* \"@openzeppelin/contracts/token/ERC20/ERC20.sol\":1981:2074  function symbol() public view virtual returns (string memory) {... */\n      swap1\n      jump\t// out\n        /* \"clickcoin.sol\":1366:1457  function mint(uint256 amount) public onlyOwner {... */\n    tag_65:\n        /* \"@openzeppelin/contracts/access/Ownable.sol\":1531:1544  _checkOwner() */\n      tag_147\n        /* \"@openzeppelin/contracts/access/Ownable.sol\":1531:1542  _checkOwner */\n      tag_129\n        /* \"@openzeppelin/contracts/access/Ownable.sol\":1531:1544  _checkOwner() */\n      jump\t// in\n    tag_147:\n        /* \"clickcoin.sol\":1424:1449  _mint(msg.sender, amount) */\n      tag_149\n        /* \"clickcoin.sol\":1430:1440  msg.sender */\n      caller\n        /* \"clickcoin.sol\":1442:1448  amount */\n      dup3\n        /* \"clickcoin.sol\":1424:1429  _mint */\n      tag_150\n        /* \"clickcoin.sol\":1424:1449  _mint(msg.sender, amount) */\n      jump\t// in\n    tag_149:\n        /* \"clickcoin.sol\":1366:1457  function mint(uint256 amount) public onlyOwner {... */\n      pop\n      jump\t// out\n        /* \"clickcoin.sol\":1880:2316  function transfer(address to, uint256 value) public override  minimumTransfer(value) returns (bool) {... */\n    tag_68:\n        /* \"clickcoin.sol\":1974:1978  bool */\n      0x00\n        /* \"clickcoin.sol\":1958:1963  value */\n      dup2\n        /* \"clickcoin.sol\":891:897  _value */\n      dup1\n        /* \"clickcoin.sol\":882:887  10000 */\n      0x2710\n        /* \"clickcoin.sol\":870:878  burnRate */\n      0x05\n      0x14\n      swap1\n      sload\n      swap1\n      0x0100\n      exp\n      swap1\n      div\n      0xffff\n      and\n        /* \"clickcoin.sol\":861:878  _value * burnRate */\n      0xffff\n      and\n        /* \"clickcoin.sol\":861:867  _value */\n      dup4\n        /* \"clickcoin.sol\":861:878  _value * burnRate */\n      tag_152\n      swap2\n      swap1\n      tag_101\n      jump\t// in\n    tag_152:\n        /* \"clickcoin.sol\":860:887  (_value * burnRate) / 10000 */\n      tag_153\n      swap2\n      swap1\n      tag_103\n      jump\t// in\n    tag_153:\n        /* \"clickcoin.sol\":860:897  (_value * burnRate) / 10000 >= _value */\n      lt\n        /* \"clickcoin.sol\":857:957  if((_value * burnRate) / 10000 >= _value) revert(\"Value does not cover fees. Enter a higher amount\") */\n      tag_154\n      jumpi\n        /* \"clickcoin.sol\":899:957  revert(\"Value does not cover fees. Enter a higher amount\") */\n      mload(0x40)\n      0x08c379a000000000000000000000000000000000000000000000000000000000\n      dup2\n      mstore\n      0x04\n      add\n      tag_155\n      swap1\n      tag_106\n      jump\t// in\n    tag_155:\n      mload(0x40)\n      dup1\n      swap2\n      sub\n      swap1\n      revert\n        /* \"clickcoin.sol\":857:957  if((_value * burnRate) / 10000 >= _value) revert(\"Value does not cover fees. Enter a higher amount\") */\n    tag_154:\n        /* \"clickcoin.sol\":1001:1002  1 */\n      0x01\n        /* \"clickcoin.sol\":993:998  10000 */\n      0x2710\n        /* \"clickcoin.sol\":981:989  burnRate */\n      0x05\n      0x14\n      swap1\n      sload\n      swap1\n      0x0100\n      exp\n      swap1\n      div\n      0xffff\n      and\n        /* \"clickcoin.sol\":972:989  _value * burnRate */\n      0xffff\n      and\n        /* \"clickcoin.sol\":972:978  _value */\n      dup4\n        /* \"clickcoin.sol\":972:989  _value * burnRate */\n      tag_156\n      swap2\n      swap1\n      tag_101\n      jump\t// in\n    tag_156:\n        /* \"clickcoin.sol\":971:998  (_value * burnRate) / 10000 */\n      tag_157\n      swap2\n      swap1\n      tag_103\n      jump\t// in\n    tag_157:\n        /* \"clickcoin.sol\":971:1002  (_value * burnRate) / 10000 < 1 */\n      lt\n        /* \"clickcoin.sol\":968:1064  if((_value * burnRate) / 10000 < 1) revert(\"Value cannot cover any fees. Enter a higher amount\") */\n      iszero\n      tag_158\n      jumpi\n        /* \"clickcoin.sol\":1004:1064  revert(\"Value cannot cover any fees. Enter a higher amount\") */\n      mload(0x40)\n      0x08c379a000000000000000000000000000000000000000000000000000000000\n      dup2\n      mstore\n      0x04\n      add\n      tag_159\n      swap1\n      tag_111\n      jump\t// in\n    tag_159:\n      mload(0x40)\n      dup1\n      swap2\n      sub\n      swap1\n      revert\n        /* \"clickcoin.sol\":968:1064  if((_value * burnRate) / 10000 < 1) revert(\"Value cannot cover any fees. Enter a higher amount\") */\n    tag_158:\n        /* \"clickcoin.sol\":1991:2009  uint256 burnAmount */\n      0x00\n        /* \"clickcoin.sol\":2033:2038  10000 */\n      0x2710\n        /* \"clickcoin.sol\":2021:2029  burnRate */\n      0x05\n      0x14\n      swap1\n      sload\n      swap1\n      0x0100\n      exp\n      swap1\n      div\n      0xffff\n      and\n        /* \"clickcoin.sol\":2013:2029  value * burnRate */\n      0xffff\n      and\n        /* \"clickcoin.sol\":2013:2018  value */\n      dup6\n        /* \"clickcoin.sol\":2013:2029  value * burnRate */\n      tag_161\n      swap2\n      swap1\n      tag_101\n      jump\t// in\n    tag_161:\n        /* \"clickcoin.sol\":2012:2038  (value * burnRate) / 10000 */\n      tag_162\n      swap2\n      swap1\n      tag_103\n      jump\t// in\n    tag_162:\n        /* \"clickcoin.sol\":1991:2038  uint256 burnAmount = (value * burnRate) / 10000 */\n      swap1\n      pop\n        /* \"clickcoin.sol\":2049:2067  uint256 sendAmount */\n      0x00\n        /* \"clickcoin.sol\":2078:2088  burnAmount */\n      dup2\n        /* \"clickcoin.sol\":2070:2075  value */\n      dup6\n        /* \"clickcoin.sol\":2070:2088  value - burnAmount */\n      tag_163\n      swap2\n      swap1\n      tag_116\n      jump\t// in\n    tag_163:\n        /* \"clickcoin.sol\":2049:2088  uint256 sendAmount = value - burnAmount */\n      swap1\n      pop\n        /* \"clickcoin.sol\":2109:2151  super._transfer(msg.sender,to, sendAmount) */\n      tag_164\n        /* \"clickcoin.sol\":2125:2135  msg.sender */\n      caller\n        /* \"clickcoin.sol\":2136:2138  to */\n      dup8\n        /* \"clickcoin.sol\":2140:2150  sendAmount */\n      dup4\n        /* \"clickcoin.sol\":2109:2124  super._transfer */\n      tag_121\n        /* \"clickcoin.sol\":2109:2151  super._transfer(msg.sender,to, sendAmount) */\n      jump\t// in\n    tag_164:\n        /* \"clickcoin.sol\":2179:2180  0 */\n      0x00\n        /* \"clickcoin.sol\":2166:2176  burnAmount */\n      dup3\n        /* \"clickcoin.sol\":2166:2180  burnAmount > 0 */\n      gt\n        /* \"clickcoin.sol\":2162:2285  if (burnAmount > 0) {... */\n      iszero\n      tag_165\n      jumpi\n        /* \"clickcoin.sol\":2197:2225  _burn(msg.sender,burnAmount) */\n      tag_166\n        /* \"clickcoin.sol\":2203:2213  msg.sender */\n      caller\n        /* \"clickcoin.sol\":2214:2224  burnAmount */\n      dup4\n        /* \"clickcoin.sol\":2197:2202  _burn */\n      tag_124\n        /* \"clickcoin.sol\":2197:2225  _burn(msg.sender,burnAmount) */\n      jump\t// in\n    tag_166:\n        /* \"clickcoin.sol\":2250:2260  msg.sender */\n      caller\n        /* \"clickcoin.sol\":2245:2273  Burn(msg.sender, burnAmount) */\n      0xffffffffffffffffffffffffffffffffffffffff\n      and\n      0xcc16f5dbb4873280815c1ee09dbd06736cffcc184412cf7a71a0fdb75d397ca5\n        /* \"clickcoin.sol\":2262:2272  burnAmount */\n      dup4\n        /* \"clickcoin.sol\":2245:2273  Burn(msg.sender, burnAmount) */\n      mload(0x40)\n      tag_167\n      swap2\n      swap1\n      tag_35\n      jump\t// in\n    tag_167:\n      mload(0x40)\n      dup1\n      swap2\n      sub\n      swap1\n      log2\n        /* \"clickcoin.sol\":2162:2285  if (burnAmount > 0) {... */\n    tag_165:\n        /* \"clickcoin.sol\":2304:2308  true */\n      0x01\n        /* \"clickcoin.sol\":2297:2308  return true */\n      swap4\n      pop\n      pop\n      pop\n        /* \"clickcoin.sol\":1880:2316  function transfer(address to, uint256 value) public override  minimumTransfer(value) returns (bool) {... */\n      pop\n      swap3\n      swap2\n      pop\n      pop\n      jump\t// out\n        /* \"clickcoin.sol\":1725:1841  function setBurnRate(uint16 _burnRate) external onlyOwner maxBurn(_burnRate) {... */\n    tag_73:\n        /* \"@openzeppelin/contracts/access/Ownable.sol\":1531:1544  _checkOwner() */\n      tag_169\n        /* \"@openzeppelin/contracts/access/Ownable.sol\":1531:1542  _checkOwner */\n      tag_129\n        /* \"@openzeppelin/contracts/access/Ownable.sol\":1531:1544  _checkOwner() */\n      jump\t// in\n    tag_169:\n        /* \"clickcoin.sol\":1791:1800  _burnRate */\n      dup1\n        /* \"clickcoin.sol\":732:736  5000 */\n      0x1388\n        /* \"clickcoin.sol\":720:729  _burnRate */\n      dup2\n        /* \"clickcoin.sol\":720:736  _burnRate > 5000 */\n      0xffff\n      and\n      gt\n        /* \"clickcoin.sol\":716:778  if (_burnRate > 5000) revert(\"Burn rate mas be less than 50%\") */\n      iszero\n      tag_171\n      jumpi\n        /* \"clickcoin.sol\":738:778  revert(\"Burn rate mas be less than 50%\") */\n      mload(0x40)\n      0x08c379a000000000000000000000000000000000000000000000000000000000\n      dup2\n      mstore\n      0x04\n      add\n      tag_172\n      swap1\n      tag_173\n      jump\t// in\n    tag_172:\n      mload(0x40)\n      dup1\n      swap2\n      sub\n      swap1\n      revert\n        /* \"clickcoin.sol\":716:778  if (_burnRate > 5000) revert(\"Burn rate mas be less than 50%\") */\n    tag_171:\n        /* \"clickcoin.sol\":1824:1833  _burnRate */\n      dup2\n        /* \"clickcoin.sol\":1813:1821  burnRate */\n      0x05\n      0x14\n        /* \"clickcoin.sol\":1813:1833  burnRate = _burnRate */\n      0x0100\n      exp\n      dup2\n      sload\n      dup2\n      0xffff\n      mul\n      not\n      and\n      swap1\n      dup4\n      0xffff\n      and\n      mul\n      or\n      swap1\n      sstore\n      pop\n        /* \"@openzeppelin/contracts/access/Ownable.sol\":1554:1555  _ */\n      pop\n        /* \"clickcoin.sol\":1725:1841  function setBurnRate(uint16 _burnRate) external onlyOwner maxBurn(_burnRate) {... */\n      pop\n      jump\t// out\n        /* \"clickcoin.sol\":306:328  uint16 public burnRate */\n    tag_75:\n      0x05\n      0x14\n      swap1\n      sload\n      swap1\n      0x0100\n      exp\n      swap1\n      div\n      0xffff\n      and\n      dup2\n      jump\t// out\n        /* \"@openzeppelin/contracts/token/ERC20/ERC20.sol\":3551:3691  function allowance(address owner, address spender) public view virtual returns (uint256) {... */\n    tag_81:\n        /* \"@openzeppelin/contracts/token/ERC20/ERC20.sol\":3631:3638  uint256 */\n      0x00\n        /* \"@openzeppelin/contracts/token/ERC20/ERC20.sol\":3657:3668  _allowances */\n      0x01\n        /* \"@openzeppelin/contracts/token/ERC20/ERC20.sol\":3657:3675  _allowances[owner] */\n      0x00\n        /* \"@openzeppelin/contracts/token/ERC20/ERC20.sol\":3669:3674  owner */\n      dup5\n        /* \"@openzeppelin/contracts/token/ERC20/ERC20.sol\":3657:3675  _allowances[owner] */\n      0xffffffffffffffffffffffffffffffffffffffff\n      and\n      0xffffffffffffffffffffffffffffffffffffffff\n      and\n      dup2\n      mstore\n      0x20\n      add\n      swap1\n      dup2\n      mstore\n      0x20\n      add\n      0x00\n      keccak256\n        /* \"@openzeppelin/contracts/token/ERC20/ERC20.sol\":3657:3684  _allowances[owner][spender] */\n      0x00\n        /* \"@openzeppelin/contracts/token/ERC20/ERC20.sol\":3676:3683  spender */\n      dup4\n        /* \"@openzeppelin/contracts/token/ERC20/ERC20.sol\":3657:3684  _allowances[owner][spender] */\n      0xffffffffffffffffffffffffffffffffffffffff\n      and\n      0xffffffffffffffffffffffffffffffffffffffff\n      and\n      dup2\n      mstore\n      0x20\n      add\n      swap1\n      dup2\n      mstore\n      0x20\n      add\n      0x00\n      keccak256\n      sload\n        /* \"@openzeppelin/contracts/token/ERC20/ERC20.sol\":3650:3684  return _allowances[owner][spender] */\n      swap1\n      pop\n        /* \"@openzeppelin/contracts/token/ERC20/ERC20.sol\":3551:3691  function allowance(address owner, address spender) public view virtual returns (uint256) {... */\n      swap3\n      swap2\n      pop\n      pop\n      jump\t// out\n        /* \"@openzeppelin/contracts/access/Ownable.sol\":2543:2758  function transferOwnership(address newOwner) public virtual onlyOwner {... */\n    tag_85:\n        /* \"@openzeppelin/contracts/access/Ownable.sol\":1531:1544  _checkOwner() */\n      tag_177\n        /* \"@openzeppelin/contracts/access/Ownable.sol\":1531:1542  _checkOwner */\n      tag_129\n        /* \"@openzeppelin/contracts/access/Ownable.sol\":1531:1544  _checkOwner() */\n      jump\t// in\n    tag_177:\n        /* \"@openzeppelin/contracts/access/Ownable.sol\":2647:2648  0 */\n      0x00\n        /* \"@openzeppelin/contracts/access/Ownable.sol\":2627:2649  newOwner == address(0) */\n      0xffffffffffffffffffffffffffffffffffffffff\n      and\n        /* \"@openzeppelin/contracts/access/Ownable.sol\":2627:2635  newOwner */\n      dup2\n        /* \"@openzeppelin/contracts/access/Ownable.sol\":2627:2649  newOwner == address(0) */\n      0xffffffffffffffffffffffffffffffffffffffff\n      and\n      sub\n        /* \"@openzeppelin/contracts/access/Ownable.sol\":2623:2714  if (newOwner == address(0)) {... */\n      tag_179\n      jumpi\n        /* \"@openzeppelin/contracts/access/Ownable.sol\":2700:2701  0 */\n      0x00\n        /* \"@openzeppelin/contracts/access/Ownable.sol\":2672:2703  OwnableInvalidOwner(address(0)) */\n      mload(0x40)\n      0x1e4fbdf700000000000000000000000000000000000000000000000000000000\n      dup2\n      mstore\n      0x04\n      add\n      tag_180\n      swap2\n      swap1\n      tag_59\n      jump\t// in\n    tag_180:\n      mload(0x40)\n      dup1\n      swap2\n      sub\n      swap1\n      revert\n        /* \"@openzeppelin/contracts/access/Ownable.sol\":2623:2714  if (newOwner == address(0)) {... */\n    tag_179:\n        /* \"@openzeppelin/contracts/access/Ownable.sol\":2723:2751  _transferOwnership(newOwner) */\n      tag_181\n        /* \"@openzeppelin/contracts/access/Ownable.sol\":2742:2750  newOwner */\n      dup2\n        /* \"@openzeppelin/contracts/access/Ownable.sol\":2723:2741  _transferOwnership */\n      tag_138\n        /* \"@openzeppelin/contracts/access/Ownable.sol\":2723:2751  _transferOwnership(newOwner) */\n      jump\t// in\n    tag_181:\n        /* \"@openzeppelin/contracts/access/Ownable.sol\":2543:2758  function transferOwnership(address newOwner) public virtual onlyOwner {... */\n      pop\n      jump\t// out\n        /* \"@openzeppelin/contracts/utils/Context.sol\":656:752  function _msgSender() internal view virtual returns (address) {... */\n    tag_95:\n        /* \"@openzeppelin/contracts/utils/Context.sol\":709:716  address */\n      0x00\n        /* \"@openzeppelin/contracts/utils/Context.sol\":735:745  msg.sender */\n      caller\n        /* \"@openzeppelin/contracts/utils/Context.sol\":728:745  return msg.sender */\n      swap1\n      pop\n        /* \"@openzeppelin/contracts/utils/Context.sol\":656:752  function _msgSender() internal view virtual returns (address) {... */\n      swap1\n      jump\t// out\n        /* \"@openzeppelin/contracts/token/ERC20/ERC20.sol\":8726:8854  function _approve(address owner, address spender, uint256 value) internal {... */\n    tag_97:\n        /* \"@openzeppelin/contracts/token/ERC20/ERC20.sol\":8810:8847  _approve(owner, spender, value, true) */\n      tag_184\n        /* \"@openzeppelin/contracts/token/ERC20/ERC20.sol\":8819:8824  owner */\n      dup4\n        /* \"@openzeppelin/contracts/token/ERC20/ERC20.sol\":8826:8833  spender */\n      dup4\n        /* \"@openzeppelin/contracts/token/ERC20/ERC20.sol\":8835:8840  value */\n      dup4\n        /* \"@openzeppelin/contracts/token/ERC20/ERC20.sol\":8842:8846  true */\n      0x01\n        /* \"@openzeppelin/contracts/token/ERC20/ERC20.sol\":8810:8818  _approve */\n      tag_185\n        /* \"@openzeppelin/contracts/token/ERC20/ERC20.sol\":8810:8847  _approve(owner, spender, value, true) */\n      jump\t// in\n    tag_184:\n        /* \"@openzeppelin/contracts/token/ERC20/ERC20.sol\":8726:8854  function _approve(address owner, address spender, uint256 value) internal {... */\n      pop\n      pop\n      pop\n      jump\t// out\n        /* \"@openzeppelin/contracts/token/ERC20/ERC20.sol\":10415:10891  function _spendAllowance(address owner, address spender, uint256 value) internal virtual {... */\n    tag_119:\n        /* \"@openzeppelin/contracts/token/ERC20/ERC20.sol\":10514:10538  uint256 currentAllowance */\n      0x00\n        /* \"@openzeppelin/contracts/token/ERC20/ERC20.sol\":10541:10566  allowance(owner, spender) */\n      tag_187\n        /* \"@openzeppelin/contracts/token/ERC20/ERC20.sol\":10551:10556  owner */\n      dup5\n        /* \"@openzeppelin/contracts/token/ERC20/ERC20.sol\":10558:10565  spender */\n      dup5\n        /* \"@openzeppelin/contracts/token/ERC20/ERC20.sol\":10541:10550  allowance */\n      tag_81\n        /* \"@openzeppelin/contracts/token/ERC20/ERC20.sol\":10541:10566  allowance(owner, spender) */\n      jump\t// in\n    tag_187:\n        /* \"@openzeppelin/contracts/token/ERC20/ERC20.sol\":10514:10566  uint256 currentAllowance = allowance(owner, spender) */\n      swap1\n      pop\n        /* \"@openzeppelin/contracts/token/ERC20/ERC20.sol\":10599:10616  type(uint256).max */\n      0xffffffffffffffffffffffffffffffffffffffffffffffffffffffffffffffff\n        /* \"@openzeppelin/contracts/token/ERC20/ERC20.sol\":10580:10596  currentAllowance */\n      dup2\n        /* \"@openzeppelin/contracts/token/ERC20/ERC20.sol\":10580:10616  currentAllowance < type(uint256).max */\n      lt\n        /* \"@openzeppelin/contracts/token/ERC20/ERC20.sol\":10576:10885  if (currentAllowance < type(uint256).max) {... */\n      iszero\n      tag_188\n      jumpi\n        /* \"@openzeppelin/contracts/token/ERC20/ERC20.sol\":10655:10660  value */\n      dup2\n        /* \"@openzeppelin/contracts/token/ERC20/ERC20.sol\":10636:10652  currentAllowance */\n      dup2\n        /* \"@openzeppelin/contracts/token/ERC20/ERC20.sol\":10636:10660  currentAllowance < value */\n      lt\n        /* \"@openzeppelin/contracts/token/ERC20/ERC20.sol\":10632:10762  if (currentAllowance < value) {... */\n      iszero\n      tag_189\n      jumpi\n        /* \"@openzeppelin/contracts/token/ERC20/ERC20.sol\":10714:10721  spender */\n      dup3\n        /* \"@openzeppelin/contracts/token/ERC20/ERC20.sol\":10723:10739  currentAllowance */\n      dup2\n        /* \"@openzeppelin/contracts/token/ERC20/ERC20.sol\":10741:10746  value */\n      dup4\n        /* \"@openzeppelin/contracts/token/ERC20/ERC20.sol\":10687:10747  ERC20InsufficientAllowance(spender, currentAllowance, value) */\n      mload(0x40)\n      0xfb8f41b200000000000000000000000000000000000000000000000000000000\n      dup2\n      mstore\n      0x04\n      add\n      tag_190\n      swap4\n      swap3\n      swap2\n      swap1\n      tag_191\n      jump\t// in\n    tag_190:\n      mload(0x40)\n      dup1\n      swap2\n      sub\n      swap1\n      revert\n        /* \"@openzeppelin/contracts/token/ERC20/ERC20.sol\":10632:10762  if (currentAllowance < value) {... */\n    tag_189:\n        /* \"@openzeppelin/contracts/token/ERC20/ERC20.sol\":10803:10860  _approve(owner, spender, currentAllowance - value, false) */\n      tag_192\n        /* \"@openzeppelin/contracts/token/ERC20/ERC20.sol\":10812:10817  owner */\n      dup5\n        /* \"@openzeppelin/contracts/token/ERC20/ERC20.sol\":10819:10826  spender */\n      dup5\n        /* \"@openzeppelin/contracts/token/ERC20/ERC20.sol\":10847:10852  value */\n      dup5\n        /* \"@openzeppelin/contracts/token/ERC20/ERC20.sol\":10828:10844  currentAllowance */\n      dup5\n        /* \"@openzeppelin/contracts/token/ERC20/ERC20.sol\":10828:10852  currentAllowance - value */\n      sub\n        /* \"@openzeppelin/contracts/token/ERC20/ERC20.sol\":10854:10859  false */\n      0x00\n        /* \"@openzeppelin/contracts/token/ERC20/ERC20.sol\":10803:10811  _approve */\n      tag_185\n        /* \"@openzeppelin/contracts/token/ERC20/ERC20.sol\":10803:10860  _approve(owner, spender, currentAllowance - value, false) */\n      jump\t// in\n    tag_192:\n        /* \"@openzeppelin/contracts/token/ERC20/ERC20.sol\":10576:10885  if (currentAllowance < type(uint256).max) {... */\n    tag_188:\n        /* \"@openzeppelin/contracts/token/ERC20/ERC20.sol\":10504:10891  {... */\n      pop\n        /* \"@openzeppelin/contracts/token/ERC20/ERC20.sol\":10415:10891  function _spendAllowance(address owner, address spender, uint256 value) internal virtual {... */\n      pop\n      pop\n      pop\n      jump\t// out\n        /* \"@openzeppelin/contracts/token/ERC20/ERC20.sol\":5393:5693  function _transfer(address from, address to, uint256 value) internal {... */\n    tag_121:\n        /* \"@openzeppelin/contracts/token/ERC20/ERC20.sol\":5492:5493  0 */\n      0x00\n        /* \"@openzeppelin/contracts/token/ERC20/ERC20.sol\":5476:5494  from == address(0) */\n      0xffffffffffffffffffffffffffffffffffffffff\n      and\n        /* \"@openzeppelin/contracts/token/ERC20/ERC20.sol\":5476:5480  from */\n      dup4\n        /* \"@openzeppelin/contracts/token/ERC20/ERC20.sol\":5476:5494  from == address(0) */\n      0xffffffffffffffffffffffffffffffffffffffff\n      and\n      sub\n        /* \"@openzeppelin/contracts/token/ERC20/ERC20.sol\":5472:5558  if (from == address(0)) {... */\n      tag_194\n      jumpi\n        /* \"@openzeppelin/contracts/token/ERC20/ERC20.sol\":5544:5545  0 */\n      0x00\n        /* \"@openzeppelin/contracts/token/ERC20/ERC20.sol\":5517:5547  ERC20InvalidSender(address(0)) */\n      mload(0x40)\n      0x96c6fd1e00000000000000000000000000000000000000000000000000000000\n      dup2\n      mstore\n      0x04\n      add\n      tag_195\n      swap2\n      swap1\n      tag_59\n      jump\t// in\n    tag_195:\n      mload(0x40)\n      dup1\n      swap2\n      sub\n      swap1\n      revert\n        /* \"@openzeppelin/contracts/token/ERC20/ERC20.sol\":5472:5558  if (from == address(0)) {... */\n    tag_194:\n        /* \"@openzeppelin/contracts/token/ERC20/ERC20.sol\":5585:5586  0 */\n      0x00\n        /* \"@openzeppelin/contracts/token/ERC20/ERC20.sol\":5571:5587  to == address(0) */\n      0xffffffffffffffffffffffffffffffffffffffff\n      and\n        /* \"@openzeppelin/contracts/token/ERC20/ERC20.sol\":5571:5573  to */\n      dup3\n        /* \"@openzeppelin/contracts/token/ERC20/ERC20.sol\":5571:5587  to == address(0) */\n      0xffffffffffffffffffffffffffffffffffffffff\n      and\n      sub\n        /* \"@openzeppelin/contracts/token/ERC20/ERC20.sol\":5567:5653  if (to == address(0)) {... */\n      tag_196\n      jumpi\n        /* \"@openzeppelin/contracts/token/ERC20/ERC20.sol\":5639:5640  0 */\n      0x00\n        /* \"@openzeppelin/contracts/token/ERC20/ERC20.sol\":5610:5642  ERC20InvalidReceiver(address(0)) */\n      mload(0x40)\n      0xec442f0500000000000000000000000000000000000000000000000000000000\n      dup2\n      mstore\n      0x04\n      add\n      tag_197\n      swap2\n      swap1\n      tag_59\n      jump\t// in\n    tag_197:\n      mload(0x40)\n      dup1\n      swap2\n      sub\n      swap1\n      revert\n        /* \"@openzeppelin/contracts/token/ERC20/ERC20.sol\":5567:5653  if (to == address(0)) {... */\n    tag_196:\n        /* \"@openzeppelin/contracts/token/ERC20/ERC20.sol\":5662:5686  _update(from, to, value) */\n      tag_198\n        /* \"@openzeppelin/contracts/token/ERC20/ERC20.sol\":5670:5674  from */\n      dup4\n        /* \"@openzeppelin/contracts/token/ERC20/ERC20.sol\":5676:5678  to */\n      dup4\n        /* \"@openzeppelin/contracts/token/ERC20/ERC20.sol\":5680:5685  value */\n      dup4\n        /* \"@openzeppelin/contracts/token/ERC20/ERC20.sol\":5662:5669  _update */\n      tag_199\n        /* \"@openzeppelin/contracts/token/ERC20/ERC20.sol\":5662:5686  _update(from, to, value) */\n      jump\t// in\n    tag_198:\n        /* \"@openzeppelin/contracts/token/ERC20/ERC20.sol\":5393:5693  function _transfer(address from, address to, uint256 value) internal {... */\n      pop\n      pop\n      pop\n      jump\t// out\n        /* \"@openzeppelin/contracts/token/ERC20/ERC20.sol\":7984:8190  function _burn(address account, uint256 value) internal {... */\n    tag_124:\n        /* \"@openzeppelin/contracts/token/ERC20/ERC20.sol\":8073:8074  0 */\n      0x00\n        /* \"@openzeppelin/contracts/token/ERC20/ERC20.sol\":8054:8075  account == address(0) */\n      0xffffffffffffffffffffffffffffffffffffffff\n      and\n        /* \"@openzeppelin/contracts/token/ERC20/ERC20.sol\":8054:8061  account */\n      dup3\n        /* \"@openzeppelin/contracts/token/ERC20/ERC20.sol\":8054:8075  account == address(0) */\n      0xffffffffffffffffffffffffffffffffffffffff\n      and\n      sub\n        /* \"@openzeppelin/contracts/token/ERC20/ERC20.sol\":8050:8139  if (account == address(0)) {... */\n      tag_201\n      jumpi\n        /* \"@openzeppelin/contracts/token/ERC20/ERC20.sol\":8125:8126  0 */\n      0x00\n        /* \"@openzeppelin/contracts/token/ERC20/ERC20.sol\":8098:8128  ERC20InvalidSender(address(0)) */\n      mload(0x40)\n      0x96c6fd1e00000000000000000000000000000000000000000000000000000000\n      dup2\n      mstore\n      0x04\n      add\n      tag_202\n      swap2\n      swap1\n      tag_59\n      jump\t// in\n    tag_202:\n      mload(0x40)\n      dup1\n      swap2\n      sub\n      swap1\n      revert\n        /* \"@openzeppelin/contracts/token/ERC20/ERC20.sol\":8050:8139  if (account == address(0)) {... */\n    tag_201:\n        /* \"@openzeppelin/contracts/token/ERC20/ERC20.sol\":8148:8183  _update(account, address(0), value) */\n      tag_203\n        /* \"@openzeppelin/contracts/token/ERC20/ERC20.sol\":8156:8163  account */\n      dup3\n        /* \"@openzeppelin/contracts/token/ERC20/ERC20.sol\":8173:8174  0 */\n      0x00\n        /* \"@openzeppelin/contracts/token/ERC20/ERC20.sol\":8177:8182  value */\n      dup4\n        /* \"@openzeppelin/contracts/token/ERC20/ERC20.sol\":8148:8155  _update */\n      tag_199\n        /* \"@openzeppelin/contracts/token/ERC20/ERC20.sol\":8148:8183  _update(account, address(0), value) */\n      jump\t// in\n    tag_203:\n        /* \"@openzeppelin/contracts/token/ERC20/ERC20.sol\":7984:8190  function _burn(address account, uint256 value) internal {... */\n      pop\n      pop\n      jump\t// out\n        /* \"@openzeppelin/contracts/access/Ownable.sol\":1796:1958  function _checkOwner() internal view virtual {... */\n    tag_129:\n        /* \"@openzeppelin/contracts/access/Ownable.sol\":1866:1878  _msgSender() */\n      tag_205\n        /* \"@openzeppelin/contracts/access/Ownable.sol\":1866:1876  _msgSender */\n      tag_95\n        /* \"@openzeppelin/contracts/access/Ownable.sol\":1866:1878  _msgSender() */\n      jump\t// in\n    tag_205:\n        /* \"@openzeppelin/contracts/access/Ownable.sol\":1855:1878  owner() != _msgSender() */\n      0xffffffffffffffffffffffffffffffffffffffff\n      and\n        /* \"@openzeppelin/contracts/access/Ownable.sol\":1855:1862  owner() */\n      tag_206\n        /* \"@openzeppelin/contracts/access/Ownable.sol\":1855:1860  owner */\n      tag_57\n        /* \"@openzeppelin/contracts/access/Ownable.sol\":1855:1862  owner() */\n      jump\t// in\n    tag_206:\n        /* \"@openzeppelin/contracts/access/Ownable.sol\":1855:1878  owner() != _msgSender() */\n      0xffffffffffffffffffffffffffffffffffffffff\n      and\n      eq\n        /* \"@openzeppelin/contracts/access/Ownable.sol\":1851:1952  if (owner() != _msgSender()) {... */\n      tag_207\n      jumpi\n        /* \"@openzeppelin/contracts/access/Ownable.sol\":1928:1940  _msgSender() */\n      tag_208\n        /* \"@openzeppelin/contracts/access/Ownable.sol\":1928:1938  _msgSender */\n      tag_95\n        /* \"@openzeppelin/contracts/access/Ownable.sol\":1928:1940  _msgSender() */\n      jump\t// in\n    tag_208:\n        /* \"@openzeppelin/contracts/access/Ownable.sol\":1901:1941  OwnableUnauthorizedAccount(_msgSender()) */\n      mload(0x40)\n      0x118cdaa700000000000000000000000000000000000000000000000000000000\n      dup2\n      mstore\n      0x04\n      add\n      tag_209\n      swap2\n      swap1\n      tag_59\n      jump\t// in\n    tag_209:\n      mload(0x40)\n      dup1\n      swap2\n      sub\n      swap1\n      revert\n        /* \"@openzeppelin/contracts/access/Ownable.sol\":1851:1952  if (owner() != _msgSender()) {... */\n    tag_207:\n        /* \"@openzeppelin/contracts/access/Ownable.sol\":1796:1958  function _checkOwner() internal view virtual {... */\n      jump\t// out\n        /* \"@openzeppelin/contracts/access/Ownable.sol\":2912:3099  function _transferOwnership(address newOwner) internal virtual {... */\n    tag_138:\n        /* \"@openzeppelin/contracts/access/Ownable.sol\":2985:3001  address oldOwner */\n      0x00\n        /* \"@openzeppelin/contracts/access/Ownable.sol\":3004:3010  _owner */\n      0x05\n      0x00\n      swap1\n      sload\n      swap1\n      0x0100\n      exp\n      swap1\n      div\n      0xffffffffffffffffffffffffffffffffffffffff\n      and\n        /* \"@openzeppelin/contracts/access/Ownable.sol\":2985:3010  address oldOwner = _owner */\n      swap1\n      pop\n        /* \"@openzeppelin/contracts/access/Ownable.sol\":3029:3037  newOwner */\n      dup2\n        /* \"@openzeppelin/contracts/access/Ownable.sol\":3020:3026  _owner */\n      0x05\n      0x00\n        /* \"@openzeppelin/contracts/access/Ownable.sol\":3020:3037  _owner = newOwner */\n      0x0100\n      exp\n      dup2\n      sload\n      dup2\n      0xffffffffffffffffffffffffffffffffffffffff\n      mul\n      not\n      and\n      swap1\n      dup4\n      0xffffffffffffffffffffffffffffffffffffffff\n      and\n      mul\n      or\n      swap1\n      sstore\n      pop\n        /* \"@openzeppelin/contracts/access/Ownable.sol\":3083:3091  newOwner */\n      dup2\n        /* \"@openzeppelin/contracts/access/Ownable.sol\":3052:3092  OwnershipTransferred(oldOwner, newOwner) */\n      0xffffffffffffffffffffffffffffffffffffffff\n      and\n        /* \"@openzeppelin/contracts/access/Ownable.sol\":3073:3081  oldOwner */\n      dup2\n        /* \"@openzeppelin/contracts/access/Ownable.sol\":3052:3092  OwnershipTransferred(oldOwner, newOwner) */\n      0xffffffffffffffffffffffffffffffffffffffff\n      and\n      0x8be0079c531659141344cd1fd0a4f28419497f9722a3daafe3b4186f6b6457e0\n      mload(0x40)\n      mload(0x40)\n      dup1\n      swap2\n      sub\n      swap1\n      log3\n        /* \"@openzeppelin/contracts/access/Ownable.sol\":2975:3099  {... */\n      pop\n        /* \"@openzeppelin/contracts/access/Ownable.sol\":2912:3099  function _transferOwnership(address newOwner) internal virtual {... */\n      pop\n      jump\t// out\n        /* \"@openzeppelin/contracts/token/ERC20/ERC20.sol\":7458:7666  function _mint(address account, uint256 value) internal {... */\n    tag_150:\n        /* \"@openzeppelin/contracts/token/ERC20/ERC20.sol\":7547:7548  0 */\n      0x00\n        /* \"@openzeppelin/contracts/token/ERC20/ERC20.sol\":7528:7549  account == address(0) */\n      0xffffffffffffffffffffffffffffffffffffffff\n      and\n        /* \"@openzeppelin/contracts/token/ERC20/ERC20.sol\":7528:7535  account */\n      dup3\n        /* \"@openzeppelin/contracts/token/ERC20/ERC20.sol\":7528:7549  account == address(0) */\n      0xffffffffffffffffffffffffffffffffffffffff\n      and\n      sub\n        /* \"@openzeppelin/contracts/token/ERC20/ERC20.sol\":7524:7615  if (account == address(0)) {... */\n      tag_212\n      jumpi\n        /* \"@openzeppelin/contracts/token/ERC20/ERC20.sol\":7601:7602  0 */\n      0x00\n        /* \"@openzeppelin/contracts/token/ERC20/ERC20.sol\":7572:7604  ERC20InvalidReceiver(address(0)) */\n      mload(0x40)\n      0xec442f0500000000000000000000000000000000000000000000000000000000\n      dup2\n      mstore\n      0x04\n      add\n      tag_213\n      swap2\n      swap1\n      tag_59\n      jump\t// in\n    tag_213:\n      mload(0x40)\n      dup1\n      swap2\n      sub\n      swap1\n      revert\n        /* \"@openzeppelin/contracts/token/ERC20/ERC20.sol\":7524:7615  if (account == address(0)) {... */\n    tag_212:\n        /* \"@openzeppelin/contracts/token/ERC20/ERC20.sol\":7624:7659  _update(address(0), account, value) */\n      tag_214\n        /* \"@openzeppelin/contracts/token/ERC20/ERC20.sol\":7640:7641  0 */\n      0x00\n        /* \"@openzeppelin/contracts/token/ERC20/ERC20.sol\":7644:7651  account */\n      dup4\n        /* \"@openzeppelin/contracts/token/ERC20/ERC20.sol\":7653:7658  value */\n      dup4\n        /* \"@openzeppelin/contracts/token/ERC20/ERC20.sol\":7624:7631  _update */\n      tag_199\n        /* \"@openzeppelin/contracts/token/ERC20/ERC20.sol\":7624:7659  _update(address(0), account, value) */\n      jump\t// in\n    tag_214:\n        /* \"@openzeppelin/contracts/token/ERC20/ERC20.sol\":7458:7666  function _mint(address account, uint256 value) internal {... */\n      pop\n      pop\n      jump\t// out\n        /* \"@openzeppelin/contracts/token/ERC20/ERC20.sol\":9701:10133  function _approve(address owner, address spender, uint256 value, bool emitEvent) internal virtual {... */\n    tag_185:\n        /* \"@openzeppelin/contracts/token/ERC20/ERC20.sol\":9830:9831  0 */\n      0x00\n        /* \"@openzeppelin/contracts/token/ERC20/ERC20.sol\":9813:9832  owner == address(0) */\n      0xffffffffffffffffffffffffffffffffffffffff\n      and\n        /* \"@openzeppelin/contracts/token/ERC20/ERC20.sol\":9813:9818  owner */\n      dup5\n        /* \"@openzeppelin/contracts/token/ERC20/ERC20.sol\":9813:9832  owner == address(0) */\n      0xffffffffffffffffffffffffffffffffffffffff\n      and\n      sub\n        /* \"@openzeppelin/contracts/token/ERC20/ERC20.sol\":9809:9898  if (owner == address(0)) {... */\n      tag_216\n      jumpi\n        /* \"@openzeppelin/contracts/token/ERC20/ERC20.sol\":9884:9885  0 */\n      0x00\n        /* \"@openzeppelin/contracts/token/ERC20/ERC20.sol\":9855:9887  ERC20InvalidApprover(address(0)) */\n      mload(0x40)\n      0xe602df0500000000000000000000000000000000000000000000000000000000\n      dup2\n      mstore\n      0x04\n      add\n      tag_217\n      swap2\n      swap1\n      tag_59\n      jump\t// in\n    tag_217:\n      mload(0x40)\n      dup1\n      swap2\n      sub\n      swap1\n      revert\n        /* \"@openzeppelin/contracts/token/ERC20/ERC20.sol\":9809:9898  if (owner == address(0)) {... */\n    tag_216:\n        /* \"@openzeppelin/contracts/token/ERC20/ERC20.sol\":9930:9931  0 */\n      0x00\n        /* \"@openzeppelin/contracts/token/ERC20/ERC20.sol\":9911:9932  spender == address(0) */\n      0xffffffffffffffffffffffffffffffffffffffff\n      and\n        /* \"@openzeppelin/contracts/token/ERC20/ERC20.sol\":9911:9918  spender */\n      dup4\n        /* \"@openzeppelin/contracts/token/ERC20/ERC20.sol\":9911:9932  spender == address(0) */\n      0xffffffffffffffffffffffffffffffffffffffff\n      and\n      sub\n        /* \"@openzeppelin/contracts/token/ERC20/ERC20.sol\":9907:9997  if (spender == address(0)) {... */\n      tag_218\n      jumpi\n        /* \"@openzeppelin/contracts/token/ERC20/ERC20.sol\":9983:9984  0 */\n      0x00\n        /* \"@openzeppelin/contracts/token/ERC20/ERC20.sol\":9955:9986  ERC20InvalidSpender(address(0)) */\n      mload(0x40)\n      0x94280d6200000000000000000000000000000000000000000000000000000000\n      dup2\n      mstore\n      0x04\n      add\n      tag_219\n      swap2\n      swap1\n      tag_59\n      jump\t// in\n    tag_219:\n      mload(0x40)\n      dup1\n      swap2\n      sub\n      swap1\n      revert\n        /* \"@openzeppelin/contracts/token/ERC20/ERC20.sol\":9907:9997  if (spender == address(0)) {... */\n    tag_218:\n        /* \"@openzeppelin/contracts/token/ERC20/ERC20.sol\":10036:10041  value */\n      dup2\n        /* \"@openzeppelin/contracts/token/ERC20/ERC20.sol\":10006:10017  _allowances */\n      0x01\n        /* \"@openzeppelin/contracts/token/ERC20/ERC20.sol\":10006:10024  _allowances[owner] */\n      0x00\n        /* \"@openzeppelin/contracts/token/ERC20/ERC20.sol\":10018:10023  owner */\n      dup7\n        /* \"@openzeppelin/contracts/token/ERC20/ERC20.sol\":10006:10024  _allowances[owner] */\n      0xffffffffffffffffffffffffffffffffffffffff\n      and\n      0xffffffffffffffffffffffffffffffffffffffff\n      and\n      dup2\n      mstore\n      0x20\n      add\n      swap1\n      dup2\n      mstore\n      0x20\n      add\n      0x00\n      keccak256\n        /* \"@openzeppelin/contracts/token/ERC20/ERC20.sol\":10006:10033  _allowances[owner][spender] */\n      0x00\n        /* \"@openzeppelin/contracts/token/ERC20/ERC20.sol\":10025:10032  spender */\n      dup6\n        /* \"@openzeppelin/contracts/token/ERC20/ERC20.sol\":10006:10033  _allowances[owner][spender] */\n      0xffffffffffffffffffffffffffffffffffffffff\n      and\n      0xffffffffffffffffffffffffffffffffffffffff\n      and\n      dup2\n      mstore\n      0x20\n      add\n      swap1\n      dup2\n      mstore\n      0x20\n      add\n      0x00\n      keccak256\n        /* \"@openzeppelin/contracts/token/ERC20/ERC20.sol\":10006:10041  _allowances[owner][spender] = value */\n      dup2\n      swap1\n      sstore\n      pop\n        /* \"@openzeppelin/contracts/token/ERC20/ERC20.sol\":10055:10064  emitEvent */\n      dup1\n        /* \"@openzeppelin/contracts/token/ERC20/ERC20.sol\":10051:10127  if (emitEvent) {... */\n      iszero\n      tag_220\n      jumpi\n        /* \"@openzeppelin/contracts/token/ERC20/ERC20.sol\":10101:10108  spender */\n      dup3\n        /* \"@openzeppelin/contracts/token/ERC20/ERC20.sol\":10085:10116  Approval(owner, spender, value) */\n      0xffffffffffffffffffffffffffffffffffffffff\n      and\n        /* \"@openzeppelin/contracts/token/ERC20/ERC20.sol\":10094:10099  owner */\n      dup5\n        /* \"@openzeppelin/contracts/token/ERC20/ERC20.sol\":10085:10116  Approval(owner, spender, value) */\n      0xffffffffffffffffffffffffffffffffffffffff\n      and\n      0x8c5be1e5ebec7d5bd14f71427d1e84f3dd0314c0f7b2291e5b200ac8c7c3b925\n        /* \"@openzeppelin/contracts/token/ERC20/ERC20.sol\":10110:10115  value */\n      dup5\n        /* \"@openzeppelin/contracts/token/ERC20/ERC20.sol\":10085:10116  Approval(owner, spender, value) */\n      mload(0x40)\n      tag_221\n      swap2\n      swap1\n      tag_35\n      jump\t// in\n    tag_221:\n      mload(0x40)\n      dup1\n      swap2\n      sub\n      swap1\n      log3\n        /* \"@openzeppelin/contracts/token/ERC20/ERC20.sol\":10051:10127  if (emitEvent) {... */\n    tag_220:\n        /* \"@openzeppelin/contracts/token/ERC20/ERC20.sol\":9701:10133  function _approve(address owner, address spender, uint256 value, bool emitEvent) internal virtual {... */\n      pop\n      pop\n      pop\n      pop\n      jump\t// out\n        /* \"@openzeppelin/contracts/token/ERC20/ERC20.sol\":6008:7115  function _update(address from, address to, uint256 value) internal virtual {... */\n    tag_199:\n        /* \"@openzeppelin/contracts/token/ERC20/ERC20.sol\":6113:6114  0 */\n      0x00\n        /* \"@openzeppelin/contracts/token/ERC20/ERC20.sol\":6097:6115  from == address(0) */\n      0xffffffffffffffffffffffffffffffffffffffff\n      and\n        /* \"@openzeppelin/contracts/token/ERC20/ERC20.sol\":6097:6101  from */\n      dup4\n        /* \"@openzeppelin/contracts/token/ERC20/ERC20.sol\":6097:6115  from == address(0) */\n      0xffffffffffffffffffffffffffffffffffffffff\n      and\n      sub\n        /* \"@openzeppelin/contracts/token/ERC20/ERC20.sol\":6093:6633  if (from == address(0)) {... */\n      tag_223\n      jumpi\n        /* \"@openzeppelin/contracts/token/ERC20/ERC20.sol\":6249:6254  value */\n      dup1\n        /* \"@openzeppelin/contracts/token/ERC20/ERC20.sol\":6233:6245  _totalSupply */\n      0x02\n      0x00\n        /* \"@openzeppelin/contracts/token/ERC20/ERC20.sol\":6233:6254  _totalSupply += value */\n      dup3\n      dup3\n      sload\n      tag_224\n      swap2\n      swap1\n      tag_225\n      jump\t// in\n    tag_224:\n      swap3\n      pop\n      pop\n      dup2\n      swap1\n      sstore\n      pop\n        /* \"@openzeppelin/contracts/token/ERC20/ERC20.sol\":6093:6633  if (from == address(0)) {... */\n      jump(tag_226)\n    tag_223:\n        /* \"@openzeppelin/contracts/token/ERC20/ERC20.sol\":6285:6304  uint256 fromBalance */\n      0x00\n        /* \"@openzeppelin/contracts/token/ERC20/ERC20.sol\":6307:6316  _balances */\n      dup1\n        /* \"@openzeppelin/contracts/token/ERC20/ERC20.sol\":6307:6322  _balances[from] */\n      0x00\n        /* \"@openzeppelin/contracts/token/ERC20/ERC20.sol\":6317:6321  from */\n      dup6\n        /* \"@openzeppelin/contracts/token/ERC20/ERC20.sol\":6307:6322  _balances[from] */\n      0xffffffffffffffffffffffffffffffffffffffff\n      and\n      0xffffffffffffffffffffffffffffffffffffffff\n      and\n      dup2\n      mstore\n      0x20\n      add\n      swap1\n      dup2\n      mstore\n      0x20\n      add\n      0x00\n      keccak256\n      sload\n        /* \"@openzeppelin/contracts/token/ERC20/ERC20.sol\":6285:6322  uint256 fromBalance = _balances[from] */\n      swap1\n      pop\n        /* \"@openzeppelin/contracts/token/ERC20/ERC20.sol\":6354:6359  value */\n      dup2\n        /* \"@openzeppelin/contracts/token/ERC20/ERC20.sol\":6340:6351  fromBalance */\n      dup2\n        /* \"@openzeppelin/contracts/token/ERC20/ERC20.sol\":6340:6359  fromBalance < value */\n      lt\n        /* \"@openzeppelin/contracts/token/ERC20/ERC20.sol\":6336:6451  if (fromBalance < value) {... */\n      iszero\n      tag_227\n      jumpi\n        /* \"@openzeppelin/contracts/token/ERC20/ERC20.sol\":6411:6415  from */\n      dup4\n        /* \"@openzeppelin/contracts/token/ERC20/ERC20.sol\":6417:6428  fromBalance */\n      dup2\n        /* \"@openzeppelin/contracts/token/ERC20/ERC20.sol\":6430:6435  value */\n      dup4\n        /* \"@openzeppelin/contracts/token/ERC20/ERC20.sol\":6386:6436  ERC20InsufficientBalance(from, fromBalance, value) */\n      mload(0x40)\n      0xe450d38c00000000000000000000000000000000000000000000000000000000\n      dup2\n      mstore\n      0x04\n      add\n      tag_228\n      swap4\n      swap3\n      swap2\n      swap1\n      tag_191\n      jump\t// in\n    tag_228:\n      mload(0x40)\n      dup1\n      swap2\n      sub\n      swap1\n      revert\n        /* \"@openzeppelin/contracts/token/ERC20/ERC20.sol\":6336:6451  if (fromBalance < value) {... */\n    tag_227:\n        /* \"@openzeppelin/contracts/token/ERC20/ERC20.sol\":6603:6608  value */\n      dup2\n        /* \"@openzeppelin/contracts/token/ERC20/ERC20.sol\":6589:6600  fromBalance */\n      dup2\n        /* \"@openzeppelin/contracts/token/ERC20/ERC20.sol\":6589:6608  fromBalance - value */\n      sub\n        /* \"@openzeppelin/contracts/token/ERC20/ERC20.sol\":6571:6580  _balances */\n      0x00\n        /* \"@openzeppelin/contracts/token/ERC20/ERC20.sol\":6571:6586  _balances[from] */\n      dup1\n        /* \"@openzeppelin/contracts/token/ERC20/ERC20.sol\":6581:6585  from */\n      dup7\n        /* \"@openzeppelin/contracts/token/ERC20/ERC20.sol\":6571:6586  _balances[from] */\n      0xffffffffffffffffffffffffffffffffffffffff\n      and\n      0xffffffffffffffffffffffffffffffffffffffff\n      and\n      dup2\n      mstore\n      0x20\n      add\n      swap1\n      dup2\n      mstore\n      0x20\n      add\n      0x00\n      keccak256\n        /* \"@openzeppelin/contracts/token/ERC20/ERC20.sol\":6571:6608  _balances[from] = fromBalance - value */\n      dup2\n      swap1\n      sstore\n      pop\n        /* \"@openzeppelin/contracts/token/ERC20/ERC20.sol\":6271:6633  {... */\n      pop\n        /* \"@openzeppelin/contracts/token/ERC20/ERC20.sol\":6093:6633  if (from == address(0)) {... */\n    tag_226:\n        /* \"@openzeppelin/contracts/token/ERC20/ERC20.sol\":6661:6662  0 */\n      0x00\n        /* \"@openzeppelin/contracts/token/ERC20/ERC20.sol\":6647:6663  to == address(0) */\n      0xffffffffffffffffffffffffffffffffffffffff\n      and\n        /* \"@openzeppelin/contracts/token/ERC20/ERC20.sol\":6647:6649  to */\n      dup3\n        /* \"@openzeppelin/contracts/token/ERC20/ERC20.sol\":6647:6663  to == address(0) */\n      0xffffffffffffffffffffffffffffffffffffffff\n      and\n      sub\n        /* \"@openzeppelin/contracts/token/ERC20/ERC20.sol\":6643:7068  if (to == address(0)) {... */\n      tag_229\n      jumpi\n        /* \"@openzeppelin/contracts/token/ERC20/ERC20.sol\":6826:6831  value */\n      dup1\n        /* \"@openzeppelin/contracts/token/ERC20/ERC20.sol\":6810:6822  _totalSupply */\n      0x02\n      0x00\n        /* \"@openzeppelin/contracts/token/ERC20/ERC20.sol\":6810:6831  _totalSupply -= value */\n      dup3\n      dup3\n      sload\n      sub\n      swap3\n      pop\n      pop\n      dup2\n      swap1\n      sstore\n      pop\n        /* \"@openzeppelin/contracts/token/ERC20/ERC20.sol\":6643:7068  if (to == address(0)) {... */\n      jump(tag_230)\n    tag_229:\n        /* \"@openzeppelin/contracts/token/ERC20/ERC20.sol\":7038:7043  value */\n      dup1\n        /* \"@openzeppelin/contracts/token/ERC20/ERC20.sol\":7021:7030  _balances */\n      0x00\n        /* \"@openzeppelin/contracts/token/ERC20/ERC20.sol\":7021:7034  _balances[to] */\n      dup1\n        /* \"@openzeppelin/contracts/token/ERC20/ERC20.sol\":7031:7033  to */\n      dup5\n        /* \"@openzeppelin/contracts/token/ERC20/ERC20.sol\":7021:7034  _balances[to] */\n      0xffffffffffffffffffffffffffffffffffffffff\n      and\n      0xffffffffffffffffffffffffffffffffffffffff\n      and\n      dup2\n      mstore\n      0x20\n      add\n      swap1\n      dup2\n      mstore\n      0x20\n      add\n      0x00\n      keccak256\n      0x00\n        /* \"@openzeppelin/contracts/token/ERC20/ERC20.sol\":7021:7043  _balances[to] += value */\n      dup3\n      dup3\n      sload\n      add\n      swap3\n      pop\n      pop\n      dup2\n      swap1\n      sstore\n      pop\n        /* \"@openzeppelin/contracts/token/ERC20/ERC20.sol\":6643:7068  if (to == address(0)) {... */\n    tag_230:\n        /* \"@openzeppelin/contracts/token/ERC20/ERC20.sol\":7098:7100  to */\n      dup2\n        /* \"@openzeppelin/contracts/token/ERC20/ERC20.sol\":7083:7108  Transfer(from, to, value) */\n      0xffffffffffffffffffffffffffffffffffffffff\n      and\n        /* \"@openzeppelin/contracts/token/ERC20/ERC20.sol\":7092:7096  from */\n      dup4\n        /* \"@openzeppelin/contracts/token/ERC20/ERC20.sol\":7083:7108  Transfer(from, to, value) */\n      0xffffffffffffffffffffffffffffffffffffffff\n      and\n      0xddf252ad1be2c89b69c2b068fc378daa952ba7f163c4a11628f55a4df523b3ef\n        /* \"@openzeppelin/contracts/token/ERC20/ERC20.sol\":7102:7107  value */\n      dup4\n        /* \"@openzeppelin/contracts/token/ERC20/ERC20.sol\":7083:7108  Transfer(from, to, value) */\n      mload(0x40)\n      tag_231\n      swap2\n      swap1\n      tag_35\n      jump\t// in\n    tag_231:\n      mload(0x40)\n      dup1\n      swap2\n      sub\n      swap1\n      log3\n        /* \"@openzeppelin/contracts/token/ERC20/ERC20.sol\":6008:7115  function _update(address from, address to, uint256 value) internal virtual {... */\n      pop\n      pop\n      pop\n      jump\t// out\n        /* \"#utility.yul\":7:106   */\n    tag_232:\n        /* \"#utility.yul\":59:65   */\n      0x00\n        /* \"#utility.yul\":93:98   */\n      dup2\n        /* \"#utility.yul\":87:99   */\n      mload\n        /* \"#utility.yul\":77:99   */\n      swap1\n      pop\n        /* \"#utility.yul\":7:106   */\n      swap2\n      swap1\n      pop\n      jump\t// out\n        /* \"#utility.yul\":112:281   */\n    tag_233:\n        /* \"#utility.yul\":196:207   */\n      0x00\n        /* \"#utility.yul\":230:236   */\n      dup3\n        /* \"#utility.yul\":225:228   */\n      dup3\n        /* \"#utility.yul\":218:237   */\n      mstore\n        /* \"#utility.yul\":270:274   */\n      0x20\n        /* \"#utility.yul\":265:268   */\n      dup3\n        /* \"#utility.yul\":261:275   */\n      add\n        /* \"#utility.yul\":246:275   */\n      swap1\n      pop\n        /* \"#utility.yul\":112:281   */\n      swap3\n      swap2\n      pop\n      pop\n      jump\t// out\n        /* \"#utility.yul\":287:533   */\n    tag_234:\n        /* \"#utility.yul\":368:369   */\n      0x00\n        /* \"#utility.yul\":378:491   */\n    tag_270:\n        /* \"#utility.yul\":392:398   */\n      dup4\n        /* \"#utility.yul\":389:390   */\n      dup2\n        /* \"#utility.yul\":386:399   */\n      lt\n        /* \"#utility.yul\":378:491   */\n      iszero\n      tag_272\n      jumpi\n        /* \"#utility.yul\":477:478   */\n      dup1\n        /* \"#utility.yul\":472:475   */\n      dup3\n        /* \"#utility.yul\":468:479   */\n      add\n        /* \"#utility.yul\":462:480   */\n      mload\n        /* \"#utility.yul\":458:459   */\n      dup2\n        /* \"#utility.yul\":453:456   */\n      dup5\n        /* \"#utility.yul\":449:460   */\n      add\n        /* \"#utility.yul\":442:481   */\n      mstore\n        /* \"#utility.yul\":414:416   */\n      0x20\n        /* \"#utility.yul\":411:412   */\n      dup2\n        /* \"#utility.yul\":407:417   */\n      add\n        /* \"#utility.yul\":402:417   */\n      swap1\n      pop\n        /* \"#utility.yul\":378:491   */\n      jump(tag_270)\n    tag_272:\n        /* \"#utility.yul\":525:526   */\n      0x00\n        /* \"#utility.yul\":516:522   */\n      dup5\n        /* \"#utility.yul\":511:514   */\n      dup5\n        /* \"#utility.yul\":507:523   */\n      add\n        /* \"#utility.yul\":500:527   */\n      mstore\n        /* \"#utility.yul\":349:533   */\n      pop\n        /* \"#utility.yul\":287:533   */\n      pop\n      pop\n      pop\n      jump\t// out\n        /* \"#utility.yul\":539:641   */\n    tag_235:\n        /* \"#utility.yul\":580:586   */\n      0x00\n        /* \"#utility.yul\":631:633   */\n      0x1f\n        /* \"#utility.yul\":627:634   */\n      not\n        /* \"#utility.yul\":622:624   */\n      0x1f\n        /* \"#utility.yul\":615:620   */\n      dup4\n        /* \"#utility.yul\":611:625   */\n      add\n        /* \"#utility.yul\":607:635   */\n      and\n        /* \"#utility.yul\":597:635   */\n      swap1\n      pop\n        /* \"#utility.yul\":539:641   */\n      swap2\n      swap1\n      pop\n      jump\t// out\n        /* \"#utility.yul\":647:1024   */\n    tag_236:\n        /* \"#utility.yul\":735:738   */\n      0x00\n        /* \"#utility.yul\":763:802   */\n      tag_275\n        /* \"#utility.yul\":796:801   */\n      dup3\n        /* \"#utility.yul\":763:802   */\n      tag_232\n      jump\t// in\n    tag_275:\n        /* \"#utility.yul\":818:889   */\n      tag_276\n        /* \"#utility.yul\":882:888   */\n      dup2\n        /* \"#utility.yul\":877:880   */\n      dup6\n        /* \"#utility.yul\":818:889   */\n      tag_233\n      jump\t// in\n    tag_276:\n        /* \"#utility.yul\":811:889   */\n      swap4\n      pop\n        /* \"#utility.yul\":898:963   */\n      tag_277\n        /* \"#utility.yul\":956:962   */\n      dup2\n        /* \"#utility.yul\":951:954   */\n      dup6\n        /* \"#utility.yul\":944:948   */\n      0x20\n        /* \"#utility.yul\":937:942   */\n      dup7\n        /* \"#utility.yul\":933:949   */\n      add\n        /* \"#utility.yul\":898:963   */\n      tag_234\n      jump\t// in\n    tag_277:\n        /* \"#utility.yul\":988:1017   */\n      tag_278\n        /* \"#utility.yul\":1010:1016   */\n      dup2\n        /* \"#utility.yul\":988:1017   */\n      tag_235\n      jump\t// in\n    tag_278:\n        /* \"#utility.yul\":983:986   */\n      dup5\n        /* \"#utility.yul\":979:1018   */\n      add\n        /* \"#utility.yul\":972:1018   */\n      swap2\n      pop\n        /* \"#utility.yul\":739:1024   */\n      pop\n        /* \"#utility.yul\":647:1024   */\n      swap3\n      swap2\n      pop\n      pop\n      jump\t// out\n        /* \"#utility.yul\":1030:1343   */\n    tag_25:\n        /* \"#utility.yul\":1143:1147   */\n      0x00\n        /* \"#utility.yul\":1181:1183   */\n      0x20\n        /* \"#utility.yul\":1170:1179   */\n      dup3\n        /* \"#utility.yul\":1166:1184   */\n      add\n        /* \"#utility.yul\":1158:1184   */\n      swap1\n      pop\n        /* \"#utility.yul\":1230:1239   */\n      dup2\n        /* \"#utility.yul\":1224:1228   */\n      dup2\n        /* \"#utility.yul\":1220:1240   */\n      sub\n        /* \"#utility.yul\":1216:1217   */\n      0x00\n        /* \"#utility.yul\":1205:1214   */\n      dup4\n        /* \"#utility.yul\":1201:1218   */\n      add\n        /* \"#utility.yul\":1194:1241   */\n      mstore\n        /* \"#utility.yul\":1258:1336   */\n      tag_280\n        /* \"#utility.yul\":1331:1335   */\n      dup2\n        /* \"#utility.yul\":1322:1328   */\n      dup5\n        /* \"#utility.yul\":1258:1336   */\n      tag_236\n      jump\t// in\n    tag_280:\n        /* \"#utility.yul\":1250:1336   */\n      swap1\n      pop\n        /* \"#utility.yul\":1030:1343   */\n      swap3\n      swap2\n      pop\n      pop\n      jump\t// out\n        /* \"#utility.yul\":1430:1547   */\n    tag_238:\n        /* \"#utility.yul\":1539:1540   */\n      0x00\n        /* \"#utility.yul\":1536:1537   */\n      dup1\n        /* \"#utility.yul\":1529:1541   */\n      revert\n        /* \"#utility.yul\":1676:1802   */\n    tag_240:\n        /* \"#utility.yul\":1713:1720   */\n      0x00\n        /* \"#utility.yul\":1753:1795   */\n      0xffffffffffffffffffffffffffffffffffffffff\n        /* \"#utility.yul\":1746:1751   */\n      dup3\n        /* \"#utility.yul\":1742:1796   */\n      and\n        /* \"#utility.yul\":1731:1796   */\n      swap1\n      pop\n        /* \"#utility.yul\":1676:1802   */\n      swap2\n      swap1\n      pop\n      jump\t// out\n        /* \"#utility.yul\":1808:1904   */\n    tag_241:\n        /* \"#utility.yul\":1845:1852   */\n      0x00\n        /* \"#utility.yul\":1874:1898   */\n      tag_286\n        /* \"#utility.yul\":1892:1897   */\n      dup3\n        /* \"#utility.yul\":1874:1898   */\n      tag_240\n      jump\t// in\n    tag_286:\n        /* \"#utility.yul\":1863:1898   */\n      swap1\n      pop\n        /* \"#utility.yul\":1808:1904   */\n      swap2\n      swap1\n      pop\n      jump\t// out\n        /* \"#utility.yul\":1910:2032   */\n    tag_242:\n        /* \"#utility.yul\":1983:2007   */\n      tag_288\n        /* \"#utility.yul\":2001:2006   */\n      dup2\n        /* \"#utility.yul\":1983:2007   */\n      tag_241\n      jump\t// in\n    tag_288:\n        /* \"#utility.yul\":1976:1981   */\n      dup2\n        /* \"#utility.yul\":1973:2008   */\n      eq\n        /* \"#utility.yul\":1963:2026   */\n      tag_289\n      jumpi\n        /* \"#utility.yul\":2022:2023   */\n      0x00\n        /* \"#utility.yul\":2019:2020   */\n      dup1\n        /* \"#utility.yul\":2012:2024   */\n      revert\n        /* \"#utility.yul\":1963:2026   */\n    tag_289:\n        /* \"#utility.yul\":1910:2032   */\n      pop\n      jump\t// out\n        /* \"#utility.yul\":2038:2177   */\n    tag_243:\n        /* \"#utility.yul\":2084:2089   */\n      0x00\n        /* \"#utility.yul\":2122:2128   */\n      dup2\n        /* \"#utility.yul\":2109:2129   */\n      calldataload\n        /* \"#utility.yul\":2100:2129   */\n      swap1\n      pop\n        /* \"#utility.yul\":2138:2171   */\n      tag_291\n        /* \"#utility.yul\":2165:2170   */\n      dup2\n        /* \"#utility.yul\":2138:2171   */\n      tag_242\n      jump\t// in\n    tag_291:\n        /* \"#utility.yul\":2038:2177   */\n      swap3\n      swap2\n      pop\n      pop\n      jump\t// out\n        /* \"#utility.yul\":2183:2260   */\n    tag_244:\n        /* \"#utility.yul\":2220:2227   */\n      0x00\n        /* \"#utility.yul\":2249:2254   */\n      dup2\n        /* \"#utility.yul\":2238:2254   */\n      swap1\n      pop\n        /* \"#utility.yul\":2183:2260   */\n      swap2\n      swap1\n      pop\n      jump\t// out\n        /* \"#utility.yul\":2266:2388   */\n    tag_245:\n        /* \"#utility.yul\":2339:2363   */\n      tag_294\n        /* \"#utility.yul\":2357:2362   */\n      dup2\n        /* \"#utility.yul\":2339:2363   */\n      tag_244\n      jump\t// in\n    tag_294:\n        /* \"#utility.yul\":2332:2337   */\n      dup2\n        /* \"#utility.yul\":2329:2364   */\n      eq\n        /* \"#utility.yul\":2319:2382   */\n      tag_295\n      jumpi\n        /* \"#utility.yul\":2378:2379   */\n      0x00\n        /* \"#utility.yul\":2375:2376   */\n      dup1\n        /* \"#utility.yul\":2368:2380   */\n      revert\n        /* \"#utility.yul\":2319:2382   */\n    tag_295:\n        /* \"#utility.yul\":2266:2388   */\n      pop\n      jump\t// out\n        /* \"#utility.yul\":2394:2533   */\n    tag_246:\n        /* \"#utility.yul\":2440:2445   */\n      0x00\n        /* \"#utility.yul\":2478:2484   */\n      dup2\n        /* \"#utility.yul\":2465:2485   */\n      calldataload\n        /* \"#utility.yul\":2456:2485   */\n      swap1\n      pop\n        /* \"#utility.yul\":2494:2527   */\n      tag_297\n        /* \"#utility.yul\":2521:2526   */\n      dup2\n        /* \"#utility.yul\":2494:2527   */\n      tag_245\n      jump\t// in\n    tag_297:\n        /* \"#utility.yul\":2394:2533   */\n      swap3\n      swap2\n      pop\n      pop\n      jump\t// out\n        /* \"#utility.yul\":2539:3013   */\n    tag_28:\n        /* \"#utility.yul\":2607:2613   */\n      0x00\n        /* \"#utility.yul\":2615:2621   */\n      dup1\n        /* \"#utility.yul\":2664:2666   */\n      0x40\n        /* \"#utility.yul\":2652:2661   */\n      dup4\n        /* \"#utility.yul\":2643:2650   */\n      dup6\n        /* \"#utility.yul\":2639:2662   */\n      sub\n        /* \"#utility.yul\":2635:2667   */\n      slt\n        /* \"#utility.yul\":2632:2751   */\n      iszero\n      tag_299\n      jumpi\n        /* \"#utility.yul\":2670:2749   */\n      tag_300\n      tag_238\n      jump\t// in\n    tag_300:\n        /* \"#utility.yul\":2632:2751   */\n    tag_299:\n        /* \"#utility.yul\":2790:2791   */\n      0x00\n        /* \"#utility.yul\":2815:2868   */\n      tag_301\n        /* \"#utility.yul\":2860:2867   */\n      dup6\n        /* \"#utility.yul\":2851:2857   */\n      dup3\n        /* \"#utility.yul\":2840:2849   */\n      dup7\n        /* \"#utility.yul\":2836:2858   */\n      add\n        /* \"#utility.yul\":2815:2868   */\n      tag_243\n      jump\t// in\n    tag_301:\n        /* \"#utility.yul\":2805:2868   */\n      swap3\n      pop\n        /* \"#utility.yul\":2761:2878   */\n      pop\n        /* \"#utility.yul\":2917:2919   */\n      0x20\n        /* \"#utility.yul\":2943:2996   */\n      tag_302\n        /* \"#utility.yul\":2988:2995   */\n      dup6\n        /* \"#utility.yul\":2979:2985   */\n      dup3\n        /* \"#utility.yul\":2968:2977   */\n      dup7\n        /* \"#utility.yul\":2964:2986   */\n      add\n        /* \"#utility.yul\":2943:2996   */\n      tag_246\n      jump\t// in\n    tag_302:\n        /* \"#utility.yul\":2933:2996   */\n      swap2\n      pop\n        /* \"#utility.yul\":2888:3006   */\n      pop\n        /* \"#utility.yul\":2539:3013   */\n      swap3\n      pop\n      swap3\n      swap1\n      pop\n      jump\t// out\n        /* \"#utility.yul\":3019:3109   */\n    tag_247:\n        /* \"#utility.yul\":3053:3060   */\n      0x00\n        /* \"#utility.yul\":3096:3101   */\n      dup2\n        /* \"#utility.yul\":3089:3102   */\n      iszero\n        /* \"#utility.yul\":3082:3103   */\n      iszero\n        /* \"#utility.yul\":3071:3103   */\n      swap1\n      pop\n        /* \"#utility.yul\":3019:3109   */\n      swap2\n      swap1\n      pop\n      jump\t// out\n        /* \"#utility.yul\":3115:3224   */\n    tag_248:\n        /* \"#utility.yul\":3196:3217   */\n      tag_305\n        /* \"#utility.yul\":3211:3216   */\n      dup2\n        /* \"#utility.yul\":3196:3217   */\n      tag_247\n      jump\t// in\n    tag_305:\n        /* \"#utility.yul\":3191:3194   */\n      dup3\n        /* \"#utility.yul\":3184:3218   */\n      mstore\n        /* \"#utility.yul\":3115:3224   */\n      pop\n      pop\n      jump\t// out\n        /* \"#utility.yul\":3230:3440   */\n    tag_31:\n        /* \"#utility.yul\":3317:3321   */\n      0x00\n        /* \"#utility.yul\":3355:3357   */\n      0x20\n        /* \"#utility.yul\":3344:3353   */\n      dup3\n        /* \"#utility.yul\":3340:3358   */\n      add\n        /* \"#utility.yul\":3332:3358   */\n      swap1\n      pop\n        /* \"#utility.yul\":3368:3433   */\n      tag_307\n        /* \"#utility.yul\":3430:3431   */\n      0x00\n        /* \"#utility.yul\":3419:3428   */\n      dup4\n        /* \"#utility.yul\":3415:3432   */\n      add\n        /* \"#utility.yul\":3406:3412   */\n      dup5\n        /* \"#utility.yul\":3368:3433   */\n      tag_248\n      jump\t// in\n    tag_307:\n        /* \"#utility.yul\":3230:3440   */\n      swap3\n      swap2\n      pop\n      pop\n      jump\t// out\n        /* \"#utility.yul\":3446:3564   */\n    tag_249:\n        /* \"#utility.yul\":3533:3557   */\n      tag_309\n        /* \"#utility.yul\":3551:3556   */\n      dup2\n        /* \"#utility.yul\":3533:3557   */\n      tag_244\n      jump\t// in\n    tag_309:\n        /* \"#utility.yul\":3528:3531   */\n      dup3\n        /* \"#utility.yul\":3521:3558   */\n      mstore\n        /* \"#utility.yul\":3446:3564   */\n      pop\n      pop\n      jump\t// out\n        /* \"#utility.yul\":3570:3792   */\n    tag_35:\n        /* \"#utility.yul\":3663:3667   */\n      0x00\n        /* \"#utility.yul\":3701:3703   */\n      0x20\n        /* \"#utility.yul\":3690:3699   */\n      dup3\n        /* \"#utility.yul\":3686:3704   */\n      add\n        /* \"#utility.yul\":3678:3704   */\n      swap1\n      pop\n        /* \"#utility.yul\":3714:3785   */\n      tag_311\n        /* \"#utility.yul\":3782:3783   */\n      0x00\n        /* \"#utility.yul\":3771:3780   */\n      dup4\n        /* \"#utility.yul\":3767:3784   */\n      add\n        /* \"#utility.yul\":3758:3764   */\n      dup5\n        /* \"#utility.yul\":3714:3785   */\n      tag_249\n      jump\t// in\n    tag_311:\n        /* \"#utility.yul\":3570:3792   */\n      swap3\n      swap2\n      pop\n      pop\n      jump\t// out\n        /* \"#utility.yul\":3798:4417   */\n    tag_38:\n        /* \"#utility.yul\":3875:3881   */\n      0x00\n        /* \"#utility.yul\":3883:3889   */\n      dup1\n        /* \"#utility.yul\":3891:3897   */\n      0x00\n        /* \"#utility.yul\":3940:3942   */\n      0x60\n        /* \"#utility.yul\":3928:3937   */\n      dup5\n        /* \"#utility.yul\":3919:3926   */\n      dup7\n        /* \"#utility.yul\":3915:3938   */\n      sub\n        /* \"#utility.yul\":3911:3943   */\n      slt\n        /* \"#utility.yul\":3908:4027   */\n      iszero\n      tag_313\n      jumpi\n        /* \"#utility.yul\":3946:4025   */\n      tag_314\n      tag_238\n      jump\t// in\n    tag_314:\n        /* \"#utility.yul\":3908:4027   */\n    tag_313:\n        /* \"#utility.yul\":4066:4067   */\n      0x00\n        /* \"#utility.yul\":4091:4144   */\n      tag_315\n        /* \"#utility.yul\":4136:4143   */\n      dup7\n        /* \"#utility.yul\":4127:4133   */\n      dup3\n        /* \"#utility.yul\":4116:4125   */\n      dup8\n        /* \"#utility.yul\":4112:4134   */\n      add\n        /* \"#utility.yul\":4091:4144   */\n      tag_243\n      jump\t// in\n    tag_315:\n        /* \"#utility.yul\":4081:4144   */\n      swap4\n      pop\n        /* \"#utility.yul\":4037:4154   */\n      pop\n        /* \"#utility.yul\":4193:4195   */\n      0x20\n        /* \"#utility.yul\":4219:4272   */\n      tag_316\n        /* \"#utility.yul\":4264:4271   */\n      dup7\n        /* \"#utility.yul\":4255:4261   */\n      dup3\n        /* \"#utility.yul\":4244:4253   */\n      dup8\n        /* \"#utility.yul\":4240:4262   */\n      add\n        /* \"#utility.yul\":4219:4272   */\n      tag_243\n      jump\t// in\n    tag_316:\n        /* \"#utility.yul\":4209:4272   */\n      swap3\n      pop\n        /* \"#utility.yul\":4164:4282   */\n      pop\n        /* \"#utility.yul\":4321:4323   */\n      0x40\n        /* \"#utility.yul\":4347:4400   */\n      tag_317\n        /* \"#utility.yul\":4392:4399   */\n      dup7\n        /* \"#utility.yul\":4383:4389   */\n      dup3\n        /* \"#utility.yul\":4372:4381   */\n      dup8\n        /* \"#utility.yul\":4368:4390   */\n      add\n        /* \"#utility.yul\":4347:4400   */\n      tag_246\n      jump\t// in\n    tag_317:\n        /* \"#utility.yul\":4337:4400   */\n      swap2\n      pop\n        /* \"#utility.yul\":4292:4410   */\n      pop\n        /* \"#utility.yul\":3798:4417   */\n      swap3\n      pop\n      swap3\n      pop\n      swap3\n      jump\t// out\n        /* \"#utility.yul\":4423:4509   */\n    tag_250:\n        /* \"#utility.yul\":4458:4465   */\n      0x00\n        /* \"#utility.yul\":4498:4502   */\n      0xff\n        /* \"#utility.yul\":4491:4496   */\n      dup3\n        /* \"#utility.yul\":4487:4503   */\n      and\n        /* \"#utility.yul\":4476:4503   */\n      swap1\n      pop\n        /* \"#utility.yul\":4423:4509   */\n      swap2\n      swap1\n      pop\n      jump\t// out\n        /* \"#utility.yul\":4515:4627   */\n    tag_251:\n        /* \"#utility.yul\":4598:4620   */\n      tag_320\n        /* \"#utility.yul\":4614:4619   */\n      dup2\n        /* \"#utility.yul\":4598:4620   */\n      tag_250\n      jump\t// in\n    tag_320:\n        /* \"#utility.yul\":4593:4596   */\n      dup3\n        /* \"#utility.yul\":4586:4621   */\n      mstore\n        /* \"#utility.yul\":4515:4627   */\n      pop\n      pop\n      jump\t// out\n        /* \"#utility.yul\":4633:4847   */\n    tag_44:\n        /* \"#utility.yul\":4722:4726   */\n      0x00\n        /* \"#utility.yul\":4760:4762   */\n      0x20\n        /* \"#utility.yul\":4749:4758   */\n      dup3\n        /* \"#utility.yul\":4745:4763   */\n      add\n        /* \"#utility.yul\":4737:4763   */\n      swap1\n      pop\n        /* \"#utility.yul\":4773:4840   */\n      tag_322\n        /* \"#utility.yul\":4837:4838   */\n      0x00\n        /* \"#utility.yul\":4826:4835   */\n      dup4\n        /* \"#utility.yul\":4822:4839   */\n      add\n        /* \"#utility.yul\":4813:4819   */\n      dup5\n        /* \"#utility.yul\":4773:4840   */\n      tag_251\n      jump\t// in\n    tag_322:\n        /* \"#utility.yul\":4633:4847   */\n      swap3\n      swap2\n      pop\n      pop\n      jump\t// out\n        /* \"#utility.yul\":4853:5182   */\n    tag_47:\n        /* \"#utility.yul\":4912:4918   */\n      0x00\n        /* \"#utility.yul\":4961:4963   */\n      0x20\n        /* \"#utility.yul\":4949:4958   */\n      dup3\n        /* \"#utility.yul\":4940:4947   */\n      dup5\n        /* \"#utility.yul\":4936:4959   */\n      sub\n        /* \"#utility.yul\":4932:4964   */\n      slt\n        /* \"#utility.yul\":4929:5048   */\n      iszero\n      tag_324\n      jumpi\n        /* \"#utility.yul\":4967:5046   */\n      tag_325\n      tag_238\n      jump\t// in\n    tag_325:\n        /* \"#utility.yul\":4929:5048   */\n    tag_324:\n        /* \"#utility.yul\":5087:5088   */\n      0x00\n        /* \"#utility.yul\":5112:5165   */\n      tag_326\n        /* \"#utility.yul\":5157:5164   */\n      dup5\n        /* \"#utility.yul\":5148:5154   */\n      dup3\n        /* \"#utility.yul\":5137:5146   */\n      dup6\n        /* \"#utility.yul\":5133:5155   */\n      add\n        /* \"#utility.yul\":5112:5165   */\n      tag_246\n      jump\t// in\n    tag_326:\n        /* \"#utility.yul\":5102:5165   */\n      swap2\n      pop\n        /* \"#utility.yul\":5058:5175   */\n      pop\n        /* \"#utility.yul\":4853:5182   */\n      swap3\n      swap2\n      pop\n      pop\n      jump\t// out\n        /* \"#utility.yul\":5188:5517   */\n    tag_51:\n        /* \"#utility.yul\":5247:5253   */\n      0x00\n        /* \"#utility.yul\":5296:5298   */\n      0x20\n        /* \"#utility.yul\":5284:5293   */\n      dup3\n        /* \"#utility.yul\":5275:5282   */\n      dup5\n        /* \"#utility.yul\":5271:5294   */\n      sub\n        /* \"#utility.yul\":5267:5299   */\n      slt\n        /* \"#utility.yul\":5264:5383   */\n      iszero\n      tag_328\n      jumpi\n        /* \"#utility.yul\":5302:5381   */\n      tag_329\n      tag_238\n      jump\t// in\n    tag_329:\n        /* \"#utility.yul\":5264:5383   */\n    tag_328:\n        /* \"#utility.yul\":5422:5423   */\n      0x00\n        /* \"#utility.yul\":5447:5500   */\n      tag_330\n        /* \"#utility.yul\":5492:5499   */\n      dup5\n        /* \"#utility.yul\":5483:5489   */\n      dup3\n        /* \"#utility.yul\":5472:5481   */\n      dup6\n        /* \"#utility.yul\":5468:5490   */\n      add\n        /* \"#utility.yul\":5447:5500   */\n      tag_243\n      jump\t// in\n    tag_330:\n        /* \"#utility.yul\":5437:5500   */\n      swap2\n      pop\n        /* \"#utility.yul\":5393:5510   */\n      pop\n        /* \"#utility.yul\":5188:5517   */\n      swap3\n      swap2\n      pop\n      pop\n      jump\t// out\n        /* \"#utility.yul\":5523:5641   */\n    tag_252:\n        /* \"#utility.yul\":5610:5634   */\n      tag_332\n        /* \"#utility.yul\":5628:5633   */\n      dup2\n        /* \"#utility.yul\":5610:5634   */\n      tag_241\n      jump\t// in\n    tag_332:\n        /* \"#utility.yul\":5605:5608   */\n      dup3\n        /* \"#utility.yul\":5598:5635   */\n      mstore\n        /* \"#utility.yul\":5523:5641   */\n      pop\n      pop\n      jump\t// out\n        /* \"#utility.yul\":5647:5869   */\n    tag_59:\n        /* \"#utility.yul\":5740:5744   */\n      0x00\n        /* \"#utility.yul\":5778:5780   */\n      0x20\n        /* \"#utility.yul\":5767:5776   */\n      dup3\n        /* \"#utility.yul\":5763:5781   */\n      add\n        /* \"#utility.yul\":5755:5781   */\n      swap1\n      pop\n        /* \"#utility.yul\":5791:5862   */\n      tag_334\n        /* \"#utility.yul\":5859:5860   */\n      0x00\n        /* \"#utility.yul\":5848:5857   */\n      dup4\n        /* \"#utility.yul\":5844:5861   */\n      add\n        /* \"#utility.yul\":5835:5841   */\n      dup5\n        /* \"#utility.yul\":5791:5862   */\n      tag_252\n      jump\t// in\n    tag_334:\n        /* \"#utility.yul\":5647:5869   */\n      swap3\n      swap2\n      pop\n      pop\n      jump\t// out\n        /* \"#utility.yul\":5875:5964   */\n    tag_253:\n        /* \"#utility.yul\":5911:5918   */\n      0x00\n        /* \"#utility.yul\":5951:5957   */\n      0xffff\n        /* \"#utility.yul\":5944:5949   */\n      dup3\n        /* \"#utility.yul\":5940:5958   */\n      and\n        /* \"#utility.yul\":5929:5958   */\n      swap1\n      pop\n        /* \"#utility.yul\":5875:5964   */\n      swap2\n      swap1\n      pop\n      jump\t// out\n        /* \"#utility.yul\":5970:6090   */\n    tag_254:\n        /* \"#utility.yul\":6042:6065   */\n      tag_337\n        /* \"#utility.yul\":6059:6064   */\n      dup2\n        /* \"#utility.yul\":6042:6065   */\n      tag_253\n      jump\t// in\n    tag_337:\n        /* \"#utility.yul\":6035:6040   */\n      dup2\n        /* \"#utility.yul\":6032:6066   */\n      eq\n        /* \"#utility.yul\":6022:6084   */\n      tag_338\n      jumpi\n        /* \"#utility.yul\":6080:6081   */\n      0x00\n        /* \"#utility.yul\":6077:6078   */\n      dup1\n        /* \"#utility.yul\":6070:6082   */\n      revert\n        /* \"#utility.yul\":6022:6084   */\n    tag_338:\n        /* \"#utility.yul\":5970:6090   */\n      pop\n      jump\t// out\n        /* \"#utility.yul\":6096:6233   */\n    tag_255:\n        /* \"#utility.yul\":6141:6146   */\n      0x00\n        /* \"#utility.yul\":6179:6185   */\n      dup2\n        /* \"#utility.yul\":6166:6186   */\n      calldataload\n        /* \"#utility.yul\":6157:6186   */\n      swap1\n      pop\n        /* \"#utility.yul\":6195:6227   */\n      tag_340\n        /* \"#utility.yul\":6221:6226   */\n      dup2\n        /* \"#utility.yul\":6195:6227   */\n      tag_254\n      jump\t// in\n    tag_340:\n        /* \"#utility.yul\":6096:6233   */\n      swap3\n      swap2\n      pop\n      pop\n      jump\t// out\n        /* \"#utility.yul\":6239:6566   */\n    tag_72:\n        /* \"#utility.yul\":6297:6303   */\n      0x00\n        /* \"#utility.yul\":6346:6348   */\n      0x20\n        /* \"#utility.yul\":6334:6343   */\n      dup3\n        /* \"#utility.yul\":6325:6332   */\n      dup5\n        /* \"#utility.yul\":6321:6344   */\n      sub\n        /* \"#utility.yul\":6317:6349   */\n      slt\n        /* \"#utility.yul\":6314:6433   */\n      iszero\n      tag_342\n      jumpi\n        /* \"#utility.yul\":6352:6431   */\n      tag_343\n      tag_238\n      jump\t// in\n    tag_343:\n        /* \"#utility.yul\":6314:6433   */\n    tag_342:\n        /* \"#utility.yul\":6472:6473   */\n      0x00\n        /* \"#utility.yul\":6497:6549   */\n      tag_344\n        /* \"#utility.yul\":6541:6548   */\n      dup5\n        /* \"#utility.yul\":6532:6538   */\n      dup3\n        /* \"#utility.yul\":6521:6530   */\n      dup6\n        /* \"#utility.yul\":6517:6539   */\n      add\n        /* \"#utility.yul\":6497:6549   */\n      tag_255\n      jump\t// in\n    tag_344:\n        /* \"#utility.yul\":6487:6549   */\n      swap2\n      pop\n        /* \"#utility.yul\":6443:6559   */\n      pop\n        /* \"#utility.yul\":6239:6566   */\n      swap3\n      swap2\n      pop\n      pop\n      jump\t// out\n        /* \"#utility.yul\":6572:6687   */\n    tag_256:\n        /* \"#utility.yul\":6657:6680   */\n      tag_346\n        /* \"#utility.yul\":6674:6679   */\n      dup2\n        /* \"#utility.yul\":6657:6680   */\n      tag_253\n      jump\t// in\n    tag_346:\n        /* \"#utility.yul\":6652:6655   */\n      dup3\n        /* \"#utility.yul\":6645:6681   */\n      mstore\n        /* \"#utility.yul\":6572:6687   */\n      pop\n      pop\n      jump\t// out\n        /* \"#utility.yul\":6693:6911   */\n    tag_77:\n        /* \"#utility.yul\":6784:6788   */\n      0x00\n        /* \"#utility.yul\":6822:6824   */\n      0x20\n        /* \"#utility.yul\":6811:6820   */\n      dup3\n        /* \"#utility.yul\":6807:6825   */\n      add\n        /* \"#utility.yul\":6799:6825   */\n      swap1\n      pop\n        /* \"#utility.yul\":6835:6904   */\n      tag_348\n        /* \"#utility.yul\":6901:6902   */\n      0x00\n        /* \"#utility.yul\":6890:6899   */\n      dup4\n        /* \"#utility.yul\":6886:6903   */\n      add\n        /* \"#utility.yul\":6877:6883   */\n      dup5\n        /* \"#utility.yul\":6835:6904   */\n      tag_256\n      jump\t// in\n    tag_348:\n        /* \"#utility.yul\":6693:6911   */\n      swap3\n      swap2\n      pop\n      pop\n      jump\t// out\n        /* \"#utility.yul\":6917:7391   */\n    tag_80:\n        /* \"#utility.yul\":6985:6991   */\n      0x00\n        /* \"#utility.yul\":6993:6999   */\n      dup1\n        /* \"#utility.yul\":7042:7044   */\n      0x40\n        /* \"#utility.yul\":7030:7039   */\n      dup4\n        /* \"#utility.yul\":7021:7028   */\n      dup6\n        /* \"#utility.yul\":7017:7040   */\n      sub\n        /* \"#utility.yul\":7013:7045   */\n      slt\n        /* \"#utility.yul\":7010:7129   */\n      iszero\n      tag_350\n      jumpi\n        /* \"#utility.yul\":7048:7127   */\n      tag_351\n      tag_238\n      jump\t// in\n    tag_351:\n        /* \"#utility.yul\":7010:7129   */\n    tag_350:\n        /* \"#utility.yul\":7168:7169   */\n      0x00\n        /* \"#utility.yul\":7193:7246   */\n      tag_352\n        /* \"#utility.yul\":7238:7245   */\n      dup6\n        /* \"#utility.yul\":7229:7235   */\n      dup3\n        /* \"#utility.yul\":7218:7227   */\n      dup7\n        /* \"#utility.yul\":7214:7236   */\n      add\n        /* \"#utility.yul\":7193:7246   */\n      tag_243\n      jump\t// in\n    tag_352:\n        /* \"#utility.yul\":7183:7246   */\n      swap3\n      pop\n        /* \"#utility.yul\":7139:7256   */\n      pop\n        /* \"#utility.yul\":7295:7297   */\n      0x20\n        /* \"#utility.yul\":7321:7374   */\n      tag_353\n        /* \"#utility.yul\":7366:7373   */\n      dup6\n        /* \"#utility.yul\":7357:7363   */\n      dup3\n        /* \"#utility.yul\":7346:7355   */\n      dup7\n        /* \"#utility.yul\":7342:7364   */\n      add\n        /* \"#utility.yul\":7321:7374   */\n      tag_243\n      jump\t// in\n    tag_353:\n        /* \"#utility.yul\":7311:7374   */\n      swap2\n      pop\n        /* \"#utility.yul\":7266:7384   */\n      pop\n        /* \"#utility.yul\":6917:7391   */\n      swap3\n      pop\n      swap3\n      swap1\n      pop\n      jump\t// out\n        /* \"#utility.yul\":7397:7577   */\n    tag_257:\n        /* \"#utility.yul\":7445:7522   */\n      0x4e487b7100000000000000000000000000000000000000000000000000000000\n        /* \"#utility.yul\":7442:7443   */\n      0x00\n        /* \"#utility.yul\":7435:7523   */\n      mstore\n        /* \"#utility.yul\":7542:7546   */\n      0x22\n        /* \"#utility.yul\":7539:7540   */\n      0x04\n        /* \"#utility.yul\":7532:7547   */\n      mstore\n        /* \"#utility.yul\":7566:7570   */\n      0x24\n        /* \"#utility.yul\":7563:7564   */\n      0x00\n        /* \"#utility.yul\":7556:7571   */\n      revert\n        /* \"#utility.yul\":7583:7903   */\n    tag_88:\n        /* \"#utility.yul\":7627:7633   */\n      0x00\n        /* \"#utility.yul\":7664:7665   */\n      0x02\n        /* \"#utility.yul\":7658:7662   */\n      dup3\n        /* \"#utility.yul\":7654:7666   */\n      div\n        /* \"#utility.yul\":7644:7666   */\n      swap1\n      pop\n        /* \"#utility.yul\":7711:7712   */\n      0x01\n        /* \"#utility.yul\":7705:7709   */\n      dup3\n        /* \"#utility.yul\":7701:7713   */\n      and\n        /* \"#utility.yul\":7732:7750   */\n      dup1\n        /* \"#utility.yul\":7722:7803   */\n      tag_356\n      jumpi\n        /* \"#utility.yul\":7788:7792   */\n      0x7f\n        /* \"#utility.yul\":7780:7786   */\n      dup3\n        /* \"#utility.yul\":7776:7793   */\n      and\n        /* \"#utility.yul\":7766:7793   */\n      swap2\n      pop\n        /* \"#utility.yul\":7722:7803   */\n    tag_356:\n        /* \"#utility.yul\":7850:7852   */\n      0x20\n        /* \"#utility.yul\":7842:7848   */\n      dup3\n        /* \"#utility.yul\":7839:7853   */\n      lt\n        /* \"#utility.yul\":7819:7837   */\n      dup2\n        /* \"#utility.yul\":7816:7854   */\n      sub\n        /* \"#utility.yul\":7813:7897   */\n      tag_357\n      jumpi\n        /* \"#utility.yul\":7869:7887   */\n      tag_358\n      tag_257\n      jump\t// in\n    tag_358:\n        /* \"#utility.yul\":7813:7897   */\n    tag_357:\n        /* \"#utility.yul\":7634:7903   */\n      pop\n        /* \"#utility.yul\":7583:7903   */\n      swap2\n      swap1\n      pop\n      jump\t// out\n        /* \"#utility.yul\":7909:8089   */\n    tag_258:\n        /* \"#utility.yul\":7957:8034   */\n      0x4e487b7100000000000000000000000000000000000000000000000000000000\n        /* \"#utility.yul\":7954:7955   */\n      0x00\n        /* \"#utility.yul\":7947:8035   */\n      mstore\n        /* \"#utility.yul\":8054:8058   */\n      0x11\n        /* \"#utility.yul\":8051:8052   */\n      0x04\n        /* \"#utility.yul\":8044:8059   */\n      mstore\n        /* \"#utility.yul\":8078:8082   */\n      0x24\n        /* \"#utility.yul\":8075:8076   */\n      0x00\n        /* \"#utility.yul\":8068:8083   */\n      revert\n        /* \"#utility.yul\":8095:8505   */\n    tag_101:\n        /* \"#utility.yul\":8135:8142   */\n      0x00\n        /* \"#utility.yul\":8158:8178   */\n      tag_361\n        /* \"#utility.yul\":8176:8177   */\n      dup3\n        /* \"#utility.yul\":8158:8178   */\n      tag_244\n      jump\t// in\n    tag_361:\n        /* \"#utility.yul\":8153:8178   */\n      swap2\n      pop\n        /* \"#utility.yul\":8192:8212   */\n      tag_362\n        /* \"#utility.yul\":8210:8211   */\n      dup4\n        /* \"#utility.yul\":8192:8212   */\n      tag_244\n      jump\t// in\n    tag_362:\n        /* \"#utility.yul\":8187:8212   */\n      swap3\n      pop\n        /* \"#utility.yul\":8247:8248   */\n      dup3\n        /* \"#utility.yul\":8244:8245   */\n      dup3\n        /* \"#utility.yul\":8240:8249   */\n      mul\n        /* \"#utility.yul\":8269:8299   */\n      tag_363\n        /* \"#utility.yul\":8287:8298   */\n      dup2\n        /* \"#utility.yul\":8269:8299   */\n      tag_244\n      jump\t// in\n    tag_363:\n        /* \"#utility.yul\":8258:8299   */\n      swap2\n      pop\n        /* \"#utility.yul\":8448:8449   */\n      dup3\n        /* \"#utility.yul\":8439:8446   */\n      dup3\n        /* \"#utility.yul\":8435:8450   */\n      div\n        /* \"#utility.yul\":8432:8433   */\n      dup5\n        /* \"#utility.yul\":8429:8451   */\n      eq\n        /* \"#utility.yul\":8409:8410   */\n      dup4\n        /* \"#utility.yul\":8402:8411   */\n      iszero\n        /* \"#utility.yul\":8382:8465   */\n      or\n        /* \"#utility.yul\":8359:8498   */\n      tag_364\n      jumpi\n        /* \"#utility.yul\":8478:8496   */\n      tag_365\n      tag_258\n      jump\t// in\n    tag_365:\n        /* \"#utility.yul\":8359:8498   */\n    tag_364:\n        /* \"#utility.yul\":8143:8505   */\n      pop\n        /* \"#utility.yul\":8095:8505   */\n      swap3\n      swap2\n      pop\n      pop\n      jump\t// out\n        /* \"#utility.yul\":8511:8691   */\n    tag_259:\n        /* \"#utility.yul\":8559:8636   */\n      0x4e487b7100000000000000000000000000000000000000000000000000000000\n        /* \"#utility.yul\":8556:8557   */\n      0x00\n        /* \"#utility.yul\":8549:8637   */\n      mstore\n        /* \"#utility.yul\":8656:8660   */\n      0x12\n        /* \"#utility.yul\":8653:8654   */\n      0x04\n        /* \"#utility.yul\":8646:8661   */\n      mstore\n        /* \"#utility.yul\":8680:8684   */\n      0x24\n        /* \"#utility.yul\":8677:8678   */\n      0x00\n        /* \"#utility.yul\":8670:8685   */\n      revert\n        /* \"#utility.yul\":8697:8882   */\n    tag_103:\n        /* \"#utility.yul\":8737:8738   */\n      0x00\n        /* \"#utility.yul\":8754:8774   */\n      tag_368\n        /* \"#utility.yul\":8772:8773   */\n      dup3\n        /* \"#utility.yul\":8754:8774   */\n      tag_244\n      jump\t// in\n    tag_368:\n        /* \"#utility.yul\":8749:8774   */\n      swap2\n      pop\n        /* \"#utility.yul\":8788:8808   */\n      tag_369\n        /* \"#utility.yul\":8806:8807   */\n      dup4\n        /* \"#utility.yul\":8788:8808   */\n      tag_244\n      jump\t// in\n    tag_369:\n        /* \"#utility.yul\":8783:8808   */\n      swap3\n      pop\n        /* \"#utility.yul\":8827:8828   */\n      dup3\n        /* \"#utility.yul\":8817:8852   */\n      tag_370\n      jumpi\n        /* \"#utility.yul\":8832:8850   */\n      tag_371\n      tag_259\n      jump\t// in\n    tag_371:\n        /* \"#utility.yul\":8817:8852   */\n    tag_370:\n        /* \"#utility.yul\":8874:8875   */\n      dup3\n        /* \"#utility.yul\":8871:8872   */\n      dup3\n        /* \"#utility.yul\":8867:8876   */\n      div\n        /* \"#utility.yul\":8862:8876   */\n      swap1\n      pop\n        /* \"#utility.yul\":8697:8882   */\n      swap3\n      swap2\n      pop\n      pop\n      jump\t// out\n        /* \"#utility.yul\":8888:9123   */\n    tag_260:\n        /* \"#utility.yul\":9028:9062   */\n      0x56616c756520646f6573206e6f7420636f76657220666565732e20456e746572\n        /* \"#utility.yul\":9024:9025   */\n      0x00\n        /* \"#utility.yul\":9016:9022   */\n      dup3\n        /* \"#utility.yul\":9012:9026   */\n      add\n        /* \"#utility.yul\":9005:9063   */\n      mstore\n        /* \"#utility.yul\":9097:9115   */\n      0x20612068696768657220616d6f756e7400000000000000000000000000000000\n        /* \"#utility.yul\":9092:9094   */\n      0x20\n        /* \"#utility.yul\":9084:9090   */\n      dup3\n        /* \"#utility.yul\":9080:9095   */\n      add\n        /* \"#utility.yul\":9073:9116   */\n      mstore\n        /* \"#utility.yul\":8888:9123   */\n      pop\n      jump\t// out\n        /* \"#utility.yul\":9129:9495   */\n    tag_261:\n        /* \"#utility.yul\":9271:9274   */\n      0x00\n        /* \"#utility.yul\":9292:9359   */\n      tag_374\n        /* \"#utility.yul\":9356:9358   */\n      0x30\n        /* \"#utility.yul\":9351:9354   */\n      dup4\n        /* \"#utility.yul\":9292:9359   */\n      tag_233\n      jump\t// in\n    tag_374:\n        /* \"#utility.yul\":9285:9359   */\n      swap2\n      pop\n        /* \"#utility.yul\":9368:9461   */\n      tag_375\n        /* \"#utility.yul\":9457:9460   */\n      dup3\n        /* \"#utility.yul\":9368:9461   */\n      tag_260\n      jump\t// in\n    tag_375:\n        /* \"#utility.yul\":9486:9488   */\n      0x40\n        /* \"#utility.yul\":9481:9484   */\n      dup3\n        /* \"#utility.yul\":9477:9489   */\n      add\n        /* \"#utility.yul\":9470:9489   */\n      swap1\n      pop\n        /* \"#utility.yul\":9129:9495   */\n      swap2\n      swap1\n      pop\n      jump\t// out\n        /* \"#utility.yul\":9501:9920   */\n    tag_106:\n        /* \"#utility.yul\":9667:9671   */\n      0x00\n        /* \"#utility.yul\":9705:9707   */\n      0x20\n        /* \"#utility.yul\":9694:9703   */\n      dup3\n        /* \"#utility.yul\":9690:9708   */\n      add\n        /* \"#utility.yul\":9682:9708   */\n      swap1\n      pop\n        /* \"#utility.yul\":9754:9763   */\n      dup2\n        /* \"#utility.yul\":9748:9752   */\n      dup2\n        /* \"#utility.yul\":9744:9764   */\n      sub\n        /* \"#utility.yul\":9740:9741   */\n      0x00\n        /* \"#utility.yul\":9729:9738   */\n      dup4\n        /* \"#utility.yul\":9725:9742   */\n      add\n        /* \"#utility.yul\":9718:9765   */\n      mstore\n        /* \"#utility.yul\":9782:9913   */\n      tag_377\n        /* \"#utility.yul\":9908:9912   */\n      dup2\n        /* \"#utility.yul\":9782:9913   */\n      tag_261\n      jump\t// in\n    tag_377:\n        /* \"#utility.yul\":9774:9913   */\n      swap1\n      pop\n        /* \"#utility.yul\":9501:9920   */\n      swap2\n      swap1\n      pop\n      jump\t// out\n        /* \"#utility.yul\":9926:10163   */\n    tag_262:\n        /* \"#utility.yul\":10066:10100   */\n      0x56616c75652063616e6e6f7420636f76657220616e7920666565732e20456e74\n        /* \"#utility.yul\":10062:10063   */\n      0x00\n        /* \"#utility.yul\":10054:10060   */\n      dup3\n        /* \"#utility.yul\":10050:10064   */\n      add\n        /* \"#utility.yul\":10043:10101   */\n      mstore\n        /* \"#utility.yul\":10135:10155   */\n      0x657220612068696768657220616d6f756e740000000000000000000000000000\n        /* \"#utility.yul\":10130:10132   */\n      0x20\n        /* \"#utility.yul\":10122:10128   */\n      dup3\n        /* \"#utility.yul\":10118:10133   */\n      add\n        /* \"#utility.yul\":10111:10156   */\n      mstore\n        /* \"#utility.yul\":9926:10163   */\n      pop\n      jump\t// out\n        /* \"#utility.yul\":10169:10535   */\n    tag_263:\n        /* \"#utility.yul\":10311:10314   */\n      0x00\n        /* \"#utility.yul\":10332:10399   */\n      tag_380\n        /* \"#utility.yul\":10396:10398   */\n      0x32\n        /* \"#utility.yul\":10391:10394   */\n      dup4\n        /* \"#utility.yul\":10332:10399   */\n      tag_233\n      jump\t// in\n    tag_380:\n        /* \"#utility.yul\":10325:10399   */\n      swap2\n      pop\n        /* \"#utility.yul\":10408:10501   */\n      tag_381\n        /* \"#utility.yul\":10497:10500   */\n      dup3\n        /* \"#utility.yul\":10408:10501   */\n      tag_262\n      jump\t// in\n    tag_381:\n        /* \"#utility.yul\":10526:10528   */\n      0x40\n        /* \"#utility.yul\":10521:10524   */\n      dup3\n        /* \"#utility.yul\":10517:10529   */\n      add\n        /* \"#utility.yul\":10510:10529   */\n      swap1\n      pop\n        /* \"#utility.yul\":10169:10535   */\n      swap2\n      swap1\n      pop\n      jump\t// out\n        /* \"#utility.yul\":10541:10960   */\n    tag_111:\n        /* \"#utility.yul\":10707:10711   */\n      0x00\n        /* \"#utility.yul\":10745:10747   */\n      0x20\n        /* \"#utility.yul\":10734:10743   */\n      dup3\n        /* \"#utility.yul\":10730:10748   */\n      add\n        /* \"#utility.yul\":10722:10748   */\n      swap1\n      pop\n        /* \"#utility.yul\":10794:10803   */\n      dup2\n        /* \"#utility.yul\":10788:10792   */\n      dup2\n        /* \"#utility.yul\":10784:10804   */\n      sub\n        /* \"#utility.yul\":10780:10781   */\n      0x00\n        /* \"#utility.yul\":10769:10778   */\n      dup4\n        /* \"#utility.yul\":10765:10782   */\n      add\n        /* \"#utility.yul\":10758:10805   */\n      mstore\n        /* \"#utility.yul\":10822:10953   */\n      tag_383\n        /* \"#utility.yul\":10948:10952   */\n      dup2\n        /* \"#utility.yul\":10822:10953   */\n      tag_263\n      jump\t// in\n    tag_383:\n        /* \"#utility.yul\":10814:10953   */\n      swap1\n      pop\n        /* \"#utility.yul\":10541:10960   */\n      swap2\n      swap1\n      pop\n      jump\t// out\n        /* \"#utility.yul\":10966:11160   */\n    tag_116:\n        /* \"#utility.yul\":11006:11010   */\n      0x00\n        /* \"#utility.yul\":11026:11046   */\n      tag_385\n        /* \"#utility.yul\":11044:11045   */\n      dup3\n        /* \"#utility.yul\":11026:11046   */\n      tag_244\n      jump\t// in\n    tag_385:\n        /* \"#utility.yul\":11021:11046   */\n      swap2\n      pop\n        /* \"#utility.yul\":11060:11080   */\n      tag_386\n        /* \"#utility.yul\":11078:11079   */\n      dup4\n        /* \"#utility.yul\":11060:11080   */\n      tag_244\n      jump\t// in\n    tag_386:\n        /* \"#utility.yul\":11055:11080   */\n      swap3\n      pop\n        /* \"#utility.yul\":11104:11105   */\n      dup3\n        /* \"#utility.yul\":11101:11102   */\n      dup3\n        /* \"#utility.yul\":11097:11106   */\n      sub\n        /* \"#utility.yul\":11089:11106   */\n      swap1\n      pop\n        /* \"#utility.yul\":11128:11129   */\n      dup2\n        /* \"#utility.yul\":11122:11126   */\n      dup2\n        /* \"#utility.yul\":11119:11130   */\n      gt\n        /* \"#utility.yul\":11116:11153   */\n      iszero\n      tag_387\n      jumpi\n        /* \"#utility.yul\":11133:11151   */\n      tag_388\n      tag_258\n      jump\t// in\n    tag_388:\n        /* \"#utility.yul\":11116:11153   */\n    tag_387:\n        /* \"#utility.yul\":10966:11160   */\n      swap3\n      swap2\n      pop\n      pop\n      jump\t// out\n        /* \"#utility.yul\":11166:11346   */\n    tag_264:\n        /* \"#utility.yul\":11306:11338   */\n      0x4275726e2072617465206d6173206265206c657373207468616e203530250000\n        /* \"#utility.yul\":11302:11303   */\n      0x00\n        /* \"#utility.yul\":11294:11300   */\n      dup3\n        /* \"#utility.yul\":11290:11304   */\n      add\n        /* \"#utility.yul\":11283:11339   */\n      mstore\n        /* \"#utility.yul\":11166:11346   */\n      pop\n      jump\t// out\n        /* \"#utility.yul\":11352:11718   */\n    tag_265:\n        /* \"#utility.yul\":11494:11497   */\n      0x00\n        /* \"#utility.yul\":11515:11582   */\n      tag_391\n        /* \"#utility.yul\":11579:11581   */\n      0x1e\n        /* \"#utility.yul\":11574:11577   */\n      dup4\n        /* \"#utility.yul\":11515:11582   */\n      tag_233\n      jump\t// in\n    tag_391:\n        /* \"#utility.yul\":11508:11582   */\n      swap2\n      pop\n        /* \"#utility.yul\":11591:11684   */\n      tag_392\n        /* \"#utility.yul\":11680:11683   */\n      dup3\n        /* \"#utility.yul\":11591:11684   */\n      tag_264\n      jump\t// in\n    tag_392:\n        /* \"#utility.yul\":11709:11711   */\n      0x20\n        /* \"#utility.yul\":11704:11707   */\n      dup3\n        /* \"#utility.yul\":11700:11712   */\n      add\n        /* \"#utility.yul\":11693:11712   */\n      swap1\n      pop\n        /* \"#utility.yul\":11352:11718   */\n      swap2\n      swap1\n      pop\n      jump\t// out\n        /* \"#utility.yul\":11724:12143   */\n    tag_173:\n        /* \"#utility.yul\":11890:11894   */\n      0x00\n        /* \"#utility.yul\":11928:11930   */\n      0x20\n        /* \"#utility.yul\":11917:11926   */\n      dup3\n        /* \"#utility.yul\":11913:11931   */\n      add\n        /* \"#utility.yul\":11905:11931   */\n      swap1\n      pop\n        /* \"#utility.yul\":11977:11986   */\n      dup2\n        /* \"#utility.yul\":11971:11975   */\n      dup2\n        /* \"#utility.yul\":11967:11987   */\n      sub\n        /* \"#utility.yul\":11963:11964   */\n      0x00\n        /* \"#utility.yul\":11952:11961   */\n      dup4\n        /* \"#utility.yul\":11948:11965   */\n      add\n        /* \"#utility.yul\":11941:11988   */\n      mstore\n        /* \"#utility.yul\":12005:12136   */\n      tag_394\n        /* \"#utility.yul\":12131:12135   */\n      dup2\n        /* \"#utility.yul\":12005:12136   */\n      tag_265\n      jump\t// in\n    tag_394:\n        /* \"#utility.yul\":11997:12136   */\n      swap1\n      pop\n        /* \"#utility.yul\":11724:12143   */\n      swap2\n      swap1\n      pop\n      jump\t// out\n        /* \"#utility.yul\":12149:12591   */\n    tag_191:\n        /* \"#utility.yul\":12298:12302   */\n      0x00\n        /* \"#utility.yul\":12336:12338   */\n      0x60\n        /* \"#utility.yul\":12325:12334   */\n      dup3\n        /* \"#utility.yul\":12321:12339   */\n      add\n        /* \"#utility.yul\":12313:12339   */\n      swap1\n      pop\n        /* \"#utility.yul\":12349:12420   */\n      tag_396\n        /* \"#utility.yul\":12417:12418   */\n      0x00\n        /* \"#utility.yul\":12406:12415   */\n      dup4\n        /* \"#utility.yul\":12402:12419   */\n      add\n        /* \"#utility.yul\":12393:12399   */\n      dup7\n        /* \"#utility.yul\":12349:12420   */\n      tag_252\n      jump\t// in\n    tag_396:\n        /* \"#utility.yul\":12430:12502   */\n      tag_397\n        /* \"#utility.yul\":12498:12500   */\n      0x20\n        /* \"#utility.yul\":12487:12496   */\n      dup4\n        /* \"#utility.yul\":12483:12501   */\n      add\n        /* \"#utility.yul\":12474:12480   */\n      dup6\n        /* \"#utility.yul\":12430:12502   */\n      tag_249\n      jump\t// in\n    tag_397:\n        /* \"#utility.yul\":12512:12584   */\n      tag_398\n        /* \"#utility.yul\":12580:12582   */\n      0x40\n        /* \"#utility.yul\":12569:12578   */\n      dup4\n        /* \"#utility.yul\":12565:12583   */\n      add\n        /* \"#utility.yul\":12556:12562   */\n      dup5\n        /* \"#utility.yul\":12512:12584   */\n      tag_249\n      jump\t// in\n    tag_398:\n        /* \"#utility.yul\":12149:12591   */\n      swap5\n      swap4\n      pop\n      pop\n      pop\n      pop\n      jump\t// out\n        /* \"#utility.yul\":12597:12788   */\n    tag_225:\n        /* \"#utility.yul\":12637:12640   */\n      0x00\n        /* \"#utility.yul\":12656:12676   */\n      tag_400\n        /* \"#utility.yul\":12674:12675   */\n      dup3\n        /* \"#utility.yul\":12656:12676   */\n      tag_244\n      jump\t// in\n    tag_400:\n        /* \"#utility.yul\":12651:12676   */\n      swap2\n      pop\n        /* \"#utility.yul\":12690:12710   */\n      tag_401\n        /* \"#utility.yul\":12708:12709   */\n      dup4\n        /* \"#utility.yul\":12690:12710   */\n      tag_244\n      jump\t// in\n    tag_401:\n        /* \"#utility.yul\":12685:12710   */\n      swap3\n      pop\n        /* \"#utility.yul\":12733:12734   */\n      dup3\n        /* \"#utility.yul\":12730:12731   */\n      dup3\n        /* \"#utility.yul\":12726:12735   */\n      add\n        /* \"#utility.yul\":12719:12735   */\n      swap1\n      pop\n        /* \"#utility.yul\":12754:12757   */\n      dup1\n        /* \"#utility.yul\":12751:12752   */\n      dup3\n        /* \"#utility.yul\":12748:12758   */\n      gt\n        /* \"#utility.yul\":12745:12781   */\n      iszero\n      tag_402\n      jumpi\n        /* \"#utility.yul\":12761:12779   */\n      tag_403\n      tag_258\n      jump\t// in\n    tag_403:\n        /* \"#utility.yul\":12745:12781   */\n    tag_402:\n        /* \"#utility.yul\":12597:12788   */\n      swap3\n      swap2\n      pop\n      pop\n      jump\t// out\n\n    auxdata: 0xa2646970667358221220e422f4f1b7c161b2d3706c2d56f3caf8d169cb758df30f760ab18fb45524426d64736f6c63430008180033\n}\n",
				"bytecode": {
					"linkReferences": {},
					"object": "608060405234801562000010575f80fd5b506040516200246b3803806200246b833981810160405281019062000036919062000658565b33838381600390816200004a919062000926565b5080600490816200005c919062000926565b5050505f73ffffffffffffffffffffffffffffffffffffffff168173ffffffffffffffffffffffffffffffffffffffff1603620000d2575f6040517f1e4fbdf7000000000000000000000000000000000000000000000000000000008152600401620000c9919062000a4d565b60405180910390fd5b620000e3816200012660201b60201c565b5080600560146101000a81548161ffff021916908361ffff1602179055506200011d3369d3c21bcecceda1000000620001e960201b60201c565b50505062000b36565b5f60055f9054906101000a900473ffffffffffffffffffffffffffffffffffffffff1690508160055f6101000a81548173ffffffffffffffffffffffffffffffffffffffff021916908373ffffffffffffffffffffffffffffffffffffffff1602179055508173ffffffffffffffffffffffffffffffffffffffff168173ffffffffffffffffffffffffffffffffffffffff167f8be0079c531659141344cd1fd0a4f28419497f9722a3daafe3b4186f6b6457e060405160405180910390a35050565b5f73ffffffffffffffffffffffffffffffffffffffff168273ffffffffffffffffffffffffffffffffffffffff16036200025c575f6040517fec442f0500000000000000000000000000000000000000000000000000000000815260040162000253919062000a4d565b60405180910390fd5b6200026f5f83836200027360201b60201c565b5050565b5f73ffffffffffffffffffffffffffffffffffffffff168373ffffffffffffffffffffffffffffffffffffffff1603620002c7578060025f828254620002ba919062000a95565b9250508190555062000398565b5f805f8573ffffffffffffffffffffffffffffffffffffffff1673ffffffffffffffffffffffffffffffffffffffff1681526020019081526020015f205490508181101562000353578381836040517fe450d38c0000000000000000000000000000000000000000000000000000000081526004016200034a9392919062000ae0565b60405180910390fd5b8181035f808673ffffffffffffffffffffffffffffffffffffffff1673ffffffffffffffffffffffffffffffffffffffff1681526020019081526020015f2081905550505b5f73ffffffffffffffffffffffffffffffffffffffff168273ffffffffffffffffffffffffffffffffffffffff1603620003e1578060025f82825403925050819055506200042b565b805f808473ffffffffffffffffffffffffffffffffffffffff1673ffffffffffffffffffffffffffffffffffffffff1681526020019081526020015f205f82825401925050819055505b8173ffffffffffffffffffffffffffffffffffffffff168373ffffffffffffffffffffffffffffffffffffffff167fddf252ad1be2c89b69c2b068fc378daa952ba7f163c4a11628f55a4df523b3ef836040516200048a919062000b1b565b60405180910390a3505050565b5f604051905090565b5f80fd5b5f80fd5b5f80fd5b5f80fd5b5f601f19601f8301169050919050565b7f4e487b71000000000000000000000000000000000000000000000000000000005f52604160045260245ffd5b620004f882620004b0565b810181811067ffffffffffffffff821117156200051a5762000519620004c0565b5b80604052505050565b5f6200052e62000497565b90506200053c8282620004ed565b919050565b5f67ffffffffffffffff8211156200055e576200055d620004c0565b5b6200056982620004b0565b9050602081019050919050565b5f5b838110156200059557808201518184015260208101905062000578565b5f8484015250505050565b5f620005b6620005b08462000541565b62000523565b905082815260208101848484011115620005d557620005d4620004ac565b5b620005e284828562000576565b509392505050565b5f82601f830112620006015762000600620004a8565b5b815162000613848260208601620005a0565b91505092915050565b5f61ffff82169050919050565b62000634816200061c565b81146200063f575f80fd5b50565b5f81519050620006528162000629565b92915050565b5f805f60608486031215620006725762000671620004a0565b5b5f84015167ffffffffffffffff811115620006925762000691620004a4565b5b620006a086828701620005ea565b935050602084015167ffffffffffffffff811115620006c457620006c3620004a4565b5b620006d286828701620005ea565b9250506040620006e58682870162000642565b9150509250925092565b5f81519050919050565b7f4e487b71000000000000000000000000000000000000000000000000000000005f52602260045260245ffd5b5f60028204905060018216806200073e57607f821691505b602082108103620007545762000753620006f9565b5b50919050565b5f819050815f5260205f209050919050565b5f6020601f8301049050919050565b5f82821b905092915050565b5f60088302620007b87fffffffffffffffffffffffffffffffffffffffffffffffffffffffffffffffff826200077b565b620007c486836200077b565b95508019841693508086168417925050509392505050565b5f819050919050565b5f819050919050565b5f6200080e620008086200080284620007dc565b620007e5565b620007dc565b9050919050565b5f819050919050565b6200082983620007ee565b62000841620008388262000815565b84845462000787565b825550505050565b5f90565b6200085762000849565b620008648184846200081e565b505050565b5b818110156200088b576200087f5f826200084d565b6001810190506200086a565b5050565b601f821115620008da57620008a4816200075a565b620008af846200076c565b81016020851015620008bf578190505b620008d7620008ce856200076c565b83018262000869565b50505b505050565b5f82821c905092915050565b5f620008fc5f1984600802620008df565b1980831691505092915050565b5f620009168383620008eb565b9150826002028217905092915050565b6200093182620006ef565b67ffffffffffffffff8111156200094d576200094c620004c0565b5b62000959825462000726565b620009668282856200088f565b5f60209050601f8311600181146200099c575f841562000987578287015190505b62000993858262000909565b86555062000a02565b601f198416620009ac866200075a565b5f5b82811015620009d557848901518255600182019150602085019450602081019050620009ae565b86831015620009f55784890151620009f1601f891682620008eb565b8355505b6001600288020188555050505b505050505050565b5f73ffffffffffffffffffffffffffffffffffffffff82169050919050565b5f62000a358262000a0a565b9050919050565b62000a478162000a29565b82525050565b5f60208201905062000a625f83018462000a3c565b92915050565b7f4e487b71000000000000000000000000000000000000000000000000000000005f52601160045260245ffd5b5f62000aa182620007dc565b915062000aae83620007dc565b925082820190508082111562000ac95762000ac862000a68565b5b92915050565b62000ada81620007dc565b82525050565b5f60608201905062000af55f83018662000a3c565b62000b04602083018562000acf565b62000b13604083018462000acf565b949350505050565b5f60208201905062000b305f83018462000acf565b92915050565b6119278062000b445f395ff3fe608060405234801561000f575f80fd5b50600436106100fe575f3560e01c80638da5cb5b11610095578063b4969b9611610064578063b4969b961461029a578063bed99850146102b6578063dd62ed3e146102d4578063f2fde38b14610304576100fe565b80638da5cb5b1461021257806395d89b4114610230578063a0712d681461024e578063a9059cbb1461026a576100fe565b8063313ce567116100d1578063313ce5671461019e57806342966c68146101bc57806370a08231146101d8578063715018a614610208576100fe565b806306fdde0314610102578063095ea7b31461012057806318160ddd1461015057806323b872dd1461016e575b5f80fd5b61010a610320565b6040516101179190611296565b60405180910390f35b61013a60048036038101906101359190611347565b6103b0565b604051610147919061139f565b60405180910390f35b6101586103d2565b60405161016591906113c7565b60405180910390f35b610188600480360381019061018391906113e0565b6103db565b604051610195919061139f565b60405180910390f35b6101a661058b565b6040516101b3919061144b565b60405180910390f35b6101d660048036038101906101d19190611464565b610593565b005b6101f260048036038101906101ed919061148f565b6105f6565b6040516101ff91906113c7565b60405180910390f35b61021061063b565b005b61021a61064e565b60405161022791906114c9565b60405180910390f35b610238610676565b6040516102459190611296565b60405180910390f35b61026860048036038101906102639190611464565b610706565b005b610284600480360381019061027f9190611347565b61071b565b604051610291919061139f565b60405180910390f35b6102b460048036038101906102af9190611519565b6108b3565b005b6102be610926565b6040516102cb9190611553565b60405180910390f35b6102ee60048036038101906102e9919061156c565b61093a565b6040516102fb91906113c7565b60405180910390f35b61031e6004803603810190610319919061148f565b6109bc565b005b60606003805461032f906115d7565b80601f016020809104026020016040519081016040528092919081815260200182805461035b906115d7565b80156103a65780601f1061037d576101008083540402835291602001916103a6565b820191905f5260205f20905b81548152906001019060200180831161038957829003601f168201915b5050505050905090565b5f806103ba610a40565b90506103c7818585610a47565b600191505092915050565b5f600254905090565b5f8180612710600560149054906101000a900461ffff1661ffff16836104019190611634565b61040b91906116a2565b1061044b576040517f08c379a000000000000000000000000000000000000000000000000000000000815260040161044290611742565b60405180910390fd5b6001612710600560149054906101000a900461ffff1661ffff16836104709190611634565b61047a91906116a2565b10156104bb576040517f08c379a00000000000000000000000000000000000000000000000000000000081526004016104b2906117d0565b60405180910390fd5b5f612710600560149054906101000a900461ffff1661ffff16856104df9190611634565b6104e991906116a2565b90505f81856104f891906117ee565b90505f610503610a40565b9050610510888288610a59565b61051b888884610aec565b5f83111561057c5761052d8884610bdc565b8773ffffffffffffffffffffffffffffffffffffffff167fcc16f5dbb4873280815c1ee09dbd06736cffcc184412cf7a71a0fdb75d397ca58460405161057391906113c7565b60405180910390a25b60019450505050509392505050565b5f6012905090565b61059b610c5b565b6105a53382610bdc565b3373ffffffffffffffffffffffffffffffffffffffff167fcc16f5dbb4873280815c1ee09dbd06736cffcc184412cf7a71a0fdb75d397ca5826040516105eb91906113c7565b60405180910390a250565b5f805f8373ffffffffffffffffffffffffffffffffffffffff1673ffffffffffffffffffffffffffffffffffffffff1681526020019081526020015f20549050919050565b610643610c5b565b61064c5f610ce2565b565b5f60055f9054906101000a900473ffffffffffffffffffffffffffffffffffffffff16905090565b606060048054610685906115d7565b80601f01602080910402602001604051908101604052809291908181526020018280546106b1906115d7565b80156106fc5780601f106106d3576101008083540402835291602001916106fc565b820191905f5260205f20905b8154815290600101906020018083116106df57829003601f168201915b5050505050905090565b61070e610c5b565b6107183382610da5565b50565b5f8180612710600560149054906101000a900461ffff1661ffff16836107419190611634565b61074b91906116a2565b1061078b576040517f08c379a000000000000000000000000000000000000000000000000000000000815260040161078290611742565b60405180910390fd5b6001612710600560149054906101000a900461ffff1661ffff16836107b09190611634565b6107ba91906116a2565b10156107fb576040517f08c379a00000000000000000000000000000000000000000000000000000000081526004016107f2906117d0565b60405180910390fd5b5f612710600560149054906101000a900461ffff1661ffff168561081f9190611634565b61082991906116a2565b90505f818561083891906117ee565b9050610845338783610aec565b5f8211156108a6576108573383610bdc565b3373ffffffffffffffffffffffffffffffffffffffff167fcc16f5dbb4873280815c1ee09dbd06736cffcc184412cf7a71a0fdb75d397ca58360405161089d91906113c7565b60405180910390a25b6001935050505092915050565b6108bb610c5b565b806113888161ffff161115610905576040517f08c379a00000000000000000000000000000000000000000000000000000000081526004016108fc9061186b565b60405180910390fd5b81600560146101000a81548161ffff021916908361ffff1602179055505050565b600560149054906101000a900461ffff1681565b5f60015f8473ffffffffffffffffffffffffffffffffffffffff1673ffffffffffffffffffffffffffffffffffffffff1681526020019081526020015f205f8373ffffffffffffffffffffffffffffffffffffffff1673ffffffffffffffffffffffffffffffffffffffff1681526020019081526020015f2054905092915050565b6109c4610c5b565b5f73ffffffffffffffffffffffffffffffffffffffff168173ffffffffffffffffffffffffffffffffffffffff1603610a34575f6040517f1e4fbdf7000000000000000000000000000000000000000000000000000000008152600401610a2b91906114c9565b60405180910390fd5b610a3d81610ce2565b50565b5f33905090565b610a548383836001610e24565b505050565b5f610a64848461093a565b90507fffffffffffffffffffffffffffffffffffffffffffffffffffffffffffffffff811015610ae65781811015610ad7578281836040517ffb8f41b2000000000000000000000000000000000000000000000000000000008152600401610ace93929190611889565b60405180910390fd5b610ae584848484035f610e24565b5b50505050565b5f73ffffffffffffffffffffffffffffffffffffffff168373ffffffffffffffffffffffffffffffffffffffff1603610b5c575f6040517f96c6fd1e000000000000000000000000000000000000000000000000000000008152600401610b5391906114c9565b60405180910390fd5b5f73ffffffffffffffffffffffffffffffffffffffff168273ffffffffffffffffffffffffffffffffffffffff1603610bcc575f6040517fec442f05000000000000000000000000000000000000000000000000000000008152600401610bc391906114c9565b60405180910390fd5b610bd7838383610ff3565b505050565b5f73ffffffffffffffffffffffffffffffffffffffff168273ffffffffffffffffffffffffffffffffffffffff1603610c4c575f6040517f96c6fd1e000000000000000000000000000000000000000000000000000000008152600401610c4391906114c9565b60405180910390fd5b610c57825f83610ff3565b5050565b610c63610a40565b73ffffffffffffffffffffffffffffffffffffffff16610c8161064e565b73ffffffffffffffffffffffffffffffffffffffff1614610ce057610ca4610a40565b6040517f118cdaa7000000000000000000000000000000000000000000000000000000008152600401610cd791906114c9565b60405180910390fd5b565b5f60055f9054906101000a900473ffffffffffffffffffffffffffffffffffffffff1690508160055f6101000a81548173ffffffffffffffffffffffffffffffffffffffff021916908373ffffffffffffffffffffffffffffffffffffffff1602179055508173ffffffffffffffffffffffffffffffffffffffff168173ffffffffffffffffffffffffffffffffffffffff167f8be0079c531659141344cd1fd0a4f28419497f9722a3daafe3b4186f6b6457e060405160405180910390a35050565b5f73ffffffffffffffffffffffffffffffffffffffff168273ffffffffffffffffffffffffffffffffffffffff1603610e15575f6040517fec442f05000000000000000000000000000000000000000000000000000000008152600401610e0c91906114c9565b60405180910390fd5b610e205f8383610ff3565b5050565b5f73ffffffffffffffffffffffffffffffffffffffff168473ffffffffffffffffffffffffffffffffffffffff1603610e94575f6040517fe602df05000000000000000000000000000000000000000000000000000000008152600401610e8b91906114c9565b60405180910390fd5b5f73ffffffffffffffffffffffffffffffffffffffff168373ffffffffffffffffffffffffffffffffffffffff1603610f04575f6040517f94280d62000000000000000000000000000000000000000000000000000000008152600401610efb91906114c9565b60405180910390fd5b8160015f8673ffffffffffffffffffffffffffffffffffffffff1673ffffffffffffffffffffffffffffffffffffffff1681526020019081526020015f205f8573ffffffffffffffffffffffffffffffffffffffff1673ffffffffffffffffffffffffffffffffffffffff1681526020019081526020015f20819055508015610fed578273ffffffffffffffffffffffffffffffffffffffff168473ffffffffffffffffffffffffffffffffffffffff167f8c5be1e5ebec7d5bd14f71427d1e84f3dd0314c0f7b2291e5b200ac8c7c3b92584604051610fe491906113c7565b60405180910390a35b50505050565b5f73ffffffffffffffffffffffffffffffffffffffff168373ffffffffffffffffffffffffffffffffffffffff1603611043578060025f82825461103791906118be565b92505081905550611111565b5f805f8573ffffffffffffffffffffffffffffffffffffffff1673ffffffffffffffffffffffffffffffffffffffff1681526020019081526020015f20549050818110156110cc578381836040517fe450d38c0000000000000000000000000000000000000000000000000000000081526004016110c393929190611889565b60405180910390fd5b8181035f808673ffffffffffffffffffffffffffffffffffffffff1673ffffffffffffffffffffffffffffffffffffffff1681526020019081526020015f2081905550505b5f73ffffffffffffffffffffffffffffffffffffffff168273ffffffffffffffffffffffffffffffffffffffff1603611158578060025f82825403925050819055506111a2565b805f808473ffffffffffffffffffffffffffffffffffffffff1673ffffffffffffffffffffffffffffffffffffffff1681526020019081526020015f205f82825401925050819055505b8173ffffffffffffffffffffffffffffffffffffffff168373ffffffffffffffffffffffffffffffffffffffff167fddf252ad1be2c89b69c2b068fc378daa952ba7f163c4a11628f55a4df523b3ef836040516111ff91906113c7565b60405180910390a3505050565b5f81519050919050565b5f82825260208201905092915050565b5f5b83811015611243578082015181840152602081019050611228565b5f8484015250505050565b5f601f19601f8301169050919050565b5f6112688261120c565b6112728185611216565b9350611282818560208601611226565b61128b8161124e565b840191505092915050565b5f6020820190508181035f8301526112ae818461125e565b905092915050565b5f80fd5b5f73ffffffffffffffffffffffffffffffffffffffff82169050919050565b5f6112e3826112ba565b9050919050565b6112f3816112d9565b81146112fd575f80fd5b50565b5f8135905061130e816112ea565b92915050565b5f819050919050565b61132681611314565b8114611330575f80fd5b50565b5f813590506113418161131d565b92915050565b5f806040838503121561135d5761135c6112b6565b5b5f61136a85828601611300565b925050602061137b85828601611333565b9150509250929050565b5f8115159050919050565b61139981611385565b82525050565b5f6020820190506113b25f830184611390565b92915050565b6113c181611314565b82525050565b5f6020820190506113da5f8301846113b8565b92915050565b5f805f606084860312156113f7576113f66112b6565b5b5f61140486828701611300565b935050602061141586828701611300565b925050604061142686828701611333565b9150509250925092565b5f60ff82169050919050565b61144581611430565b82525050565b5f60208201905061145e5f83018461143c565b92915050565b5f60208284031215611479576114786112b6565b5b5f61148684828501611333565b91505092915050565b5f602082840312156114a4576114a36112b6565b5b5f6114b184828501611300565b91505092915050565b6114c3816112d9565b82525050565b5f6020820190506114dc5f8301846114ba565b92915050565b5f61ffff82169050919050565b6114f8816114e2565b8114611502575f80fd5b50565b5f81359050611513816114ef565b92915050565b5f6020828403121561152e5761152d6112b6565b5b5f61153b84828501611505565b91505092915050565b61154d816114e2565b82525050565b5f6020820190506115665f830184611544565b92915050565b5f8060408385031215611582576115816112b6565b5b5f61158f85828601611300565b92505060206115a085828601611300565b9150509250929050565b7f4e487b71000000000000000000000000000000000000000000000000000000005f52602260045260245ffd5b5f60028204905060018216806115ee57607f821691505b602082108103611601576116006115aa565b5b50919050565b7f4e487b71000000000000000000000000000000000000000000000000000000005f52601160045260245ffd5b5f61163e82611314565b915061164983611314565b925082820261165781611314565b9150828204841483151761166e5761166d611607565b5b5092915050565b7f4e487b71000000000000000000000000000000000000000000000000000000005f52601260045260245ffd5b5f6116ac82611314565b91506116b783611314565b9250826116c7576116c6611675565b5b828204905092915050565b7f56616c756520646f6573206e6f7420636f76657220666565732e20456e7465725f8201527f20612068696768657220616d6f756e7400000000000000000000000000000000602082015250565b5f61172c603083611216565b9150611737826116d2565b604082019050919050565b5f6020820190508181035f83015261175981611720565b9050919050565b7f56616c75652063616e6e6f7420636f76657220616e7920666565732e20456e745f8201527f657220612068696768657220616d6f756e740000000000000000000000000000602082015250565b5f6117ba603283611216565b91506117c582611760565b604082019050919050565b5f6020820190508181035f8301526117e7816117ae565b9050919050565b5f6117f882611314565b915061180383611314565b925082820390508181111561181b5761181a611607565b5b92915050565b7f4275726e2072617465206d6173206265206c657373207468616e2035302500005f82015250565b5f611855601e83611216565b915061186082611821565b602082019050919050565b5f6020820190508181035f83015261188281611849565b9050919050565b5f60608201905061189c5f8301866114ba565b6118a960208301856113b8565b6118b660408301846113b8565b949350505050565b5f6118c882611314565b91506118d383611314565b92508282019050808211156118eb576118ea611607565b5b9291505056fea2646970667358221220e422f4f1b7c161b2d3706c2d56f3caf8d169cb758df30f760ab18fb45524426d64736f6c63430008180033",
					"opcodes": "PUSH1 0x80 PUSH1 0x40 MSTORE CALLVALUE DUP1 ISZERO PUSH3 0x10 JUMPI PUSH0 DUP1 REVERT JUMPDEST POP PUSH1 0x40 MLOAD PUSH3 0x246B CODESIZE SUB DUP1 PUSH3 0x246B DUP4 CODECOPY DUP2 DUP2 ADD PUSH1 0x40 MSTORE DUP2 ADD SWAP1 PUSH3 0x36 SWAP2 SWAP1 PUSH3 0x658 JUMP JUMPDEST CALLER DUP4 DUP4 DUP2 PUSH1 0x3 SWAP1 DUP2 PUSH3 0x4A SWAP2 SWAP1 PUSH3 0x926 JUMP JUMPDEST POP DUP1 PUSH1 0x4 SWAP1 DUP2 PUSH3 0x5C SWAP2 SWAP1 PUSH3 0x926 JUMP JUMPDEST POP POP POP PUSH0 PUSH20 0xFFFFFFFFFFFFFFFFFFFFFFFFFFFFFFFFFFFFFFFF AND DUP2 PUSH20 0xFFFFFFFFFFFFFFFFFFFFFFFFFFFFFFFFFFFFFFFF AND SUB PUSH3 0xD2 JUMPI PUSH0 PUSH1 0x40 MLOAD PUSH32 0x1E4FBDF700000000000000000000000000000000000000000000000000000000 DUP2 MSTORE PUSH1 0x4 ADD PUSH3 0xC9 SWAP2 SWAP1 PUSH3 0xA4D JUMP JUMPDEST PUSH1 0x40 MLOAD DUP1 SWAP2 SUB SWAP1 REVERT JUMPDEST PUSH3 0xE3 DUP2 PUSH3 0x126 PUSH1 0x20 SHL PUSH1 0x20 SHR JUMP JUMPDEST POP DUP1 PUSH1 0x5 PUSH1 0x14 PUSH2 0x100 EXP DUP2 SLOAD DUP2 PUSH2 0xFFFF MUL NOT AND SWAP1 DUP4 PUSH2 0xFFFF AND MUL OR SWAP1 SSTORE POP PUSH3 0x11D CALLER PUSH10 0xD3C21BCECCEDA1000000 PUSH3 0x1E9 PUSH1 0x20 SHL PUSH1 0x20 SHR JUMP JUMPDEST POP POP POP PUSH3 0xB36 JUMP JUMPDEST PUSH0 PUSH1 0x5 PUSH0 SWAP1 SLOAD SWAP1 PUSH2 0x100 EXP SWAP1 DIV PUSH20 0xFFFFFFFFFFFFFFFFFFFFFFFFFFFFFFFFFFFFFFFF AND SWAP1 POP DUP2 PUSH1 0x5 PUSH0 PUSH2 0x100 EXP DUP2 SLOAD DUP2 PUSH20 0xFFFFFFFFFFFFFFFFFFFFFFFFFFFFFFFFFFFFFFFF MUL NOT AND SWAP1 DUP4 PUSH20 0xFFFFFFFFFFFFFFFFFFFFFFFFFFFFFFFFFFFFFFFF AND MUL OR SWAP1 SSTORE POP DUP2 PUSH20 0xFFFFFFFFFFFFFFFFFFFFFFFFFFFFFFFFFFFFFFFF AND DUP2 PUSH20 0xFFFFFFFFFFFFFFFFFFFFFFFFFFFFFFFFFFFFFFFF AND PUSH32 0x8BE0079C531659141344CD1FD0A4F28419497F9722A3DAAFE3B4186F6B6457E0 PUSH1 0x40 MLOAD PUSH1 0x40 MLOAD DUP1 SWAP2 SUB SWAP1 LOG3 POP POP JUMP JUMPDEST PUSH0 PUSH20 0xFFFFFFFFFFFFFFFFFFFFFFFFFFFFFFFFFFFFFFFF AND DUP3 PUSH20 0xFFFFFFFFFFFFFFFFFFFFFFFFFFFFFFFFFFFFFFFF AND SUB PUSH3 0x25C JUMPI PUSH0 PUSH1 0x40 MLOAD PUSH32 0xEC442F0500000000000000000000000000000000000000000000000000000000 DUP2 MSTORE PUSH1 0x4 ADD PUSH3 0x253 SWAP2 SWAP1 PUSH3 0xA4D JUMP JUMPDEST PUSH1 0x40 MLOAD DUP1 SWAP2 SUB SWAP1 REVERT JUMPDEST PUSH3 0x26F PUSH0 DUP4 DUP4 PUSH3 0x273 PUSH1 0x20 SHL PUSH1 0x20 SHR JUMP JUMPDEST POP POP JUMP JUMPDEST PUSH0 PUSH20 0xFFFFFFFFFFFFFFFFFFFFFFFFFFFFFFFFFFFFFFFF AND DUP4 PUSH20 0xFFFFFFFFFFFFFFFFFFFFFFFFFFFFFFFFFFFFFFFF AND SUB PUSH3 0x2C7 JUMPI DUP1 PUSH1 0x2 PUSH0 DUP3 DUP3 SLOAD PUSH3 0x2BA SWAP2 SWAP1 PUSH3 0xA95 JUMP JUMPDEST SWAP3 POP POP DUP2 SWAP1 SSTORE POP PUSH3 0x398 JUMP JUMPDEST PUSH0 DUP1 PUSH0 DUP6 PUSH20 0xFFFFFFFFFFFFFFFFFFFFFFFFFFFFFFFFFFFFFFFF AND PUSH20 0xFFFFFFFFFFFFFFFFFFFFFFFFFFFFFFFFFFFFFFFF AND DUP2 MSTORE PUSH1 0x20 ADD SWAP1 DUP2 MSTORE PUSH1 0x20 ADD PUSH0 KECCAK256 SLOAD SWAP1 POP DUP2 DUP2 LT ISZERO PUSH3 0x353 JUMPI DUP4 DUP2 DUP4 PUSH1 0x40 MLOAD PUSH32 0xE450D38C00000000000000000000000000000000000000000000000000000000 DUP2 MSTORE PUSH1 0x4 ADD PUSH3 0x34A SWAP4 SWAP3 SWAP2 SWAP1 PUSH3 0xAE0 JUMP JUMPDEST PUSH1 0x40 MLOAD DUP1 SWAP2 SUB SWAP1 REVERT JUMPDEST DUP2 DUP2 SUB PUSH0 DUP1 DUP7 PUSH20 0xFFFFFFFFFFFFFFFFFFFFFFFFFFFFFFFFFFFFFFFF AND PUSH20 0xFFFFFFFFFFFFFFFFFFFFFFFFFFFFFFFFFFFFFFFF AND DUP2 MSTORE PUSH1 0x20 ADD SWAP1 DUP2 MSTORE PUSH1 0x20 ADD PUSH0 KECCAK256 DUP2 SWAP1 SSTORE POP POP JUMPDEST PUSH0 PUSH20 0xFFFFFFFFFFFFFFFFFFFFFFFFFFFFFFFFFFFFFFFF AND DUP3 PUSH20 0xFFFFFFFFFFFFFFFFFFFFFFFFFFFFFFFFFFFFFFFF AND SUB PUSH3 0x3E1 JUMPI DUP1 PUSH1 0x2 PUSH0 DUP3 DUP3 SLOAD SUB SWAP3 POP POP DUP2 SWAP1 SSTORE POP PUSH3 0x42B JUMP JUMPDEST DUP1 PUSH0 DUP1 DUP5 PUSH20 0xFFFFFFFFFFFFFFFFFFFFFFFFFFFFFFFFFFFFFFFF AND PUSH20 0xFFFFFFFFFFFFFFFFFFFFFFFFFFFFFFFFFFFFFFFF AND DUP2 MSTORE PUSH1 0x20 ADD SWAP1 DUP2 MSTORE PUSH1 0x20 ADD PUSH0 KECCAK256 PUSH0 DUP3 DUP3 SLOAD ADD SWAP3 POP POP DUP2 SWAP1 SSTORE POP JUMPDEST DUP2 PUSH20 0xFFFFFFFFFFFFFFFFFFFFFFFFFFFFFFFFFFFFFFFF AND DUP4 PUSH20 0xFFFFFFFFFFFFFFFFFFFFFFFFFFFFFFFFFFFFFFFF AND PUSH32 0xDDF252AD1BE2C89B69C2B068FC378DAA952BA7F163C4A11628F55A4DF523B3EF DUP4 PUSH1 0x40 MLOAD PUSH3 0x48A SWAP2 SWAP1 PUSH3 0xB1B JUMP JUMPDEST PUSH1 0x40 MLOAD DUP1 SWAP2 SUB SWAP1 LOG3 POP POP POP JUMP JUMPDEST PUSH0 PUSH1 0x40 MLOAD SWAP1 POP SWAP1 JUMP JUMPDEST PUSH0 DUP1 REVERT JUMPDEST PUSH0 DUP1 REVERT JUMPDEST PUSH0 DUP1 REVERT JUMPDEST PUSH0 DUP1 REVERT JUMPDEST PUSH0 PUSH1 0x1F NOT PUSH1 0x1F DUP4 ADD AND SWAP1 POP SWAP2 SWAP1 POP JUMP JUMPDEST PUSH32 0x4E487B7100000000000000000000000000000000000000000000000000000000 PUSH0 MSTORE PUSH1 0x41 PUSH1 0x4 MSTORE PUSH1 0x24 PUSH0 REVERT JUMPDEST PUSH3 0x4F8 DUP3 PUSH3 0x4B0 JUMP JUMPDEST DUP2 ADD DUP2 DUP2 LT PUSH8 0xFFFFFFFFFFFFFFFF DUP3 GT OR ISZERO PUSH3 0x51A JUMPI PUSH3 0x519 PUSH3 0x4C0 JUMP JUMPDEST JUMPDEST DUP1 PUSH1 0x40 MSTORE POP POP POP JUMP JUMPDEST PUSH0 PUSH3 0x52E PUSH3 0x497 JUMP JUMPDEST SWAP1 POP PUSH3 0x53C DUP3 DUP3 PUSH3 0x4ED JUMP JUMPDEST SWAP2 SWAP1 POP JUMP JUMPDEST PUSH0 PUSH8 0xFFFFFFFFFFFFFFFF DUP3 GT ISZERO PUSH3 0x55E JUMPI PUSH3 0x55D PUSH3 0x4C0 JUMP JUMPDEST JUMPDEST PUSH3 0x569 DUP3 PUSH3 0x4B0 JUMP JUMPDEST SWAP1 POP PUSH1 0x20 DUP2 ADD SWAP1 POP SWAP2 SWAP1 POP JUMP JUMPDEST PUSH0 JUMPDEST DUP4 DUP2 LT ISZERO PUSH3 0x595 JUMPI DUP1 DUP3 ADD MLOAD DUP2 DUP5 ADD MSTORE PUSH1 0x20 DUP2 ADD SWAP1 POP PUSH3 0x578 JUMP JUMPDEST PUSH0 DUP5 DUP5 ADD MSTORE POP POP POP POP JUMP JUMPDEST PUSH0 PUSH3 0x5B6 PUSH3 0x5B0 DUP5 PUSH3 0x541 JUMP JUMPDEST PUSH3 0x523 JUMP JUMPDEST SWAP1 POP DUP3 DUP2 MSTORE PUSH1 0x20 DUP2 ADD DUP5 DUP5 DUP5 ADD GT ISZERO PUSH3 0x5D5 JUMPI PUSH3 0x5D4 PUSH3 0x4AC JUMP JUMPDEST JUMPDEST PUSH3 0x5E2 DUP5 DUP3 DUP6 PUSH3 0x576 JUMP JUMPDEST POP SWAP4 SWAP3 POP POP POP JUMP JUMPDEST PUSH0 DUP3 PUSH1 0x1F DUP4 ADD SLT PUSH3 0x601 JUMPI PUSH3 0x600 PUSH3 0x4A8 JUMP JUMPDEST JUMPDEST DUP2 MLOAD PUSH3 0x613 DUP5 DUP3 PUSH1 0x20 DUP7 ADD PUSH3 0x5A0 JUMP JUMPDEST SWAP2 POP POP SWAP3 SWAP2 POP POP JUMP JUMPDEST PUSH0 PUSH2 0xFFFF DUP3 AND SWAP1 POP SWAP2 SWAP1 POP JUMP JUMPDEST PUSH3 0x634 DUP2 PUSH3 0x61C JUMP JUMPDEST DUP2 EQ PUSH3 0x63F JUMPI PUSH0 DUP1 REVERT JUMPDEST POP JUMP JUMPDEST PUSH0 DUP2 MLOAD SWAP1 POP PUSH3 0x652 DUP2 PUSH3 0x629 JUMP JUMPDEST SWAP3 SWAP2 POP POP JUMP JUMPDEST PUSH0 DUP1 PUSH0 PUSH1 0x60 DUP5 DUP7 SUB SLT ISZERO PUSH3 0x672 JUMPI PUSH3 0x671 PUSH3 0x4A0 JUMP JUMPDEST JUMPDEST PUSH0 DUP5 ADD MLOAD PUSH8 0xFFFFFFFFFFFFFFFF DUP2 GT ISZERO PUSH3 0x692 JUMPI PUSH3 0x691 PUSH3 0x4A4 JUMP JUMPDEST JUMPDEST PUSH3 0x6A0 DUP7 DUP3 DUP8 ADD PUSH3 0x5EA JUMP JUMPDEST SWAP4 POP POP PUSH1 0x20 DUP5 ADD MLOAD PUSH8 0xFFFFFFFFFFFFFFFF DUP2 GT ISZERO PUSH3 0x6C4 JUMPI PUSH3 0x6C3 PUSH3 0x4A4 JUMP JUMPDEST JUMPDEST PUSH3 0x6D2 DUP7 DUP3 DUP8 ADD PUSH3 0x5EA JUMP JUMPDEST SWAP3 POP POP PUSH1 0x40 PUSH3 0x6E5 DUP7 DUP3 DUP8 ADD PUSH3 0x642 JUMP JUMPDEST SWAP2 POP POP SWAP3 POP SWAP3 POP SWAP3 JUMP JUMPDEST PUSH0 DUP2 MLOAD SWAP1 POP SWAP2 SWAP1 POP JUMP JUMPDEST PUSH32 0x4E487B7100000000000000000000000000000000000000000000000000000000 PUSH0 MSTORE PUSH1 0x22 PUSH1 0x4 MSTORE PUSH1 0x24 PUSH0 REVERT JUMPDEST PUSH0 PUSH1 0x2 DUP3 DIV SWAP1 POP PUSH1 0x1 DUP3 AND DUP1 PUSH3 0x73E JUMPI PUSH1 0x7F DUP3 AND SWAP2 POP JUMPDEST PUSH1 0x20 DUP3 LT DUP2 SUB PUSH3 0x754 JUMPI PUSH3 0x753 PUSH3 0x6F9 JUMP JUMPDEST JUMPDEST POP SWAP2 SWAP1 POP JUMP JUMPDEST PUSH0 DUP2 SWAP1 POP DUP2 PUSH0 MSTORE PUSH1 0x20 PUSH0 KECCAK256 SWAP1 POP SWAP2 SWAP1 POP JUMP JUMPDEST PUSH0 PUSH1 0x20 PUSH1 0x1F DUP4 ADD DIV SWAP1 POP SWAP2 SWAP1 POP JUMP JUMPDEST PUSH0 DUP3 DUP3 SHL SWAP1 POP SWAP3 SWAP2 POP POP JUMP JUMPDEST PUSH0 PUSH1 0x8 DUP4 MUL PUSH3 0x7B8 PUSH32 0xFFFFFFFFFFFFFFFFFFFFFFFFFFFFFFFFFFFFFFFFFFFFFFFFFFFFFFFFFFFFFFFF DUP3 PUSH3 0x77B JUMP JUMPDEST PUSH3 0x7C4 DUP7 DUP4 PUSH3 0x77B JUMP JUMPDEST SWAP6 POP DUP1 NOT DUP5 AND SWAP4 POP DUP1 DUP7 AND DUP5 OR SWAP3 POP POP POP SWAP4 SWAP3 POP POP POP JUMP JUMPDEST PUSH0 DUP2 SWAP1 POP SWAP2 SWAP1 POP JUMP JUMPDEST PUSH0 DUP2 SWAP1 POP SWAP2 SWAP1 POP JUMP JUMPDEST PUSH0 PUSH3 0x80E PUSH3 0x808 PUSH3 0x802 DUP5 PUSH3 0x7DC JUMP JUMPDEST PUSH3 0x7E5 JUMP JUMPDEST PUSH3 0x7DC JUMP JUMPDEST SWAP1 POP SWAP2 SWAP1 POP JUMP JUMPDEST PUSH0 DUP2 SWAP1 POP SWAP2 SWAP1 POP JUMP JUMPDEST PUSH3 0x829 DUP4 PUSH3 0x7EE JUMP JUMPDEST PUSH3 0x841 PUSH3 0x838 DUP3 PUSH3 0x815 JUMP JUMPDEST DUP5 DUP5 SLOAD PUSH3 0x787 JUMP JUMPDEST DUP3 SSTORE POP POP POP POP JUMP JUMPDEST PUSH0 SWAP1 JUMP JUMPDEST PUSH3 0x857 PUSH3 0x849 JUMP JUMPDEST PUSH3 0x864 DUP2 DUP5 DUP5 PUSH3 0x81E JUMP JUMPDEST POP POP POP JUMP JUMPDEST JUMPDEST DUP2 DUP2 LT ISZERO PUSH3 0x88B JUMPI PUSH3 0x87F PUSH0 DUP3 PUSH3 0x84D JUMP JUMPDEST PUSH1 0x1 DUP2 ADD SWAP1 POP PUSH3 0x86A JUMP JUMPDEST POP POP JUMP JUMPDEST PUSH1 0x1F DUP3 GT ISZERO PUSH3 0x8DA JUMPI PUSH3 0x8A4 DUP2 PUSH3 0x75A JUMP JUMPDEST PUSH3 0x8AF DUP5 PUSH3 0x76C JUMP JUMPDEST DUP2 ADD PUSH1 0x20 DUP6 LT ISZERO PUSH3 0x8BF JUMPI DUP2 SWAP1 POP JUMPDEST PUSH3 0x8D7 PUSH3 0x8CE DUP6 PUSH3 0x76C JUMP JUMPDEST DUP4 ADD DUP3 PUSH3 0x869 JUMP JUMPDEST POP POP JUMPDEST POP POP POP JUMP JUMPDEST PUSH0 DUP3 DUP3 SHR SWAP1 POP SWAP3 SWAP2 POP POP JUMP JUMPDEST PUSH0 PUSH3 0x8FC PUSH0 NOT DUP5 PUSH1 0x8 MUL PUSH3 0x8DF JUMP JUMPDEST NOT DUP1 DUP4 AND SWAP2 POP POP SWAP3 SWAP2 POP POP JUMP JUMPDEST PUSH0 PUSH3 0x916 DUP4 DUP4 PUSH3 0x8EB JUMP JUMPDEST SWAP2 POP DUP3 PUSH1 0x2 MUL DUP3 OR SWAP1 POP SWAP3 SWAP2 POP POP JUMP JUMPDEST PUSH3 0x931 DUP3 PUSH3 0x6EF JUMP JUMPDEST PUSH8 0xFFFFFFFFFFFFFFFF DUP2 GT ISZERO PUSH3 0x94D JUMPI PUSH3 0x94C PUSH3 0x4C0 JUMP JUMPDEST JUMPDEST PUSH3 0x959 DUP3 SLOAD PUSH3 0x726 JUMP JUMPDEST PUSH3 0x966 DUP3 DUP3 DUP6 PUSH3 0x88F JUMP JUMPDEST PUSH0 PUSH1 0x20 SWAP1 POP PUSH1 0x1F DUP4 GT PUSH1 0x1 DUP2 EQ PUSH3 0x99C JUMPI PUSH0 DUP5 ISZERO PUSH3 0x987 JUMPI DUP3 DUP8 ADD MLOAD SWAP1 POP JUMPDEST PUSH3 0x993 DUP6 DUP3 PUSH3 0x909 JUMP JUMPDEST DUP7 SSTORE POP PUSH3 0xA02 JUMP JUMPDEST PUSH1 0x1F NOT DUP5 AND PUSH3 0x9AC DUP7 PUSH3 0x75A JUMP JUMPDEST PUSH0 JUMPDEST DUP3 DUP2 LT ISZERO PUSH3 0x9D5 JUMPI DUP5 DUP10 ADD MLOAD DUP3 SSTORE PUSH1 0x1 DUP3 ADD SWAP2 POP PUSH1 0x20 DUP6 ADD SWAP5 POP PUSH1 0x20 DUP2 ADD SWAP1 POP PUSH3 0x9AE JUMP JUMPDEST DUP7 DUP4 LT ISZERO PUSH3 0x9F5 JUMPI DUP5 DUP10 ADD MLOAD PUSH3 0x9F1 PUSH1 0x1F DUP10 AND DUP3 PUSH3 0x8EB JUMP JUMPDEST DUP4 SSTORE POP JUMPDEST PUSH1 0x1 PUSH1 0x2 DUP9 MUL ADD DUP9 SSTORE POP POP POP JUMPDEST POP POP POP POP POP POP JUMP JUMPDEST PUSH0 PUSH20 0xFFFFFFFFFFFFFFFFFFFFFFFFFFFFFFFFFFFFFFFF DUP3 AND SWAP1 POP SWAP2 SWAP1 POP JUMP JUMPDEST PUSH0 PUSH3 0xA35 DUP3 PUSH3 0xA0A JUMP JUMPDEST SWAP1 POP SWAP2 SWAP1 POP JUMP JUMPDEST PUSH3 0xA47 DUP2 PUSH3 0xA29 JUMP JUMPDEST DUP3 MSTORE POP POP JUMP JUMPDEST PUSH0 PUSH1 0x20 DUP3 ADD SWAP1 POP PUSH3 0xA62 PUSH0 DUP4 ADD DUP5 PUSH3 0xA3C JUMP JUMPDEST SWAP3 SWAP2 POP POP JUMP JUMPDEST PUSH32 0x4E487B7100000000000000000000000000000000000000000000000000000000 PUSH0 MSTORE PUSH1 0x11 PUSH1 0x4 MSTORE PUSH1 0x24 PUSH0 REVERT JUMPDEST PUSH0 PUSH3 0xAA1 DUP3 PUSH3 0x7DC JUMP JUMPDEST SWAP2 POP PUSH3 0xAAE DUP4 PUSH3 0x7DC JUMP JUMPDEST SWAP3 POP DUP3 DUP3 ADD SWAP1 POP DUP1 DUP3 GT ISZERO PUSH3 0xAC9 JUMPI PUSH3 0xAC8 PUSH3 0xA68 JUMP JUMPDEST JUMPDEST SWAP3 SWAP2 POP POP JUMP JUMPDEST PUSH3 0xADA DUP2 PUSH3 0x7DC JUMP JUMPDEST DUP3 MSTORE POP POP JUMP JUMPDEST PUSH0 PUSH1 0x60 DUP3 ADD SWAP1 POP PUSH3 0xAF5 PUSH0 DUP4 ADD DUP7 PUSH3 0xA3C JUMP JUMPDEST PUSH3 0xB04 PUSH1 0x20 DUP4 ADD DUP6 PUSH3 0xACF JUMP JUMPDEST PUSH3 0xB13 PUSH1 0x40 DUP4 ADD DUP5 PUSH3 0xACF JUMP JUMPDEST SWAP5 SWAP4 POP POP POP POP JUMP JUMPDEST PUSH0 PUSH1 0x20 DUP3 ADD SWAP1 POP PUSH3 0xB30 PUSH0 DUP4 ADD DUP5 PUSH3 0xACF JUMP JUMPDEST SWAP3 SWAP2 POP POP JUMP JUMPDEST PUSH2 0x1927 DUP1 PUSH3 0xB44 PUSH0 CODECOPY PUSH0 RETURN INVALID PUSH1 0x80 PUSH1 0x40 MSTORE CALLVALUE DUP1 ISZERO PUSH2 0xF JUMPI PUSH0 DUP1 REVERT JUMPDEST POP PUSH1 0x4 CALLDATASIZE LT PUSH2 0xFE JUMPI PUSH0 CALLDATALOAD PUSH1 0xE0 SHR DUP1 PUSH4 0x8DA5CB5B GT PUSH2 0x95 JUMPI DUP1 PUSH4 0xB4969B96 GT PUSH2 0x64 JUMPI DUP1 PUSH4 0xB4969B96 EQ PUSH2 0x29A JUMPI DUP1 PUSH4 0xBED99850 EQ PUSH2 0x2B6 JUMPI DUP1 PUSH4 0xDD62ED3E EQ PUSH2 0x2D4 JUMPI DUP1 PUSH4 0xF2FDE38B EQ PUSH2 0x304 JUMPI PUSH2 0xFE JUMP JUMPDEST DUP1 PUSH4 0x8DA5CB5B EQ PUSH2 0x212 JUMPI DUP1 PUSH4 0x95D89B41 EQ PUSH2 0x230 JUMPI DUP1 PUSH4 0xA0712D68 EQ PUSH2 0x24E JUMPI DUP1 PUSH4 0xA9059CBB EQ PUSH2 0x26A JUMPI PUSH2 0xFE JUMP JUMPDEST DUP1 PUSH4 0x313CE567 GT PUSH2 0xD1 JUMPI DUP1 PUSH4 0x313CE567 EQ PUSH2 0x19E JUMPI DUP1 PUSH4 0x42966C68 EQ PUSH2 0x1BC JUMPI DUP1 PUSH4 0x70A08231 EQ PUSH2 0x1D8 JUMPI DUP1 PUSH4 0x715018A6 EQ PUSH2 0x208 JUMPI PUSH2 0xFE JUMP JUMPDEST DUP1 PUSH4 0x6FDDE03 EQ PUSH2 0x102 JUMPI DUP1 PUSH4 0x95EA7B3 EQ PUSH2 0x120 JUMPI DUP1 PUSH4 0x18160DDD EQ PUSH2 0x150 JUMPI DUP1 PUSH4 0x23B872DD EQ PUSH2 0x16E JUMPI JUMPDEST PUSH0 DUP1 REVERT JUMPDEST PUSH2 0x10A PUSH2 0x320 JUMP JUMPDEST PUSH1 0x40 MLOAD PUSH2 0x117 SWAP2 SWAP1 PUSH2 0x1296 JUMP JUMPDEST PUSH1 0x40 MLOAD DUP1 SWAP2 SUB SWAP1 RETURN JUMPDEST PUSH2 0x13A PUSH1 0x4 DUP1 CALLDATASIZE SUB DUP2 ADD SWAP1 PUSH2 0x135 SWAP2 SWAP1 PUSH2 0x1347 JUMP JUMPDEST PUSH2 0x3B0 JUMP JUMPDEST PUSH1 0x40 MLOAD PUSH2 0x147 SWAP2 SWAP1 PUSH2 0x139F JUMP JUMPDEST PUSH1 0x40 MLOAD DUP1 SWAP2 SUB SWAP1 RETURN JUMPDEST PUSH2 0x158 PUSH2 0x3D2 JUMP JUMPDEST PUSH1 0x40 MLOAD PUSH2 0x165 SWAP2 SWAP1 PUSH2 0x13C7 JUMP JUMPDEST PUSH1 0x40 MLOAD DUP1 SWAP2 SUB SWAP1 RETURN JUMPDEST PUSH2 0x188 PUSH1 0x4 DUP1 CALLDATASIZE SUB DUP2 ADD SWAP1 PUSH2 0x183 SWAP2 SWAP1 PUSH2 0x13E0 JUMP JUMPDEST PUSH2 0x3DB JUMP JUMPDEST PUSH1 0x40 MLOAD PUSH2 0x195 SWAP2 SWAP1 PUSH2 0x139F JUMP JUMPDEST PUSH1 0x40 MLOAD DUP1 SWAP2 SUB SWAP1 RETURN JUMPDEST PUSH2 0x1A6 PUSH2 0x58B JUMP JUMPDEST PUSH1 0x40 MLOAD PUSH2 0x1B3 SWAP2 SWAP1 PUSH2 0x144B JUMP JUMPDEST PUSH1 0x40 MLOAD DUP1 SWAP2 SUB SWAP1 RETURN JUMPDEST PUSH2 0x1D6 PUSH1 0x4 DUP1 CALLDATASIZE SUB DUP2 ADD SWAP1 PUSH2 0x1D1 SWAP2 SWAP1 PUSH2 0x1464 JUMP JUMPDEST PUSH2 0x593 JUMP JUMPDEST STOP JUMPDEST PUSH2 0x1F2 PUSH1 0x4 DUP1 CALLDATASIZE SUB DUP2 ADD SWAP1 PUSH2 0x1ED SWAP2 SWAP1 PUSH2 0x148F JUMP JUMPDEST PUSH2 0x5F6 JUMP JUMPDEST PUSH1 0x40 MLOAD PUSH2 0x1FF SWAP2 SWAP1 PUSH2 0x13C7 JUMP JUMPDEST PUSH1 0x40 MLOAD DUP1 SWAP2 SUB SWAP1 RETURN JUMPDEST PUSH2 0x210 PUSH2 0x63B JUMP JUMPDEST STOP JUMPDEST PUSH2 0x21A PUSH2 0x64E JUMP JUMPDEST PUSH1 0x40 MLOAD PUSH2 0x227 SWAP2 SWAP1 PUSH2 0x14C9 JUMP JUMPDEST PUSH1 0x40 MLOAD DUP1 SWAP2 SUB SWAP1 RETURN JUMPDEST PUSH2 0x238 PUSH2 0x676 JUMP JUMPDEST PUSH1 0x40 MLOAD PUSH2 0x245 SWAP2 SWAP1 PUSH2 0x1296 JUMP JUMPDEST PUSH1 0x40 MLOAD DUP1 SWAP2 SUB SWAP1 RETURN JUMPDEST PUSH2 0x268 PUSH1 0x4 DUP1 CALLDATASIZE SUB DUP2 ADD SWAP1 PUSH2 0x263 SWAP2 SWAP1 PUSH2 0x1464 JUMP JUMPDEST PUSH2 0x706 JUMP JUMPDEST STOP JUMPDEST PUSH2 0x284 PUSH1 0x4 DUP1 CALLDATASIZE SUB DUP2 ADD SWAP1 PUSH2 0x27F SWAP2 SWAP1 PUSH2 0x1347 JUMP JUMPDEST PUSH2 0x71B JUMP JUMPDEST PUSH1 0x40 MLOAD PUSH2 0x291 SWAP2 SWAP1 PUSH2 0x139F JUMP JUMPDEST PUSH1 0x40 MLOAD DUP1 SWAP2 SUB SWAP1 RETURN JUMPDEST PUSH2 0x2B4 PUSH1 0x4 DUP1 CALLDATASIZE SUB DUP2 ADD SWAP1 PUSH2 0x2AF SWAP2 SWAP1 PUSH2 0x1519 JUMP JUMPDEST PUSH2 0x8B3 JUMP JUMPDEST STOP JUMPDEST PUSH2 0x2BE PUSH2 0x926 JUMP JUMPDEST PUSH1 0x40 MLOAD PUSH2 0x2CB SWAP2 SWAP1 PUSH2 0x1553 JUMP JUMPDEST PUSH1 0x40 MLOAD DUP1 SWAP2 SUB SWAP1 RETURN JUMPDEST PUSH2 0x2EE PUSH1 0x4 DUP1 CALLDATASIZE SUB DUP2 ADD SWAP1 PUSH2 0x2E9 SWAP2 SWAP1 PUSH2 0x156C JUMP JUMPDEST PUSH2 0x93A JUMP JUMPDEST PUSH1 0x40 MLOAD PUSH2 0x2FB SWAP2 SWAP1 PUSH2 0x13C7 JUMP JUMPDEST PUSH1 0x40 MLOAD DUP1 SWAP2 SUB SWAP1 RETURN JUMPDEST PUSH2 0x31E PUSH1 0x4 DUP1 CALLDATASIZE SUB DUP2 ADD SWAP1 PUSH2 0x319 SWAP2 SWAP1 PUSH2 0x148F JUMP JUMPDEST PUSH2 0x9BC JUMP JUMPDEST STOP JUMPDEST PUSH1 0x60 PUSH1 0x3 DUP1 SLOAD PUSH2 0x32F SWAP1 PUSH2 0x15D7 JUMP JUMPDEST DUP1 PUSH1 0x1F ADD PUSH1 0x20 DUP1 SWAP2 DIV MUL PUSH1 0x20 ADD PUSH1 0x40 MLOAD SWAP1 DUP2 ADD PUSH1 0x40 MSTORE DUP1 SWAP3 SWAP2 SWAP1 DUP2 DUP2 MSTORE PUSH1 0x20 ADD DUP3 DUP1 SLOAD PUSH2 0x35B SWAP1 PUSH2 0x15D7 JUMP JUMPDEST DUP1 ISZERO PUSH2 0x3A6 JUMPI DUP1 PUSH1 0x1F LT PUSH2 0x37D JUMPI PUSH2 0x100 DUP1 DUP4 SLOAD DIV MUL DUP4 MSTORE SWAP2 PUSH1 0x20 ADD SWAP2 PUSH2 0x3A6 JUMP JUMPDEST DUP3 ADD SWAP2 SWAP1 PUSH0 MSTORE PUSH1 0x20 PUSH0 KECCAK256 SWAP1 JUMPDEST DUP2 SLOAD DUP2 MSTORE SWAP1 PUSH1 0x1 ADD SWAP1 PUSH1 0x20 ADD DUP1 DUP4 GT PUSH2 0x389 JUMPI DUP3 SWAP1 SUB PUSH1 0x1F AND DUP3 ADD SWAP2 JUMPDEST POP POP POP POP POP SWAP1 POP SWAP1 JUMP JUMPDEST PUSH0 DUP1 PUSH2 0x3BA PUSH2 0xA40 JUMP JUMPDEST SWAP1 POP PUSH2 0x3C7 DUP2 DUP6 DUP6 PUSH2 0xA47 JUMP JUMPDEST PUSH1 0x1 SWAP2 POP POP SWAP3 SWAP2 POP POP JUMP JUMPDEST PUSH0 PUSH1 0x2 SLOAD SWAP1 POP SWAP1 JUMP JUMPDEST PUSH0 DUP2 DUP1 PUSH2 0x2710 PUSH1 0x5 PUSH1 0x14 SWAP1 SLOAD SWAP1 PUSH2 0x100 EXP SWAP1 DIV PUSH2 0xFFFF AND PUSH2 0xFFFF AND DUP4 PUSH2 0x401 SWAP2 SWAP1 PUSH2 0x1634 JUMP JUMPDEST PUSH2 0x40B SWAP2 SWAP1 PUSH2 0x16A2 JUMP JUMPDEST LT PUSH2 0x44B JUMPI PUSH1 0x40 MLOAD PUSH32 0x8C379A000000000000000000000000000000000000000000000000000000000 DUP2 MSTORE PUSH1 0x4 ADD PUSH2 0x442 SWAP1 PUSH2 0x1742 JUMP JUMPDEST PUSH1 0x40 MLOAD DUP1 SWAP2 SUB SWAP1 REVERT JUMPDEST PUSH1 0x1 PUSH2 0x2710 PUSH1 0x5 PUSH1 0x14 SWAP1 SLOAD SWAP1 PUSH2 0x100 EXP SWAP1 DIV PUSH2 0xFFFF AND PUSH2 0xFFFF AND DUP4 PUSH2 0x470 SWAP2 SWAP1 PUSH2 0x1634 JUMP JUMPDEST PUSH2 0x47A SWAP2 SWAP1 PUSH2 0x16A2 JUMP JUMPDEST LT ISZERO PUSH2 0x4BB JUMPI PUSH1 0x40 MLOAD PUSH32 0x8C379A000000000000000000000000000000000000000000000000000000000 DUP2 MSTORE PUSH1 0x4 ADD PUSH2 0x4B2 SWAP1 PUSH2 0x17D0 JUMP JUMPDEST PUSH1 0x40 MLOAD DUP1 SWAP2 SUB SWAP1 REVERT JUMPDEST PUSH0 PUSH2 0x2710 PUSH1 0x5 PUSH1 0x14 SWAP1 SLOAD SWAP1 PUSH2 0x100 EXP SWAP1 DIV PUSH2 0xFFFF AND PUSH2 0xFFFF AND DUP6 PUSH2 0x4DF SWAP2 SWAP1 PUSH2 0x1634 JUMP JUMPDEST PUSH2 0x4E9 SWAP2 SWAP1 PUSH2 0x16A2 JUMP JUMPDEST SWAP1 POP PUSH0 DUP2 DUP6 PUSH2 0x4F8 SWAP2 SWAP1 PUSH2 0x17EE JUMP JUMPDEST SWAP1 POP PUSH0 PUSH2 0x503 PUSH2 0xA40 JUMP JUMPDEST SWAP1 POP PUSH2 0x510 DUP9 DUP3 DUP9 PUSH2 0xA59 JUMP JUMPDEST PUSH2 0x51B DUP9 DUP9 DUP5 PUSH2 0xAEC JUMP JUMPDEST PUSH0 DUP4 GT ISZERO PUSH2 0x57C JUMPI PUSH2 0x52D DUP9 DUP5 PUSH2 0xBDC JUMP JUMPDEST DUP8 PUSH20 0xFFFFFFFFFFFFFFFFFFFFFFFFFFFFFFFFFFFFFFFF AND PUSH32 0xCC16F5DBB4873280815C1EE09DBD06736CFFCC184412CF7A71A0FDB75D397CA5 DUP5 PUSH1 0x40 MLOAD PUSH2 0x573 SWAP2 SWAP1 PUSH2 0x13C7 JUMP JUMPDEST PUSH1 0x40 MLOAD DUP1 SWAP2 SUB SWAP1 LOG2 JUMPDEST PUSH1 0x1 SWAP5 POP POP POP POP POP SWAP4 SWAP3 POP POP POP JUMP JUMPDEST PUSH0 PUSH1 0x12 SWAP1 POP SWAP1 JUMP JUMPDEST PUSH2 0x59B PUSH2 0xC5B JUMP JUMPDEST PUSH2 0x5A5 CALLER DUP3 PUSH2 0xBDC JUMP JUMPDEST CALLER PUSH20 0xFFFFFFFFFFFFFFFFFFFFFFFFFFFFFFFFFFFFFFFF AND PUSH32 0xCC16F5DBB4873280815C1EE09DBD06736CFFCC184412CF7A71A0FDB75D397CA5 DUP3 PUSH1 0x40 MLOAD PUSH2 0x5EB SWAP2 SWAP1 PUSH2 0x13C7 JUMP JUMPDEST PUSH1 0x40 MLOAD DUP1 SWAP2 SUB SWAP1 LOG2 POP JUMP JUMPDEST PUSH0 DUP1 PUSH0 DUP4 PUSH20 0xFFFFFFFFFFFFFFFFFFFFFFFFFFFFFFFFFFFFFFFF AND PUSH20 0xFFFFFFFFFFFFFFFFFFFFFFFFFFFFFFFFFFFFFFFF AND DUP2 MSTORE PUSH1 0x20 ADD SWAP1 DUP2 MSTORE PUSH1 0x20 ADD PUSH0 KECCAK256 SLOAD SWAP1 POP SWAP2 SWAP1 POP JUMP JUMPDEST PUSH2 0x643 PUSH2 0xC5B JUMP JUMPDEST PUSH2 0x64C PUSH0 PUSH2 0xCE2 JUMP JUMPDEST JUMP JUMPDEST PUSH0 PUSH1 0x5 PUSH0 SWAP1 SLOAD SWAP1 PUSH2 0x100 EXP SWAP1 DIV PUSH20 0xFFFFFFFFFFFFFFFFFFFFFFFFFFFFFFFFFFFFFFFF AND SWAP1 POP SWAP1 JUMP JUMPDEST PUSH1 0x60 PUSH1 0x4 DUP1 SLOAD PUSH2 0x685 SWAP1 PUSH2 0x15D7 JUMP JUMPDEST DUP1 PUSH1 0x1F ADD PUSH1 0x20 DUP1 SWAP2 DIV MUL PUSH1 0x20 ADD PUSH1 0x40 MLOAD SWAP1 DUP2 ADD PUSH1 0x40 MSTORE DUP1 SWAP3 SWAP2 SWAP1 DUP2 DUP2 MSTORE PUSH1 0x20 ADD DUP3 DUP1 SLOAD PUSH2 0x6B1 SWAP1 PUSH2 0x15D7 JUMP JUMPDEST DUP1 ISZERO PUSH2 0x6FC JUMPI DUP1 PUSH1 0x1F LT PUSH2 0x6D3 JUMPI PUSH2 0x100 DUP1 DUP4 SLOAD DIV MUL DUP4 MSTORE SWAP2 PUSH1 0x20 ADD SWAP2 PUSH2 0x6FC JUMP JUMPDEST DUP3 ADD SWAP2 SWAP1 PUSH0 MSTORE PUSH1 0x20 PUSH0 KECCAK256 SWAP1 JUMPDEST DUP2 SLOAD DUP2 MSTORE SWAP1 PUSH1 0x1 ADD SWAP1 PUSH1 0x20 ADD DUP1 DUP4 GT PUSH2 0x6DF JUMPI DUP3 SWAP1 SUB PUSH1 0x1F AND DUP3 ADD SWAP2 JUMPDEST POP POP POP POP POP SWAP1 POP SWAP1 JUMP JUMPDEST PUSH2 0x70E PUSH2 0xC5B JUMP JUMPDEST PUSH2 0x718 CALLER DUP3 PUSH2 0xDA5 JUMP JUMPDEST POP JUMP JUMPDEST PUSH0 DUP2 DUP1 PUSH2 0x2710 PUSH1 0x5 PUSH1 0x14 SWAP1 SLOAD SWAP1 PUSH2 0x100 EXP SWAP1 DIV PUSH2 0xFFFF AND PUSH2 0xFFFF AND DUP4 PUSH2 0x741 SWAP2 SWAP1 PUSH2 0x1634 JUMP JUMPDEST PUSH2 0x74B SWAP2 SWAP1 PUSH2 0x16A2 JUMP JUMPDEST LT PUSH2 0x78B JUMPI PUSH1 0x40 MLOAD PUSH32 0x8C379A000000000000000000000000000000000000000000000000000000000 DUP2 MSTORE PUSH1 0x4 ADD PUSH2 0x782 SWAP1 PUSH2 0x1742 JUMP JUMPDEST PUSH1 0x40 MLOAD DUP1 SWAP2 SUB SWAP1 REVERT JUMPDEST PUSH1 0x1 PUSH2 0x2710 PUSH1 0x5 PUSH1 0x14 SWAP1 SLOAD SWAP1 PUSH2 0x100 EXP SWAP1 DIV PUSH2 0xFFFF AND PUSH2 0xFFFF AND DUP4 PUSH2 0x7B0 SWAP2 SWAP1 PUSH2 0x1634 JUMP JUMPDEST PUSH2 0x7BA SWAP2 SWAP1 PUSH2 0x16A2 JUMP JUMPDEST LT ISZERO PUSH2 0x7FB JUMPI PUSH1 0x40 MLOAD PUSH32 0x8C379A000000000000000000000000000000000000000000000000000000000 DUP2 MSTORE PUSH1 0x4 ADD PUSH2 0x7F2 SWAP1 PUSH2 0x17D0 JUMP JUMPDEST PUSH1 0x40 MLOAD DUP1 SWAP2 SUB SWAP1 REVERT JUMPDEST PUSH0 PUSH2 0x2710 PUSH1 0x5 PUSH1 0x14 SWAP1 SLOAD SWAP1 PUSH2 0x100 EXP SWAP1 DIV PUSH2 0xFFFF AND PUSH2 0xFFFF AND DUP6 PUSH2 0x81F SWAP2 SWAP1 PUSH2 0x1634 JUMP JUMPDEST PUSH2 0x829 SWAP2 SWAP1 PUSH2 0x16A2 JUMP JUMPDEST SWAP1 POP PUSH0 DUP2 DUP6 PUSH2 0x838 SWAP2 SWAP1 PUSH2 0x17EE JUMP JUMPDEST SWAP1 POP PUSH2 0x845 CALLER DUP8 DUP4 PUSH2 0xAEC JUMP JUMPDEST PUSH0 DUP3 GT ISZERO PUSH2 0x8A6 JUMPI PUSH2 0x857 CALLER DUP4 PUSH2 0xBDC JUMP JUMPDEST CALLER PUSH20 0xFFFFFFFFFFFFFFFFFFFFFFFFFFFFFFFFFFFFFFFF AND PUSH32 0xCC16F5DBB4873280815C1EE09DBD06736CFFCC184412CF7A71A0FDB75D397CA5 DUP4 PUSH1 0x40 MLOAD PUSH2 0x89D SWAP2 SWAP1 PUSH2 0x13C7 JUMP JUMPDEST PUSH1 0x40 MLOAD DUP1 SWAP2 SUB SWAP1 LOG2 JUMPDEST PUSH1 0x1 SWAP4 POP POP POP POP SWAP3 SWAP2 POP POP JUMP JUMPDEST PUSH2 0x8BB PUSH2 0xC5B JUMP JUMPDEST DUP1 PUSH2 0x1388 DUP2 PUSH2 0xFFFF AND GT ISZERO PUSH2 0x905 JUMPI PUSH1 0x40 MLOAD PUSH32 0x8C379A000000000000000000000000000000000000000000000000000000000 DUP2 MSTORE PUSH1 0x4 ADD PUSH2 0x8FC SWAP1 PUSH2 0x186B JUMP JUMPDEST PUSH1 0x40 MLOAD DUP1 SWAP2 SUB SWAP1 REVERT JUMPDEST DUP2 PUSH1 0x5 PUSH1 0x14 PUSH2 0x100 EXP DUP2 SLOAD DUP2 PUSH2 0xFFFF MUL NOT AND SWAP1 DUP4 PUSH2 0xFFFF AND MUL OR SWAP1 SSTORE POP POP POP JUMP JUMPDEST PUSH1 0x5 PUSH1 0x14 SWAP1 SLOAD SWAP1 PUSH2 0x100 EXP SWAP1 DIV PUSH2 0xFFFF AND DUP2 JUMP JUMPDEST PUSH0 PUSH1 0x1 PUSH0 DUP5 PUSH20 0xFFFFFFFFFFFFFFFFFFFFFFFFFFFFFFFFFFFFFFFF AND PUSH20 0xFFFFFFFFFFFFFFFFFFFFFFFFFFFFFFFFFFFFFFFF AND DUP2 MSTORE PUSH1 0x20 ADD SWAP1 DUP2 MSTORE PUSH1 0x20 ADD PUSH0 KECCAK256 PUSH0 DUP4 PUSH20 0xFFFFFFFFFFFFFFFFFFFFFFFFFFFFFFFFFFFFFFFF AND PUSH20 0xFFFFFFFFFFFFFFFFFFFFFFFFFFFFFFFFFFFFFFFF AND DUP2 MSTORE PUSH1 0x20 ADD SWAP1 DUP2 MSTORE PUSH1 0x20 ADD PUSH0 KECCAK256 SLOAD SWAP1 POP SWAP3 SWAP2 POP POP JUMP JUMPDEST PUSH2 0x9C4 PUSH2 0xC5B JUMP JUMPDEST PUSH0 PUSH20 0xFFFFFFFFFFFFFFFFFFFFFFFFFFFFFFFFFFFFFFFF AND DUP2 PUSH20 0xFFFFFFFFFFFFFFFFFFFFFFFFFFFFFFFFFFFFFFFF AND SUB PUSH2 0xA34 JUMPI PUSH0 PUSH1 0x40 MLOAD PUSH32 0x1E4FBDF700000000000000000000000000000000000000000000000000000000 DUP2 MSTORE PUSH1 0x4 ADD PUSH2 0xA2B SWAP2 SWAP1 PUSH2 0x14C9 JUMP JUMPDEST PUSH1 0x40 MLOAD DUP1 SWAP2 SUB SWAP1 REVERT JUMPDEST PUSH2 0xA3D DUP2 PUSH2 0xCE2 JUMP JUMPDEST POP JUMP JUMPDEST PUSH0 CALLER SWAP1 POP SWAP1 JUMP JUMPDEST PUSH2 0xA54 DUP4 DUP4 DUP4 PUSH1 0x1 PUSH2 0xE24 JUMP JUMPDEST POP POP POP JUMP JUMPDEST PUSH0 PUSH2 0xA64 DUP5 DUP5 PUSH2 0x93A JUMP JUMPDEST SWAP1 POP PUSH32 0xFFFFFFFFFFFFFFFFFFFFFFFFFFFFFFFFFFFFFFFFFFFFFFFFFFFFFFFFFFFFFFFF DUP2 LT ISZERO PUSH2 0xAE6 JUMPI DUP2 DUP2 LT ISZERO PUSH2 0xAD7 JUMPI DUP3 DUP2 DUP4 PUSH1 0x40 MLOAD PUSH32 0xFB8F41B200000000000000000000000000000000000000000000000000000000 DUP2 MSTORE PUSH1 0x4 ADD PUSH2 0xACE SWAP4 SWAP3 SWAP2 SWAP1 PUSH2 0x1889 JUMP JUMPDEST PUSH1 0x40 MLOAD DUP1 SWAP2 SUB SWAP1 REVERT JUMPDEST PUSH2 0xAE5 DUP5 DUP5 DUP5 DUP5 SUB PUSH0 PUSH2 0xE24 JUMP JUMPDEST JUMPDEST POP POP POP POP JUMP JUMPDEST PUSH0 PUSH20 0xFFFFFFFFFFFFFFFFFFFFFFFFFFFFFFFFFFFFFFFF AND DUP4 PUSH20 0xFFFFFFFFFFFFFFFFFFFFFFFFFFFFFFFFFFFFFFFF AND SUB PUSH2 0xB5C JUMPI PUSH0 PUSH1 0x40 MLOAD PUSH32 0x96C6FD1E00000000000000000000000000000000000000000000000000000000 DUP2 MSTORE PUSH1 0x4 ADD PUSH2 0xB53 SWAP2 SWAP1 PUSH2 0x14C9 JUMP JUMPDEST PUSH1 0x40 MLOAD DUP1 SWAP2 SUB SWAP1 REVERT JUMPDEST PUSH0 PUSH20 0xFFFFFFFFFFFFFFFFFFFFFFFFFFFFFFFFFFFFFFFF AND DUP3 PUSH20 0xFFFFFFFFFFFFFFFFFFFFFFFFFFFFFFFFFFFFFFFF AND SUB PUSH2 0xBCC JUMPI PUSH0 PUSH1 0x40 MLOAD PUSH32 0xEC442F0500000000000000000000000000000000000000000000000000000000 DUP2 MSTORE PUSH1 0x4 ADD PUSH2 0xBC3 SWAP2 SWAP1 PUSH2 0x14C9 JUMP JUMPDEST PUSH1 0x40 MLOAD DUP1 SWAP2 SUB SWAP1 REVERT JUMPDEST PUSH2 0xBD7 DUP4 DUP4 DUP4 PUSH2 0xFF3 JUMP JUMPDEST POP POP POP JUMP JUMPDEST PUSH0 PUSH20 0xFFFFFFFFFFFFFFFFFFFFFFFFFFFFFFFFFFFFFFFF AND DUP3 PUSH20 0xFFFFFFFFFFFFFFFFFFFFFFFFFFFFFFFFFFFFFFFF AND SUB PUSH2 0xC4C JUMPI PUSH0 PUSH1 0x40 MLOAD PUSH32 0x96C6FD1E00000000000000000000000000000000000000000000000000000000 DUP2 MSTORE PUSH1 0x4 ADD PUSH2 0xC43 SWAP2 SWAP1 PUSH2 0x14C9 JUMP JUMPDEST PUSH1 0x40 MLOAD DUP1 SWAP2 SUB SWAP1 REVERT JUMPDEST PUSH2 0xC57 DUP3 PUSH0 DUP4 PUSH2 0xFF3 JUMP JUMPDEST POP POP JUMP JUMPDEST PUSH2 0xC63 PUSH2 0xA40 JUMP JUMPDEST PUSH20 0xFFFFFFFFFFFFFFFFFFFFFFFFFFFFFFFFFFFFFFFF AND PUSH2 0xC81 PUSH2 0x64E JUMP JUMPDEST PUSH20 0xFFFFFFFFFFFFFFFFFFFFFFFFFFFFFFFFFFFFFFFF AND EQ PUSH2 0xCE0 JUMPI PUSH2 0xCA4 PUSH2 0xA40 JUMP JUMPDEST PUSH1 0x40 MLOAD PUSH32 0x118CDAA700000000000000000000000000000000000000000000000000000000 DUP2 MSTORE PUSH1 0x4 ADD PUSH2 0xCD7 SWAP2 SWAP1 PUSH2 0x14C9 JUMP JUMPDEST PUSH1 0x40 MLOAD DUP1 SWAP2 SUB SWAP1 REVERT JUMPDEST JUMP JUMPDEST PUSH0 PUSH1 0x5 PUSH0 SWAP1 SLOAD SWAP1 PUSH2 0x100 EXP SWAP1 DIV PUSH20 0xFFFFFFFFFFFFFFFFFFFFFFFFFFFFFFFFFFFFFFFF AND SWAP1 POP DUP2 PUSH1 0x5 PUSH0 PUSH2 0x100 EXP DUP2 SLOAD DUP2 PUSH20 0xFFFFFFFFFFFFFFFFFFFFFFFFFFFFFFFFFFFFFFFF MUL NOT AND SWAP1 DUP4 PUSH20 0xFFFFFFFFFFFFFFFFFFFFFFFFFFFFFFFFFFFFFFFF AND MUL OR SWAP1 SSTORE POP DUP2 PUSH20 0xFFFFFFFFFFFFFFFFFFFFFFFFFFFFFFFFFFFFFFFF AND DUP2 PUSH20 0xFFFFFFFFFFFFFFFFFFFFFFFFFFFFFFFFFFFFFFFF AND PUSH32 0x8BE0079C531659141344CD1FD0A4F28419497F9722A3DAAFE3B4186F6B6457E0 PUSH1 0x40 MLOAD PUSH1 0x40 MLOAD DUP1 SWAP2 SUB SWAP1 LOG3 POP POP JUMP JUMPDEST PUSH0 PUSH20 0xFFFFFFFFFFFFFFFFFFFFFFFFFFFFFFFFFFFFFFFF AND DUP3 PUSH20 0xFFFFFFFFFFFFFFFFFFFFFFFFFFFFFFFFFFFFFFFF AND SUB PUSH2 0xE15 JUMPI PUSH0 PUSH1 0x40 MLOAD PUSH32 0xEC442F0500000000000000000000000000000000000000000000000000000000 DUP2 MSTORE PUSH1 0x4 ADD PUSH2 0xE0C SWAP2 SWAP1 PUSH2 0x14C9 JUMP JUMPDEST PUSH1 0x40 MLOAD DUP1 SWAP2 SUB SWAP1 REVERT JUMPDEST PUSH2 0xE20 PUSH0 DUP4 DUP4 PUSH2 0xFF3 JUMP JUMPDEST POP POP JUMP JUMPDEST PUSH0 PUSH20 0xFFFFFFFFFFFFFFFFFFFFFFFFFFFFFFFFFFFFFFFF AND DUP5 PUSH20 0xFFFFFFFFFFFFFFFFFFFFFFFFFFFFFFFFFFFFFFFF AND SUB PUSH2 0xE94 JUMPI PUSH0 PUSH1 0x40 MLOAD PUSH32 0xE602DF0500000000000000000000000000000000000000000000000000000000 DUP2 MSTORE PUSH1 0x4 ADD PUSH2 0xE8B SWAP2 SWAP1 PUSH2 0x14C9 JUMP JUMPDEST PUSH1 0x40 MLOAD DUP1 SWAP2 SUB SWAP1 REVERT JUMPDEST PUSH0 PUSH20 0xFFFFFFFFFFFFFFFFFFFFFFFFFFFFFFFFFFFFFFFF AND DUP4 PUSH20 0xFFFFFFFFFFFFFFFFFFFFFFFFFFFFFFFFFFFFFFFF AND SUB PUSH2 0xF04 JUMPI PUSH0 PUSH1 0x40 MLOAD PUSH32 0x94280D6200000000000000000000000000000000000000000000000000000000 DUP2 MSTORE PUSH1 0x4 ADD PUSH2 0xEFB SWAP2 SWAP1 PUSH2 0x14C9 JUMP JUMPDEST PUSH1 0x40 MLOAD DUP1 SWAP2 SUB SWAP1 REVERT JUMPDEST DUP2 PUSH1 0x1 PUSH0 DUP7 PUSH20 0xFFFFFFFFFFFFFFFFFFFFFFFFFFFFFFFFFFFFFFFF AND PUSH20 0xFFFFFFFFFFFFFFFFFFFFFFFFFFFFFFFFFFFFFFFF AND DUP2 MSTORE PUSH1 0x20 ADD SWAP1 DUP2 MSTORE PUSH1 0x20 ADD PUSH0 KECCAK256 PUSH0 DUP6 PUSH20 0xFFFFFFFFFFFFFFFFFFFFFFFFFFFFFFFFFFFFFFFF AND PUSH20 0xFFFFFFFFFFFFFFFFFFFFFFFFFFFFFFFFFFFFFFFF AND DUP2 MSTORE PUSH1 0x20 ADD SWAP1 DUP2 MSTORE PUSH1 0x20 ADD PUSH0 KECCAK256 DUP2 SWAP1 SSTORE POP DUP1 ISZERO PUSH2 0xFED JUMPI DUP3 PUSH20 0xFFFFFFFFFFFFFFFFFFFFFFFFFFFFFFFFFFFFFFFF AND DUP5 PUSH20 0xFFFFFFFFFFFFFFFFFFFFFFFFFFFFFFFFFFFFFFFF AND PUSH32 0x8C5BE1E5EBEC7D5BD14F71427D1E84F3DD0314C0F7B2291E5B200AC8C7C3B925 DUP5 PUSH1 0x40 MLOAD PUSH2 0xFE4 SWAP2 SWAP1 PUSH2 0x13C7 JUMP JUMPDEST PUSH1 0x40 MLOAD DUP1 SWAP2 SUB SWAP1 LOG3 JUMPDEST POP POP POP POP JUMP JUMPDEST PUSH0 PUSH20 0xFFFFFFFFFFFFFFFFFFFFFFFFFFFFFFFFFFFFFFFF AND DUP4 PUSH20 0xFFFFFFFFFFFFFFFFFFFFFFFFFFFFFFFFFFFFFFFF AND SUB PUSH2 0x1043 JUMPI DUP1 PUSH1 0x2 PUSH0 DUP3 DUP3 SLOAD PUSH2 0x1037 SWAP2 SWAP1 PUSH2 0x18BE JUMP JUMPDEST SWAP3 POP POP DUP2 SWAP1 SSTORE POP PUSH2 0x1111 JUMP JUMPDEST PUSH0 DUP1 PUSH0 DUP6 PUSH20 0xFFFFFFFFFFFFFFFFFFFFFFFFFFFFFFFFFFFFFFFF AND PUSH20 0xFFFFFFFFFFFFFFFFFFFFFFFFFFFFFFFFFFFFFFFF AND DUP2 MSTORE PUSH1 0x20 ADD SWAP1 DUP2 MSTORE PUSH1 0x20 ADD PUSH0 KECCAK256 SLOAD SWAP1 POP DUP2 DUP2 LT ISZERO PUSH2 0x10CC JUMPI DUP4 DUP2 DUP4 PUSH1 0x40 MLOAD PUSH32 0xE450D38C00000000000000000000000000000000000000000000000000000000 DUP2 MSTORE PUSH1 0x4 ADD PUSH2 0x10C3 SWAP4 SWAP3 SWAP2 SWAP1 PUSH2 0x1889 JUMP JUMPDEST PUSH1 0x40 MLOAD DUP1 SWAP2 SUB SWAP1 REVERT JUMPDEST DUP2 DUP2 SUB PUSH0 DUP1 DUP7 PUSH20 0xFFFFFFFFFFFFFFFFFFFFFFFFFFFFFFFFFFFFFFFF AND PUSH20 0xFFFFFFFFFFFFFFFFFFFFFFFFFFFFFFFFFFFFFFFF AND DUP2 MSTORE PUSH1 0x20 ADD SWAP1 DUP2 MSTORE PUSH1 0x20 ADD PUSH0 KECCAK256 DUP2 SWAP1 SSTORE POP POP JUMPDEST PUSH0 PUSH20 0xFFFFFFFFFFFFFFFFFFFFFFFFFFFFFFFFFFFFFFFF AND DUP3 PUSH20 0xFFFFFFFFFFFFFFFFFFFFFFFFFFFFFFFFFFFFFFFF AND SUB PUSH2 0x1158 JUMPI DUP1 PUSH1 0x2 PUSH0 DUP3 DUP3 SLOAD SUB SWAP3 POP POP DUP2 SWAP1 SSTORE POP PUSH2 0x11A2 JUMP JUMPDEST DUP1 PUSH0 DUP1 DUP5 PUSH20 0xFFFFFFFFFFFFFFFFFFFFFFFFFFFFFFFFFFFFFFFF AND PUSH20 0xFFFFFFFFFFFFFFFFFFFFFFFFFFFFFFFFFFFFFFFF AND DUP2 MSTORE PUSH1 0x20 ADD SWAP1 DUP2 MSTORE PUSH1 0x20 ADD PUSH0 KECCAK256 PUSH0 DUP3 DUP3 SLOAD ADD SWAP3 POP POP DUP2 SWAP1 SSTORE POP JUMPDEST DUP2 PUSH20 0xFFFFFFFFFFFFFFFFFFFFFFFFFFFFFFFFFFFFFFFF AND DUP4 PUSH20 0xFFFFFFFFFFFFFFFFFFFFFFFFFFFFFFFFFFFFFFFF AND PUSH32 0xDDF252AD1BE2C89B69C2B068FC378DAA952BA7F163C4A11628F55A4DF523B3EF DUP4 PUSH1 0x40 MLOAD PUSH2 0x11FF SWAP2 SWAP1 PUSH2 0x13C7 JUMP JUMPDEST PUSH1 0x40 MLOAD DUP1 SWAP2 SUB SWAP1 LOG3 POP POP POP JUMP JUMPDEST PUSH0 DUP2 MLOAD SWAP1 POP SWAP2 SWAP1 POP JUMP JUMPDEST PUSH0 DUP3 DUP3 MSTORE PUSH1 0x20 DUP3 ADD SWAP1 POP SWAP3 SWAP2 POP POP JUMP JUMPDEST PUSH0 JUMPDEST DUP4 DUP2 LT ISZERO PUSH2 0x1243 JUMPI DUP1 DUP3 ADD MLOAD DUP2 DUP5 ADD MSTORE PUSH1 0x20 DUP2 ADD SWAP1 POP PUSH2 0x1228 JUMP JUMPDEST PUSH0 DUP5 DUP5 ADD MSTORE POP POP POP POP JUMP JUMPDEST PUSH0 PUSH1 0x1F NOT PUSH1 0x1F DUP4 ADD AND SWAP1 POP SWAP2 SWAP1 POP JUMP JUMPDEST PUSH0 PUSH2 0x1268 DUP3 PUSH2 0x120C JUMP JUMPDEST PUSH2 0x1272 DUP2 DUP6 PUSH2 0x1216 JUMP JUMPDEST SWAP4 POP PUSH2 0x1282 DUP2 DUP6 PUSH1 0x20 DUP7 ADD PUSH2 0x1226 JUMP JUMPDEST PUSH2 0x128B DUP2 PUSH2 0x124E JUMP JUMPDEST DUP5 ADD SWAP2 POP POP SWAP3 SWAP2 POP POP JUMP JUMPDEST PUSH0 PUSH1 0x20 DUP3 ADD SWAP1 POP DUP2 DUP2 SUB PUSH0 DUP4 ADD MSTORE PUSH2 0x12AE DUP2 DUP5 PUSH2 0x125E JUMP JUMPDEST SWAP1 POP SWAP3 SWAP2 POP POP JUMP JUMPDEST PUSH0 DUP1 REVERT JUMPDEST PUSH0 PUSH20 0xFFFFFFFFFFFFFFFFFFFFFFFFFFFFFFFFFFFFFFFF DUP3 AND SWAP1 POP SWAP2 SWAP1 POP JUMP JUMPDEST PUSH0 PUSH2 0x12E3 DUP3 PUSH2 0x12BA JUMP JUMPDEST SWAP1 POP SWAP2 SWAP1 POP JUMP JUMPDEST PUSH2 0x12F3 DUP2 PUSH2 0x12D9 JUMP JUMPDEST DUP2 EQ PUSH2 0x12FD JUMPI PUSH0 DUP1 REVERT JUMPDEST POP JUMP JUMPDEST PUSH0 DUP2 CALLDATALOAD SWAP1 POP PUSH2 0x130E DUP2 PUSH2 0x12EA JUMP JUMPDEST SWAP3 SWAP2 POP POP JUMP JUMPDEST PUSH0 DUP2 SWAP1 POP SWAP2 SWAP1 POP JUMP JUMPDEST PUSH2 0x1326 DUP2 PUSH2 0x1314 JUMP JUMPDEST DUP2 EQ PUSH2 0x1330 JUMPI PUSH0 DUP1 REVERT JUMPDEST POP JUMP JUMPDEST PUSH0 DUP2 CALLDATALOAD SWAP1 POP PUSH2 0x1341 DUP2 PUSH2 0x131D JUMP JUMPDEST SWAP3 SWAP2 POP POP JUMP JUMPDEST PUSH0 DUP1 PUSH1 0x40 DUP4 DUP6 SUB SLT ISZERO PUSH2 0x135D JUMPI PUSH2 0x135C PUSH2 0x12B6 JUMP JUMPDEST JUMPDEST PUSH0 PUSH2 0x136A DUP6 DUP3 DUP7 ADD PUSH2 0x1300 JUMP JUMPDEST SWAP3 POP POP PUSH1 0x20 PUSH2 0x137B DUP6 DUP3 DUP7 ADD PUSH2 0x1333 JUMP JUMPDEST SWAP2 POP POP SWAP3 POP SWAP3 SWAP1 POP JUMP JUMPDEST PUSH0 DUP2 ISZERO ISZERO SWAP1 POP SWAP2 SWAP1 POP JUMP JUMPDEST PUSH2 0x1399 DUP2 PUSH2 0x1385 JUMP JUMPDEST DUP3 MSTORE POP POP JUMP JUMPDEST PUSH0 PUSH1 0x20 DUP3 ADD SWAP1 POP PUSH2 0x13B2 PUSH0 DUP4 ADD DUP5 PUSH2 0x1390 JUMP JUMPDEST SWAP3 SWAP2 POP POP JUMP JUMPDEST PUSH2 0x13C1 DUP2 PUSH2 0x1314 JUMP JUMPDEST DUP3 MSTORE POP POP JUMP JUMPDEST PUSH0 PUSH1 0x20 DUP3 ADD SWAP1 POP PUSH2 0x13DA PUSH0 DUP4 ADD DUP5 PUSH2 0x13B8 JUMP JUMPDEST SWAP3 SWAP2 POP POP JUMP JUMPDEST PUSH0 DUP1 PUSH0 PUSH1 0x60 DUP5 DUP7 SUB SLT ISZERO PUSH2 0x13F7 JUMPI PUSH2 0x13F6 PUSH2 0x12B6 JUMP JUMPDEST JUMPDEST PUSH0 PUSH2 0x1404 DUP7 DUP3 DUP8 ADD PUSH2 0x1300 JUMP JUMPDEST SWAP4 POP POP PUSH1 0x20 PUSH2 0x1415 DUP7 DUP3 DUP8 ADD PUSH2 0x1300 JUMP JUMPDEST SWAP3 POP POP PUSH1 0x40 PUSH2 0x1426 DUP7 DUP3 DUP8 ADD PUSH2 0x1333 JUMP JUMPDEST SWAP2 POP POP SWAP3 POP SWAP3 POP SWAP3 JUMP JUMPDEST PUSH0 PUSH1 0xFF DUP3 AND SWAP1 POP SWAP2 SWAP1 POP JUMP JUMPDEST PUSH2 0x1445 DUP2 PUSH2 0x1430 JUMP JUMPDEST DUP3 MSTORE POP POP JUMP JUMPDEST PUSH0 PUSH1 0x20 DUP3 ADD SWAP1 POP PUSH2 0x145E PUSH0 DUP4 ADD DUP5 PUSH2 0x143C JUMP JUMPDEST SWAP3 SWAP2 POP POP JUMP JUMPDEST PUSH0 PUSH1 0x20 DUP3 DUP5 SUB SLT ISZERO PUSH2 0x1479 JUMPI PUSH2 0x1478 PUSH2 0x12B6 JUMP JUMPDEST JUMPDEST PUSH0 PUSH2 0x1486 DUP5 DUP3 DUP6 ADD PUSH2 0x1333 JUMP JUMPDEST SWAP2 POP POP SWAP3 SWAP2 POP POP JUMP JUMPDEST PUSH0 PUSH1 0x20 DUP3 DUP5 SUB SLT ISZERO PUSH2 0x14A4 JUMPI PUSH2 0x14A3 PUSH2 0x12B6 JUMP JUMPDEST JUMPDEST PUSH0 PUSH2 0x14B1 DUP5 DUP3 DUP6 ADD PUSH2 0x1300 JUMP JUMPDEST SWAP2 POP POP SWAP3 SWAP2 POP POP JUMP JUMPDEST PUSH2 0x14C3 DUP2 PUSH2 0x12D9 JUMP JUMPDEST DUP3 MSTORE POP POP JUMP JUMPDEST PUSH0 PUSH1 0x20 DUP3 ADD SWAP1 POP PUSH2 0x14DC PUSH0 DUP4 ADD DUP5 PUSH2 0x14BA JUMP JUMPDEST SWAP3 SWAP2 POP POP JUMP JUMPDEST PUSH0 PUSH2 0xFFFF DUP3 AND SWAP1 POP SWAP2 SWAP1 POP JUMP JUMPDEST PUSH2 0x14F8 DUP2 PUSH2 0x14E2 JUMP JUMPDEST DUP2 EQ PUSH2 0x1502 JUMPI PUSH0 DUP1 REVERT JUMPDEST POP JUMP JUMPDEST PUSH0 DUP2 CALLDATALOAD SWAP1 POP PUSH2 0x1513 DUP2 PUSH2 0x14EF JUMP JUMPDEST SWAP3 SWAP2 POP POP JUMP JUMPDEST PUSH0 PUSH1 0x20 DUP3 DUP5 SUB SLT ISZERO PUSH2 0x152E JUMPI PUSH2 0x152D PUSH2 0x12B6 JUMP JUMPDEST JUMPDEST PUSH0 PUSH2 0x153B DUP5 DUP3 DUP6 ADD PUSH2 0x1505 JUMP JUMPDEST SWAP2 POP POP SWAP3 SWAP2 POP POP JUMP JUMPDEST PUSH2 0x154D DUP2 PUSH2 0x14E2 JUMP JUMPDEST DUP3 MSTORE POP POP JUMP JUMPDEST PUSH0 PUSH1 0x20 DUP3 ADD SWAP1 POP PUSH2 0x1566 PUSH0 DUP4 ADD DUP5 PUSH2 0x1544 JUMP JUMPDEST SWAP3 SWAP2 POP POP JUMP JUMPDEST PUSH0 DUP1 PUSH1 0x40 DUP4 DUP6 SUB SLT ISZERO PUSH2 0x1582 JUMPI PUSH2 0x1581 PUSH2 0x12B6 JUMP JUMPDEST JUMPDEST PUSH0 PUSH2 0x158F DUP6 DUP3 DUP7 ADD PUSH2 0x1300 JUMP JUMPDEST SWAP3 POP POP PUSH1 0x20 PUSH2 0x15A0 DUP6 DUP3 DUP7 ADD PUSH2 0x1300 JUMP JUMPDEST SWAP2 POP POP SWAP3 POP SWAP3 SWAP1 POP JUMP JUMPDEST PUSH32 0x4E487B7100000000000000000000000000000000000000000000000000000000 PUSH0 MSTORE PUSH1 0x22 PUSH1 0x4 MSTORE PUSH1 0x24 PUSH0 REVERT JUMPDEST PUSH0 PUSH1 0x2 DUP3 DIV SWAP1 POP PUSH1 0x1 DUP3 AND DUP1 PUSH2 0x15EE JUMPI PUSH1 0x7F DUP3 AND SWAP2 POP JUMPDEST PUSH1 0x20 DUP3 LT DUP2 SUB PUSH2 0x1601 JUMPI PUSH2 0x1600 PUSH2 0x15AA JUMP JUMPDEST JUMPDEST POP SWAP2 SWAP1 POP JUMP JUMPDEST PUSH32 0x4E487B7100000000000000000000000000000000000000000000000000000000 PUSH0 MSTORE PUSH1 0x11 PUSH1 0x4 MSTORE PUSH1 0x24 PUSH0 REVERT JUMPDEST PUSH0 PUSH2 0x163E DUP3 PUSH2 0x1314 JUMP JUMPDEST SWAP2 POP PUSH2 0x1649 DUP4 PUSH2 0x1314 JUMP JUMPDEST SWAP3 POP DUP3 DUP3 MUL PUSH2 0x1657 DUP2 PUSH2 0x1314 JUMP JUMPDEST SWAP2 POP DUP3 DUP3 DIV DUP5 EQ DUP4 ISZERO OR PUSH2 0x166E JUMPI PUSH2 0x166D PUSH2 0x1607 JUMP JUMPDEST JUMPDEST POP SWAP3 SWAP2 POP POP JUMP JUMPDEST PUSH32 0x4E487B7100000000000000000000000000000000000000000000000000000000 PUSH0 MSTORE PUSH1 0x12 PUSH1 0x4 MSTORE PUSH1 0x24 PUSH0 REVERT JUMPDEST PUSH0 PUSH2 0x16AC DUP3 PUSH2 0x1314 JUMP JUMPDEST SWAP2 POP PUSH2 0x16B7 DUP4 PUSH2 0x1314 JUMP JUMPDEST SWAP3 POP DUP3 PUSH2 0x16C7 JUMPI PUSH2 0x16C6 PUSH2 0x1675 JUMP JUMPDEST JUMPDEST DUP3 DUP3 DIV SWAP1 POP SWAP3 SWAP2 POP POP JUMP JUMPDEST PUSH32 0x56616C756520646F6573206E6F7420636F76657220666565732E20456E746572 PUSH0 DUP3 ADD MSTORE PUSH32 0x20612068696768657220616D6F756E7400000000000000000000000000000000 PUSH1 0x20 DUP3 ADD MSTORE POP JUMP JUMPDEST PUSH0 PUSH2 0x172C PUSH1 0x30 DUP4 PUSH2 0x1216 JUMP JUMPDEST SWAP2 POP PUSH2 0x1737 DUP3 PUSH2 0x16D2 JUMP JUMPDEST PUSH1 0x40 DUP3 ADD SWAP1 POP SWAP2 SWAP1 POP JUMP JUMPDEST PUSH0 PUSH1 0x20 DUP3 ADD SWAP1 POP DUP2 DUP2 SUB PUSH0 DUP4 ADD MSTORE PUSH2 0x1759 DUP2 PUSH2 0x1720 JUMP JUMPDEST SWAP1 POP SWAP2 SWAP1 POP JUMP JUMPDEST PUSH32 0x56616C75652063616E6E6F7420636F76657220616E7920666565732E20456E74 PUSH0 DUP3 ADD MSTORE PUSH32 0x657220612068696768657220616D6F756E740000000000000000000000000000 PUSH1 0x20 DUP3 ADD MSTORE POP JUMP JUMPDEST PUSH0 PUSH2 0x17BA PUSH1 0x32 DUP4 PUSH2 0x1216 JUMP JUMPDEST SWAP2 POP PUSH2 0x17C5 DUP3 PUSH2 0x1760 JUMP JUMPDEST PUSH1 0x40 DUP3 ADD SWAP1 POP SWAP2 SWAP1 POP JUMP JUMPDEST PUSH0 PUSH1 0x20 DUP3 ADD SWAP1 POP DUP2 DUP2 SUB PUSH0 DUP4 ADD MSTORE PUSH2 0x17E7 DUP2 PUSH2 0x17AE JUMP JUMPDEST SWAP1 POP SWAP2 SWAP1 POP JUMP JUMPDEST PUSH0 PUSH2 0x17F8 DUP3 PUSH2 0x1314 JUMP JUMPDEST SWAP2 POP PUSH2 0x1803 DUP4 PUSH2 0x1314 JUMP JUMPDEST SWAP3 POP DUP3 DUP3 SUB SWAP1 POP DUP2 DUP2 GT ISZERO PUSH2 0x181B JUMPI PUSH2 0x181A PUSH2 0x1607 JUMP JUMPDEST JUMPDEST SWAP3 SWAP2 POP POP JUMP JUMPDEST PUSH32 0x4275726E2072617465206D6173206265206C657373207468616E203530250000 PUSH0 DUP3 ADD MSTORE POP JUMP JUMPDEST PUSH0 PUSH2 0x1855 PUSH1 0x1E DUP4 PUSH2 0x1216 JUMP JUMPDEST SWAP2 POP PUSH2 0x1860 DUP3 PUSH2 0x1821 JUMP JUMPDEST PUSH1 0x20 DUP3 ADD SWAP1 POP SWAP2 SWAP1 POP JUMP JUMPDEST PUSH0 PUSH1 0x20 DUP3 ADD SWAP1 POP DUP2 DUP2 SUB PUSH0 DUP4 ADD MSTORE PUSH2 0x1882 DUP2 PUSH2 0x1849 JUMP JUMPDEST SWAP1 POP SWAP2 SWAP1 POP JUMP JUMPDEST PUSH0 PUSH1 0x60 DUP3 ADD SWAP1 POP PUSH2 0x189C PUSH0 DUP4 ADD DUP7 PUSH2 0x14BA JUMP JUMPDEST PUSH2 0x18A9 PUSH1 0x20 DUP4 ADD DUP6 PUSH2 0x13B8 JUMP JUMPDEST PUSH2 0x18B6 PUSH1 0x40 DUP4 ADD DUP5 PUSH2 0x13B8 JUMP JUMPDEST SWAP5 SWAP4 POP POP POP POP JUMP JUMPDEST PUSH0 PUSH2 0x18C8 DUP3 PUSH2 0x1314 JUMP JUMPDEST SWAP2 POP PUSH2 0x18D3 DUP4 PUSH2 0x1314 JUMP JUMPDEST SWAP3 POP DUP3 DUP3 ADD SWAP1 POP DUP1 DUP3 GT ISZERO PUSH2 0x18EB JUMPI PUSH2 0x18EA PUSH2 0x1607 JUMP JUMPDEST JUMPDEST SWAP3 SWAP2 POP POP JUMP INVALID LOG2 PUSH5 0x6970667358 0x22 SLT KECCAK256 0xE4 0x22 DELEGATECALL CALL 0xB7 0xC1 PUSH2 0xB2D3 PUSH17 0x6C2D56F3CAF8D169CB758DF30F760AB18F 0xB4 SSTORE 0x24 TIMESTAMP PUSH14 0x64736F6C63430008180033000000 "
				},
				"gasEstimates": {
					"creation": {
						"codeDepositCost": "1287800",
						"executionCost": "infinite",
						"totalCost": "infinite"
					},
					"external": {
						"allowance(address,address)": "infinite",
						"approve(address,uint256)": "infinite",
						"balanceOf(address)": "2896",
						"burn(uint256)": "infinite",
						"burnRate()": "2561",
						"decimals()": "361",
						"mint(uint256)": "infinite",
						"name()": "infinite",
						"owner()": "2538",
						"renounceOwnership()": "infinite",
						"setBurnRate(uint16)": "infinite",
						"symbol()": "infinite",
						"totalSupply()": "2500",
						"transfer(address,uint256)": "infinite",
						"transferFrom(address,address,uint256)": "infinite",
						"transferOwnership(address)": "infinite"
					}
				},
				"methodIdentifiers": {
					"allowance(address,address)": "dd62ed3e",
					"approve(address,uint256)": "095ea7b3",
					"balanceOf(address)": "70a08231",
					"burn(uint256)": "42966c68",
					"burnRate()": "bed99850",
					"decimals()": "313ce567",
					"mint(uint256)": "a0712d68",
					"name()": "06fdde03",
					"owner()": "8da5cb5b",
					"renounceOwnership()": "715018a6",
					"setBurnRate(uint16)": "b4969b96",
					"symbol()": "95d89b41",
					"totalSupply()": "18160ddd",
					"transfer(address,uint256)": "a9059cbb",
					"transferFrom(address,address,uint256)": "23b872dd",
					"transferOwnership(address)": "f2fde38b"
				}
			},
			"storageLayout": {
				"storage": [
					{
						"astId": 307,
						"contract": "clickcoin.sol:ClickCoin",
						"label": "_balances",
						"offset": 0,
						"slot": "0",
						"type": "t_mapping(t_address,t_uint256)"
					},
					{
						"astId": 313,
						"contract": "clickcoin.sol:ClickCoin",
						"label": "_allowances",
						"offset": 0,
						"slot": "1",
						"type": "t_mapping(t_address,t_mapping(t_address,t_uint256))"
					},
					{
						"astId": 315,
						"contract": "clickcoin.sol:ClickCoin",
						"label": "_totalSupply",
						"offset": 0,
						"slot": "2",
						"type": "t_uint256"
					},
					{
						"astId": 317,
						"contract": "clickcoin.sol:ClickCoin",
						"label": "_name",
						"offset": 0,
						"slot": "3",
						"type": "t_string_storage"
					},
					{
						"astId": 319,
						"contract": "clickcoin.sol:ClickCoin",
						"label": "_symbol",
						"offset": 0,
						"slot": "4",
						"type": "t_string_storage"
					},
					{
						"astId": 8,
						"contract": "clickcoin.sol:ClickCoin",
						"label": "_owner",
						"offset": 0,
						"slot": "5",
						"type": "t_address"
					},
					{
						"astId": 943,
						"contract": "clickcoin.sol:ClickCoin",
						"label": "burnRate",
						"offset": 20,
						"slot": "5",
						"type": "t_uint16"
					}
				],
				"types": {
					"t_address": {
						"encoding": "inplace",
						"label": "address",
						"numberOfBytes": "20"
					},
					"t_mapping(t_address,t_mapping(t_address,t_uint256))": {
						"encoding": "mapping",
						"key": "t_address",
						"label": "mapping(address => mapping(address => uint256))",
						"numberOfBytes": "32",
						"value": "t_mapping(t_address,t_uint256)"
					},
					"t_mapping(t_address,t_uint256)": {
						"encoding": "mapping",
						"key": "t_address",
						"label": "mapping(address => uint256)",
						"numberOfBytes": "32",
						"value": "t_uint256"
					},
					"t_string_storage": {
						"encoding": "bytes",
						"label": "string",
						"numberOfBytes": "32"
					},
					"t_uint16": {
						"encoding": "inplace",
						"label": "uint16",
						"numberOfBytes": "2"
					},
					"t_uint256": {
						"encoding": "inplace",
						"label": "uint256",
						"numberOfBytes": "32"
					}
				}
			},
			"userdoc": {
				"kind": "user",
				"methods": {},
				"version": 1
			}
		}
	}
}